:020000040000FA
:10000000B807001039010000410100004301000061
:100010004501000047010000490100000000000008
:100020000000000000000000000000004B01000084
:100030004D010000000000004F010000010300001E
:10004000530100002D0B0000410B0000530B00007A
:10005000650B0000B9A5000053010000530100002A
:10006000FFA60000530100005301000053010000EF
:100070005301000053010000530100005301000030
:100080005301000053010000530100005301000020
:100090005301000053010000530100005301000010
:1000A0005301000053010000530100005301000000
:1000B00053010000530100005301000053010000F0
:1000C00053010000530100005301000053010000E0
:1000D00053010000530100005301000053010000D0
:1000E00053010000DFF80CD00AF0C0FE00480047C2
:1000F00033030000B807001070B505460C46A4F1A4
:1001000020000B4A02EB00111022284600F0DFF815
:1001100070BDA1F1200202EB4202064B03EB82020A
:100120001368036053684360926882607047000000
:10013000ACD600009CDC000006488047064800471B
:10014000FEE7FEE7FEE7FEE7FEE7FEE7FEE7FEE787
:10015000FEE7FEE71D8C0000E500000070B50546D7
:100160000C4635B1012D09D0022D0DD0032D20D123
:1001700010E03748046008F001FC1CE03448A4306B
:10018000046008F0FBFB16E03148001F046008F033
:10019000F5FB10E02E48001D006820F01F002D49DF
:1001A000C1F808010846D0F808012043C1F8080149
:1001B00001E000BFFEE700BF70BD014631B101297B
:1001C00007D0022908D003290CD108E02248006892
:1001D000704722480068FBE721480068F8E721489B
:1001E0000068F5E700BFFEE7012907D1184A403A49
:1001F00012680243174BC3F8C42007E031B9144A10
:10020000403A12688243134BC3F8C4207047002061
:100210000F494439086030BF704704201249086014
:1002200008200B494439086030BF704704200E494C
:100230000860092006494439086030BF704704202F
:1002400009490860032002494439086030BF7047FB
:1002500004C10F4000C00F40880000108C00001047
:10026000900000109400001010ED00E02DE9F05F08
:100270000546002092469B46884606468146402415
:100280001BE028464146474622460AF0A8FD534651
:100290005A46C01A914110D31146184622460AF018
:1002A0008FFD2D1A67EB01084F46224601200021E1
:1002B0000AF086FD17EB00094E41201EA4F101044F
:1002C000DFDC484631462A464346BDE8F09F40EA17
:1002D00001039B0703D009E008C9121F08C0042AC4
:1002E000FAD203E011F8013B00F8013B521EF9D2AB
:1002F00070479623002211460AF08ABDFFFFFFFFD8
:10030000FE480068401CFD4908607047FB4A1168C0
:1003100000BFFA4A1268521A8242FAD37047024664
:100320000843704710B5044601210846FFF7F7FF60
:1003300010BD8AB00020FFF740FF804600200690E5
:100340000790089009904FF47A70B8FBF0F0411EC6
:10035000B1F1807F00D322E021F07F40401E4FF0BA
:10036000E022506150171F2200280ADAD3064FEA14
:100370001369E34B00F00F0CACF1040C03F80C9084
:1003800005E0D3064FEA136CDE4B03F800C000BF54
:1003900000204FF0E02290610720106100BF04F0C0
:1003A000E8FD0AF0A0F84FF416500AF055F908F0ED
:1003B00030FA07F048FE04F047FE002000F0B2FCDF
:1003C000D1494869002100F0E6FC012000F0AAFCB8
:1003D000002004F0A4FDCD4840684FF488734FF42A
:1003E000F07200210090084600F0DFFD6420FFF766
:1003F0008DFF08F0AFF86420FFF788FF00BF4120B1
:1004000008F01CF8C2490870084600781128F6D197
:100410001121402008F02EF8BE48BC49486008462B
:1004200040684FF488734FF4F07200210090084642
:1004300000F0BBFD1220B849087006F019F9B54864
:10044000B2494860084640684FF488734FF4F07230
:1004500000210090084600F0A8FD32208DF8180019
:1004600030208DF8190031208DF81A0038208DF8D1
:100470001B002E208DF81C0030208DF81D00372029
:100480008DF81E0000208DF81F0006AA78216E202E
:1004900001F040FE40F2E240FFF738FF9D489B49E3
:1004A0004860084640684FF488734FF4F0720021AA
:1004B0000090084600F079FD0020984908609448B3
:1004C000007807F0AFFD01209549087089E24FF0F0
:1004D0008061022008F086FC08F03CF89048007823
:1004E0001C287DD18F480078092802DC8D480078CF
:1004F00020B901208B490870002709E0781CC7B299
:10050000042F05DD87480078401C864908700027C5
:100510000F20FFF7FBFE83480178282007F0AAFF91
:100520000221292007F0A6FF80212A2007F0A2FF40
:1005300079480178422007F09DFF14207A4908701D
:1005400000BF1920FFF7E2FE77480078401E764989
:1005500008700846007800B90EE0342007F06EFFFE
:10056000724908700846007800F0800070490870F1
:10057000084600780028E4D000BF0220FFF7C6FE3E
:1005800014206949087000BF1920FFF7BFFE6648B4
:100590000078401E644908700846007800B90EE0F3
:1005A000342007F04BFF614908700846007800F0DE
:1005B00080005F490870084600788028E4D000BFBA
:1005C00000212A2007F056FF302007F043FF032FB9
:1005D00070D15848407800F00F0505F1300000E078
:1005E000D7E08DF81D0005EB850044005148807868
:1005F00000F0F0005049087008460078051105F138
:1006000030008DF81E002C4404EB8400440049485F
:10061000807800F00F000870084600783030C0B2D3
:100620008DF81F0008460078044404EB8400440061
:100630004048C07800F0F0000870084600780511C6
:1006400005F130008DF820002C4404EB84004400B8
:100650003848C07800F00F0505F130008DF8210012
:100660002C4436482F49097840F8214000208DF865
:10067000220041208DF8180064208DF819006A20AE
:100680008DF81A00274800783030C0B28DF81B0072
:100690003A208DF81C000720022170220192CDE93A
:1006A000022100230092049006AAD7214FF4827001
:1006B00001F0C7FD1B480078082865DD00201949B6
:1006C00008701748407A1E49487004F092F9822059
:1006D0000E4948601B4814233222D72100904FF462
:1006E000827001F023F9174814233222D721009099
:1006F0004FF4967001F01AF9012025E00000001077
:1007000018ED00E000E400E0580000105000001078
:100710003C00001028483F00370000102400001063
:10072000D0000010390000103B0000103F00001006
:1007300038000010EC020010360000100401001018
:10074000B401001098FC0000A6490870A648A7490B
:100750004860084640684FF488734FF4F0720021F7
:100760000090084600F021FC9E48407AA04948705D
:100770009C48417A9F4880F851109F48007807F0C4
:1007800051FC02209D4908709D480078401C9C49FE
:1007900008709448007804287EDA0020994908708F
:1007A000944890F856000A2804D194480078964955
:1007B000087404E08F4890F85600934908748D48F7
:1007C00090F8550060B1002008F025FB00F480107F
:1007D00018B901208C49487402E000208A49487405
:1007E0008948017C282007F045FE824890F8571080
:1007F000292007F03FFE80212A2007F03BFE02203F
:10080000FFF784FD7E480178422007F033FE142074
:100810007E49087000BF7D480078401E7B49087003
:100820000846007800B911E00520FFF76FFD34207D
:1008300007F004FE764908700846007800F0800052
:1008400074490870084600780028E4D000BF0220F0
:10085000FFF75CFD00212A2007F00CFE14206B49F5
:10086000087000BF69480078401E68490870084653
:10087000007800B913E01E20FFF748FD342007F090
:10088000DDFD634908700846007800F0800061498A
:1008900008700846007800E06AE08028E2D000BFD7
:1008A0005A480078C0B3302007F0D4FD01205649E3
:1008B000887406F0BBFC0646534840784F490870E0
:1008C00008460078001108704F4880785249087037
:1008D00008460078DD2803D045F2F050864204D95E
:1008E00046480078401E45490870B6F5FA6F04D2B4
:1008F00042480078401C4149087040480078072869
:1009000002DD08203D4908703C480078022807DADB
:1009100002203A49087003E0FFE700203A49887452
:100920003948407C18B1334890F8550018B931481F
:1009300090F8550038B9C02038494872AF20887205
:10094000374808F0FBFF3748407D20B1002035498B
:10095000487509F0F2FA244824494860284800788C
:10096000401C274908700846007808B90120087023
:100970001C484078122802D11C20FFF7C7FC04F065
:1009800006FB1D49087008460078FF2806D10020A4
:100990002549087001202549087008E022480078A0
:1009A000042804DA20480078401C1F4908701F48BA
:1009B0000078B0B11C480078012812D100201B49F2
:1009C000087004F041FB0C48007805F092FD0548E2
:1009D0000078042803DA0848007807F023FB04F0C5
:1009E00025FB74E5D000001028483F00500000109F
:1009F000B4010010DC0000103C0000103A000010B0
:100A00003700001039000010EC0200103B0000100D
:100A10003F00001038000010360000102B000010BE
:100A200000C00940600300103E0000103D000010AF
:100A3000F8B902224FF040235A600022DA60B04A2F
:100A400012684FF47A73B2FBF3F2521E4A434FF02E
:100A500040239A61FF221A6004225A6101225A60DF
:100A600000BF4FF04022526802F00102002AF8D184
:100A70005BE001281CD10222A24B5A600022DA60FE
:100A80009F4A12684FF47A73B2FBF3F2521E4A4344
:100A90009C4B9A61FF221A6004225A6101225A601B
:100AA00000BF984A526802F00102002AF9D13CE0E6
:100AB00002281CD10222944B5A600022DA60904A2C
:100AC00012684FF47A73B2FBF3F2521E4A438E4B14
:100AD0009A61FF221A6004225A6101225A6000BF03
:100AE000894A526802F00102002AF9D11DE0032868
:100AF0001BD10222854B5A600022DA60804A1268BC
:100B00004FF47A73B2FBF3F2521E4A437F4B9A6161
:100B1000FF221A6004225A6101225A6000BF7B4AF8
:100B2000526802F00102002AF9D1704701204FF00B
:100B30004021086076480068401C7549086070478D
:100B400001207049086073480068401C71490860C2
:100B5000704701206C4908606F480068401C6E496E
:100B6000086070470120694908606C480068401CB3
:100B70006A490860704720B901214FF04022516056
:100B800010E0012803D101215E4A51600AE00228E9
:100B900003D101215C4A516004E0032802D1012104
:100BA0005A4A5160704720B900214FF040225160ED
:100BB00010E0012803D10021524A51600AE00228C6
:100BC00003D10021504A516004E0032802D10021E2
:100BD0004D4A51607047014631B94FF0402250688C
:100BE00040F00200506016E0012905D1454A5068E6
:100BF00040F0020050600EE0022905D1424A5068E0
:100C000040F00200506006E0032904D13F4A5068DA
:100C100040F002005060704770B505460C46F5B9CB
:100C200000203B4908603E48006840F002003C4913
:100C3000C439C1F8C4004FF04020406840F00200C1
:100C40004FF0402148604EF65F20C860084684613E
:100C500003204861012000F048F8012070BD012DFB
:100C600014D100202B4908602D48006840F0040092
:100C70002B49C439C1F8C4002248846103202149AA
:100C80004861022000F031F80120E7E7022D13D17E
:100C90000020214908602248006840F48000204973
:100CA000C439C1F8C400184884610320164948615A
:100CB00000F01BF80120D1E7032D14D100201749C3
:100CC00008601748006840F400001549C439C1F8AD
:100CD000C4000E48846103200C494861042000F0E0
:100CE00004F80120BAE70020B8E700F01F02012154
:100CF00091404209920002F1E022C2F800117047CF
:100D00008C000010008000400000094000400940B5
:100D10004000001044000010480000104C0000107B
:100D2000C4C00F4008B5B0B1F949896941F001016B
:100D3000F74A916142F21071009108E0F449896923
:100D400041F40061F24A91610099491E00910099B5
:100D50000029F3D115E0EE49896921F40061EC4ADC
:100D6000916142F21071009102E00099491E0091D8
:100D700000990029F9D1E649896921F00101E44A85
:100D8000916108BDE34A002102E008C808C2491C7D
:100D90008029FAD370472DE9704180460D4600BF87
:100DA0002720DD4908614861DC490860DA49C1F85B
:100DB0007402DB490860091D0860091D0860091DEF
:100DC0000860D5498861C861D54948390860091D5E
:100DD0000860091D0860091D0860091D0860091DDB
:100DE0000860CD4908624862CD4918310860091D84
:100DF0000860CB4930390860091D0860091D08608A
:100E0000091D0860C64910390860C549091F0860F6
:100E1000C3490C390860C049C1F81001C148006CD1
:100E200040F00200BF4908640846806D40F00A00A7
:100E30008865BD48D0F8C40040F00100BA49C1F847
:100E4000C400BA48006820F00100B84908600020DA
:100E5000AF4988610846806920F00E008861084625
:100E6000806940F00A0088610846806940F02000EF
:100E700088610846806920F08000886108468069A2
:100E800020F4807088610846806920F400708861D1
:100E90000846806920F4806088610846806920F4F3
:100EA00000608861A2480068A249B0FBF1F09E4949
:100EB000C1F8B8019648806840F080609449886025
:100EC0000846806820F0200088600846806840F46A
:100ED000006088600846806840F48050886008465A
:100EE000806820F4005088600846806820F48040C4
:100EF00088600846806890490840854988600846AF
:100F000080688E490843824988600020086008464E
:100F1000006840F01C5008600846006840F48020DB
:100F200008600846006840F4807008600846006861
:100F300040F074000860002048600846406840F0B7
:100F4000006048600846406840F400204860084659
:100F5000406840F4806048600846406840F20F11E5
:100F600008436B49486076480861486115B12846D6
:100F7000FFF708FF724E002403E04FF47F4001C6E4
:100F8000641CB4F5FF3FF8D342F2107400E0641E15
:100F9000002CFCD1BDE87081694A002101E001C24A
:100FA000491CB1F5FF3FFAD370472DE9F0411C46CB
:100FB000069FC1EB011CDFF8888108EBCC1C0CEB11
:100FC000800300260EE0002501E080C36D1CA2EB2B
:100FD000000CAC45F9D8A2EB000CCCF5F07C03EB8F
:100FE0008C03761CA4EB010CB445ECD8BDE8F08171
:100FF00010B503461C0444EA012444EA020010BD73
:101000002DE9FF4F84B081468A469346DDE9127888
:10101000119EDDE91445CAEB0A10494901EBC010E5
:1010200000EB890001900020029055E0012D02D1D3
:10103000301BC6B22EE0022D02D1381BC7B229E008
:10104000032D04D1A8EB040000F0FF0822E0042DDA
:1010500004D1301BC6B2381BC7B21BE0052D06D128
:10106000301BC6B2A8EB040000F0FF0812E0062D0A
:1010700006D1381BC7B2A8EB040000F0FF0809E056
:10108000072D07D1301BC6B2381BC7B2A8EB04002E
:1010900000F0FF08424639463046FFF7A9FF0090AE
:1010A0000020039008E0DDE9000108600198001DC0
:1010B00001900398401C0390ABEB09010398814217
:1010C000F1D8ABEB0900C0F5F071019800EB81009D
:1010D00001900298401C02900798A0EB0A01029828
:1010E0008142A3D808B0BDE8F08F30B5144BB0F5FD
:1010F000F07F02DAB1F5887F00DB30BDC1EB01156E
:1011000000EB451403EB84031A6000BFF5E7000011
:10111000008008200082082000C0024070C2024007
:1011200018C102400080092000C00F40008C082038
:101130008C0000109C997400FFFF00FC0000DF0190
:10114000000001A02DE9F04F80460F4691469A46D7
:10115000DDF824B0A9EB080006B2AAEB070005B23F
:101160005EB900BF5A4639464046FFF7BEFF781CBD
:1011700087B2BA45F6DABDE8F08F65B900BF5A46C6
:1011800039464046FFF7B1FF08F101001FFA80F829
:10119000C145F4DAEFE7002E74DB002D37DBAE42F9
:1011A0001ADB304606EBD071A5EB61010CB210E002
:1011B0005A4639464046FFF798FF002C03DD781C5D
:1011C00087B2A01B04B208F101001FFA80F8601971
:1011D00004B2C845ECDDCAE0284605EBD071A6EBA9
:1011E00061010CB210E05A4639464046FFF77DFFD8
:1011F000002C05DD08F101001FFA80F8601B04B225
:10120000781C87B2A01904B25745ECDDAFE0684204
:1012100005B2AE421ADB304606EBD071A5EB610198
:101220000CB210E05A4639464046FFF75EFF002CEC
:1012300003DD781E87B2A01B04B208F101001FFA7B
:1012400080F8601904B2C845ECDD90E0284605EB53
:10125000D071A6EB61010CB210E05A463946404607
:10126000FFF743FF002C05DD08F101001FFA80F8AD
:10127000601B04B2781E87B2A01904B25745ECDA9D
:1012800075E0FFE7704206B2002D37DBAE421ADB95
:10129000304606EBD071A5EB61010CB210E05A4666
:1012A00039464046FFF721FF002C03DD781C87B24A
:1012B000A01B04B2A8F101001FFA80F8601904B263
:1012C000C845ECDA53E0284605EBD071A6EB610186
:1012D0000CB210E05A4639464046FFF706FF002C94
:1012E00005DDA8F101001FFA80F8601B04B2781C2C
:1012F00087B2A01904B25745ECDD38E0684205B268
:10130000AE421ADB304606EBD071A5EB61010CB2A0
:1013100010E05A4639464046FFF7E7FE002C03DD51
:10132000781E87B2A01B04B2A8F101001FFA80F852
:10133000601904B2C845ECDA19E0284605EBD07113
:10134000A6EB61010CB210E05A4639464046FFF761
:10135000CCFE002C05DDA9F101001FFA80F9601B0D
:1013600004B2781E87B2A01904B25745ECDA00BF68
:1013700001E72DE9FF4F81B005460E469346DDE9B2
:1013800011495D4504DD0FFA8BF8AB461FFA88F56D
:101390000498864205DD04980FFA80F804961FFA37
:1013A00088F6ABEB05000FFA80FA0498801B07B2B1
:1013B000BAF1000F5DD100BFB9F1010F04D10E9851
:1013C000001BC0B20E9042E0B9F1020F04D10F9899
:1013D000001BC0B20F903AE0B9F1030F04D110988E
:1013E000001BC0B2109032E0B9F1040F08D10E9882
:1013F000001BC0B20E900F98001BC0B20F9026E0E9
:10140000B9F1050F08D10E98001BC0B20E901098CC
:10141000001BC0B210901AE0B9F1060F08D10F9866
:10142000001BC0B20F901098001BC0B210900EE0CD
:10143000B9F1070F0BD10E98001BC0B20E900F9898
:10144000001BC0B20F901098001BC0B210900EA8E5
:1014500007C8FFF7CDFD009031462846009AFFF7F8
:1014600044FE701C86B20498B042A5DA05B0BDE80F
:10147000F08F7FB900BF0EA807C8FFF7B9FD009035
:1014800031462846009AFFF730FE681C85B2AB450E
:10149000F1DAEBE7BA452FDDCAEB47000FFA80F827
:1014A0001DE00EA807C8FFF7A3FD009031462846AF
:1014B000009AFFF71AFE681C85B2B8F1000F09DD2B
:1014C000701C86B27800022101FB1A0040440FFA1A
:1014D00080F804E0022000FB07800FFA80F85D45E9
:1014E000DFD10EA807C8FFF783FD009031462846DC
:1014F000009AFFF7FAFD2FE0C7EB4A000FFA80F8D9
:101500001DE00EA807C8FFF773FD0090314628467E
:10151000009AFFF7EAFD701C86B2B8F1000F09DDF2
:10152000681C85B27800022101FB1A0040440FFAC2
:1015300080F804E0022000FB07800FFA80F804988E
:101540008642DED10EA807C8FFF752FD0090314653
:101550002846009AFFF7C9FD00BF87E72DE9FF5F26
:1015600006460F4690469946DDF838B04146684633
:10157000FEF7C2FD00241DE01DF804A0002516E0C2
:10158000C5F107004AFA00F000F0010038B13A193D
:1015900091B2721990B24A46FFF7A7FD06E03A19D8
:1015A00091B2721990B25A46FFF79FFD6D1C082D3B
:1015B000E6D3641C102CDFD3BDE8FF9F2DE9FF4F5D
:1015C00087B08346DDE91578149EDDE9174502A84A
:1015D0000999FEF791FD4FF0000961E0012D02D15C
:1015E000301BC6B22EE0022D02D1381BC7B229E053
:1015F000032D04D1A8EB040000F0FF0822E0042D25
:1016000004D1301BC6B2381BC7B21BE0052D06D172
:10161000301BC6B2A8EB040000F0FF0812E0062D54
:1016200006D1381BC7B2A8EB040000F0FF0809E0A0
:10163000072D07D1301BC6B2381BC7B2A8EB040078
:1016400000F0FF08424639463046FFF7D1FC0690CD
:1016500002A810F8090001904FF0000A1BE0CAF13F
:1016600007010198084100F0010048B1089A4A4476
:1016700091B20BEB0A0290B20A9AFFF736FD08E02E
:10168000089A4A4491B20BEB0A0290B2069AFFF70D
:101690002CFD0AF1010ABAF1080FE0D309F10109A2
:1016A000B9F1100F9AD30BB0BDE8F08F2DE9FE4FC2
:1016B00006460F4690469946DDF830B041466846EA
:1016C000FEF727FD00241DE01DF804A0002516E00C
:1016D000C5F107004AFA00F000F0010038B13A19EC
:1016E00091B2721990B24A46FFF7FFFC06E03A1930
:1016F00091B2721990B25A46FFF7F7FC6D1C082D93
:10170000E6D3641C0C2CDFD3BDE8FE8F2DE9F84333
:1017100005460E4614469846DDF8209000BF14F8A2
:10172000017B43463A4631462846CDF80090FFF704
:1017300015FFB5F5EC7F03DA05F1080085B208E086
:10174000FF2E04DC002506F1100086B201E0002522
:10175000002620780028E2D1BDE8F8832DE9FF4F6C
:10176000074688469B463C464546BA4646464FF0A5
:10177000000915E0A4F1140188B22946029AFFF786
:10178000B4FC601C84B2A6F1140081B25046029AE7
:10179000FFF7ABFC701C86B209F101001FFA80F95B
:1017A000B9F1280FE6DB3C464546BA4646464FF0BF
:1017B00000092BE0A5F1140291B2A4F1140290B239
:1017C0005A46FFF792FC05F1140291B2A4F11402FB
:1017D00090B25A46FFF789FC601C84B2A6F114024D
:1017E00091B2AAF1140290B25A46FFF77EFCA6F11C
:1017F000140291B20AF1140290B25A46FFF775FC36
:10180000701C86B209F101001FFA80F9B9F10A0FC4
:10181000D0DB3C464546BA4646464FF000092BE031
:10182000A5F1140291B204F10A0290B25A46FFF7F0
:101830005CFC05F1140291B204F10A0290B25A461E
:10184000FFF753FC601C84B206F10A0291B2AAF1C0
:10185000140290B25A46FFF748FC06F10A0291B210
:101860000AF1140290B25A46FFF73FFC701C86B290
:1018700009F101001FFA80F9B9F10A0FD0DBBDE8C8
:10188000FF8F10B50246002114E0C1EB4110FE4B62
:1018900013F81000137898420AD15078C1EB411325
:1018A000F94C04EB43035B78984201D1084610BD24
:1018B000481C81B23A29E8D30020F8E710B5024667
:1018C000002112E001EB8110F04B185C1378984274
:1018D00009D1507801EB8113EC4C23445B7898429A
:1018E00001D1084610BD481C81B22229EAD300204C
:1018F000F8E710B50246002114E001EB0110E44BBB
:1019000013F81000137898420AD1507801EB0113B4
:10191000DF4C04EB43035B78984201D1084610BDCD
:10192000481C81B25829E8D30020F8E72DE9F04F90
:1019300004460F4615469846A3464FF00009002678
:101940002DE0099810F806904FF0000A21E009F008
:10195000800030B1CF48394602682046FFF7C5FB0A
:1019600005E0CC48394642682046FFF7BEFB4FEA07
:1019700049604FEA1069601C84B2A4EB0B00A842D6
:1019800003D15C46781C87B206E00AF1010000F042
:10199000FF0ABAF1080FDADB00BF701C86B205FB44
:1019A00008F0C11700EB5171B6EBE10FC9DBBDE8E0
:1019B000F08F2DE9F04F0546894692469B46A84692
:1019C0000026BBF1000F32D100242DE00AEB0A10F3
:1019D000AF4901EB4000801C065D00271FE006F0C8
:1019E000800030B1AB48494602682846FFF77DFBCE
:1019F00005E0A848494642682846FFF776FB70068E
:101A0000060E681C85B2A5EB0800102805D14546D6
:101A100009F101001FFA80F903E0781CC7B2082F12
:101A2000DDDB00BF601CC4B2202CCFDB31E0002422
:101A30002DE00AEB0A10964901EB4000801C065D80
:101A400000271FE006F0800030B192484946426806
:101A50002846FFF74AFB05E08E48494602682846BB
:101A6000FFF743FB7006060E681C85B2A5EB080065
:101A7000102805D1454609F101001FFA80F903E05D
:101A8000781CC7B2082FDDDB00BF601CC4B2202C5D
:101A9000CFDBBDE8F08F2DE9F04F05468946924631
:101AA0009B46A8460026BBF1000F31D100242CE054
:101AB0000AEB8A1075490844801C065D00271FE068
:101AC00006F0800030B17348494602682846FFF7A7
:101AD0000CFB05E06F48494642682846FFF705FBC6
:101AE0007006060E681C85B2A5EB0800182805D103
:101AF000454609F101001FFA80F903E0781CC7B2DE
:101B0000082FDDDB00BF601CC4B23F2CD0DB30E00F
:101B100000242CE00AEB8A105C490844801C065D16
:101B200000271FE006F0800030B15A48494642685D
:101B30002846FFF7DAFA05E0564849460268284683
:101B4000FFF7D3FA7006060E681C85B2A5EB0800F5
:101B5000182805D1454609F101001FFA80F903E074
:101B6000781CC7B2082FDDDB00BF601CC4B23F2C5D
:101B7000D0DBBDE8F08F2DE9FF4F83B00746DDE9EC
:101B8000119ADDF84080DDE9134601975246494637
:101B90004046FFF72DFA00904FF0000B0698002802
:101BA0007AD1002588E00598C0EB4010364901EB5A
:101BB0004000801C10F805B00020029076E00BF089
:101BC000800030B13348026838460499FFF78DFA37
:101BD00004E03846009A0499FFF787FA4FEA4B6011
:101BE0004FEA106B781C87B20198381A142859D123
:101BF000012E04D1A8EB040000F0FF083CE0022E07
:101C000004D1A9EB040000F0FF0935E0032E04D154
:101C1000AAEB040000F0FF0A2EE0042E08D1A8EB86
:101C2000040000F0FF08A9EB040000F0FF0923E026
:101C3000052E08D1A8EB040000F0FF08AAEB040071
:101C400000F0FF0A18E0062E08D1A9EB040000F00E
:101C5000FF09AAEB040000F0FF0A0DE0072E0BD1EC
:101C6000A8EB040000F0FF08A9EB040000F0FF0956
:101C7000AAEB040000F0FF0A524649464046FFF72F
:101C8000B7F90090019F08E000C30000AEAE00006D
:101C900050B700005000001012E00498401C80B2C1
:101CA000049006E00298401CC0B2029002980828F6
:101CB00085DB00BF681CC5B23C2DFFF674AF39E070
:101CC000002535E00598C0EB4010FB4901EB4000D2
:101CD000801C10F805B00020029023E00BF080007B
:101CE00030B1F648426838460499FFF7FEF905E03E
:101CF000F248026838460499FFF7F7F94FEA4B605B
:101D00004FEA106B781C87B20198381A142805D155
:101D1000019F0498401C80B2049006E00298401C89
:101D2000C0B2029002980828D8DB00BF681CC5B278
:101D30003C2DC7DB07B0BDE8F08F2DE9FF4F83B026
:101D40000746DDE9119ADDF84080DDE91346524689
:101D500049464046FFF74CF9019000974FF0000BC1
:101D60000698002876D100257FE0059800EB00104A
:101D7000D34901EB4000801C10F805B00020029010
:101D80006DE00BF0800030B1CC4802683846049911
:101D9000FFF7ABF904E03846019A0499FFF7A5F97B
:101DA0004FEA4B604FEA106B781C87B20098381AE4
:101DB000102850D1012E04D1A8EB040000F0FF0838
:101DC0003CE0022E04D1A9EB040000F0FF0935E04D
:101DD000032E04D1AAEB040000F0FF0A2EE0042E2B
:101DE00008D1A8EB040000F0FF08A9EB040000F004
:101DF000FF0923E0052E08D1A8EB040000F0FF083E
:101E0000AAEB040000F0FF0A18E0062E08D1A9EBA7
:101E1000040000F0FF09AAEB040000F0FF0A0DE047
:101E2000072E0BD1A8EB040000F0FF08A9EB04007B
:101E300000F0FF09AAEB040000F0FF0A52464946F1
:101E40004046FFF7D5F80190009F0498401C80B2EF
:101E5000049007E00DE00298401CC0B20290029886
:101E600008288EDB00BF681CC5B2202DFFF67DAFB1
:101E700039E0002535E0059800EB0010904901EBB2
:101E80004000801C10F805B00020029023E00BF009
:101E9000800030B18948426838460499FFF725F937
:101EA00005E08648026838460499FFF71EF94FEAB4
:101EB0004B604FEA106B781C87B20098381A1028D4
:101EC00005D1009F0498401C80B2049006E002985F
:101ED000401CC0B2029002980828D8DB00BF681CE2
:101EE000C5B2202DC7DB07B0BDE8F08F2DE9FF4F4D
:101EF00085B004460D46164612AF97E8800F8DE870
:101F0000800F224631462846089BFFF734FE1420F6
:101F100009B0BDE8F08F2DE9FF4F85B004460D46AE
:101F2000164612AF97E8800F8DE8800F22463146A3
:101F30002846089BFFF701FF122009B0BDE8F08F8B
:101F4000F0B504460D4616461F463B46224631462E
:101F50002846FFF7A0FD1820F0BDF0B504460D4659
:101F600016461F463B46224631462846FFF721FDCE
:101F70001220F0BD2DE9F84306460D4614461F46D3
:101F80004FF00008C14652E0207800B950E006EB5F
:101F9000090086B2207880281ADD06F11800B0F515
:101FA000F07F07DD002605F1160085B2B5F5887FC4
:101FB00000DD00252046FFF781FC1FFA80F83B4634
:101FC0002A4631464046FFF7BBFF8146A41C2DE060
:101FD00020780D280AD105F1160085B2B5F5887F65
:101FE00000DD0025641C4FF0000920E020780A285D
:101FF00004D10026641C4FF0000918E006F10C0023
:10200000B0F5F07F07DD002605F10C0085B2B5F5CF
:10201000887F00DD00252948406800902748227805
:10202000294603683046FFF799FA641C00BFABE706
:1020300000BFBDE8F8832DE9FF4F87B006460D4687
:10204000144614AF97E8800F0020069005905CE0DE
:10205000207800B95AE00598304486B2207880286C
:102060001CDD06F11400B0F5F07F07DD002605F158
:10207000140085B2B5F5887F00DD00252046FFF706
:1020800000FC80B206908DE8800F2A4631460A9BFC
:102090000698FFF72BFF0590A41C35E020780D284B
:1020A00010D105F1100085B2B5F5887F00DD00255F
:1020B000641C0020059028E000C3000050000010C0
:1020C00050B7000020780A2804D10026641C0020A4
:1020D00005901AE006F10800B0F5F07F07DD002654
:1020E00005F1080085B2B5F5887F00DD0025EC48D4
:1020F0008DE8800F22780368A81C81B23046FFF774
:102100005DFA641C0A20059000BFA1E700BF0BB078
:10211000BDE8F08F2DE9F84105460F46144600262C
:1021200028E0207800B926E02078302807DB2078E6
:10213000392804DC207830381FFA80F807E020784E
:102140002E2802D14FF00A0801E04FF00B08C8EB2F
:10215000C80000EB8000D34901EB8000A919009072
:1021600088B2232320223946FFF7E0FB641C06F1E6
:10217000200086B2D5E700BFBDE8F8812DE9F8431D
:1021800006460D4614461F464FF00008C14654E06F
:10219000207800B952E006EB090086B2207880284A
:1021A0001ADD06F11000B0F5F07F07DD002605F11D
:1021B000100085B2B5F5887F00DD00252046FFF7C9
:1021C00098FB1FFA80F83B462A4631464046FFF707
:1021D000C4FE8146A41C2FE020780D280AD105F109
:1021E000100085B2B5F5887F00DD0025641C4FF036
:1021F000000922E020780A2804D10026641C4FF050
:1022000000091AE006F10800B0F5F07F07DD0026AE
:1022100005F1080085B2B5F5887F00DD0025A048EE
:10222000406800909E482278294603683046FFF7B0
:1022300095F9641C4FF00A0900BFA9E700BFBDE88B
:10224000F8832DE9FF4F87B006460D46144614AFBC
:1022500097E8800F00200690059055E0207800B99F
:1022600053E00598304486B2207880281CDD06F1C2
:102270001000B0F5F07F07DD002605F1100085B2F3
:10228000B5F5887F00DD00252046FFF732FB80B2E0
:1022900006908DE8800F2A4631460A9B0698FFF784
:1022A0003AFE0590A41C2EE020780D280AD105F1F5
:1022B000100085B2B5F5887F00DD0025641C002084
:1022C000059021E020780A2804D10026641C002013
:1022D000059019E006F10800B0F5F07F07DD002653
:1022E00005F1080085B2B5F5887F00DD00256C4852
:1022F0008DE8800F2278294603683046FFF75EF9A3
:10230000641C0A20059000BFA8E700BF0BB0BDE821
:10231000F08F2DE9F84306460D4614461F464FF050
:102320000008C14654E0207800B952E006EB0900ED
:1023300086B2207880281ADD06F11000B0F5F07F13
:1023400007DD002605F1100085B2B5F5887F00DDB8
:1023500000252046FFF7CDFA1FFA80F83B462A46B3
:1023600031464046FFF7F9FD8146A41C2FE0207856
:102370000D280AD105F1100085B2B5F5887F00DD82
:102380000025641C4FF0000922E020780A2804D1BF
:102390000026641C4FF000091AE006F10800B0F5B1
:1023A000F07F07DD002605F1080085B2B5F5887FCE
:1023B00000DD00253A4840680090394822782946D7
:1023C00003683046FFF772F9641C4FF0080900BF3C
:1023D000A9E700BFBDE8F883F0B504461D46062A0C
:1023E00000DD0A2202B90122052900DD0521914202
:1023F00000DD1146002004E020262B4F3E54461CF1
:10240000F0B20C28F8D310460FE00A26B4FBF6F71A
:1024100006FB17463036471EDFF88CC00CF8076005
:102420000A26B4FBF6F4461EF0B20028EDDC89B1B2
:102430001346084605E05E1E1B4FBE5DFE545E1E41
:10244000F3B2061EA0F10107F8B2F4D12E26164F02
:10245000FE5402E02026144FBE54A5B900200EE021
:10246000114E365C302E07D10F4F461CBE5D2E2E0E
:1024700002D020263E5400E004E0461CF0B2561E76
:102480008642EDDC00BF561CF2B2104604E0002686
:10249000054F3E54461CF0B20C28F8D3F0BD0000A6
:1024A0005000001040E30000FF020010F0B585B0BE
:1024B000002466E00720032182220192CDE9022157
:1024C0000092049004EBC40000EB4412601C04264C
:1024D00006FB0020401E81B2601CC0EB001000EB28
:1024E000400340F2D91240F28710FEF789FD002523
:1024F00043E0072003217E220192CDE90221661CE0
:10250000C6EB061606EB4606C5F10407F61BB3B28A
:1025100004EBC40606EB4417661C4FF0040C0CFBDE
:102520000676C5F102073E44B1B20092049005F56B
:10253000C2721046FEF71DFF072003217E22019282
:10254000CDE9022104EBC40606EB4417661C4FF0EC
:10255000040C0CFB06767119661CC6EB061606EB1E
:102560004607AE1CBE1BB3B20092049005F2D9120E
:102570001046FEF7FEFE681CC5B2032DB9DB601CD9
:10258000C4B2062C96DB05B0F0BDF0B585B00025D1
:1025900058E007200221A0220192CDE90221691C06
:1025A00001EB41010323C3EB4111009204908AB275
:1025B00005EB4501062303EB41102D230321FEF714
:1025C0001FFD00243AE0072002219E220192CDE95E
:1025D000022104F1290305EB4506032707EB461604
:1025E000264400920490B2B2C4F10606B1B205EBE3
:1025F000450607EB46162644B0B2FEF7BAFE0720A2
:1026000002219E220192CDE9022104F129036E1CD0
:1026100006EB4606C4EB4616761E00920490B2B254
:10262000C4F10606B1B26E1C06EB4606C4EB4616B4
:10263000761EB0B2FEF79DFE601CC4B2032CC2DB56
:10264000681CC5B2042DA4DB002558E00720022138
:10265000A0220192CDE90221691C01EB4101032373
:10266000C3EB4111009204908AB205EB45010623A9
:1026700003EB41105A233021FEF7C2FC00243AE05C
:10268000072002219E220192CDE9022104F1560386
:1026900005EB4506032707EB4616264400920490F7
:1026A000B2B2C4F13306B1B205EB450607EB4616EC
:1026B0002644B0B2FEF75DFE072002219E22019261
:1026C000CDE9022104F156036E1C06EB4606C4EB6D
:1026D0004616761E00920490B2B2C4F13306B1B22F
:1026E0006E1C06EB4606C4EB4616761EB0B2FEF72D
:1026F00040FE601CC4B2032CC2DB681CC5B2042DB2
:10270000A4DB05B0F0BDF0B585B007200221A02202
:102710000192CDE902212D2300920490BD220321D4
:102720000620FEF76DFC002427E0072002219E22F0
:102730000192CDE9022104F1290300920490E21CE8
:10274000C4F10606B1B2E01CFEF713FE0720022119
:102750009E220192CDE9022104F12903C4F1BF06B2
:1027600000920490B2B2C4F10606B1B2C4F1BF0641
:10277000B0B2FEF7FEFD601CC4B2032CD5DB002511
:102780005CE007200221A0220192CDE90221E91C90
:1027900001EB41010323C3EB4111009204908AB283
:1027A000A91C01EB410103EB4111C91C88B22D2387
:1027B0000321FEF725FC00243CE0072002219E2295
:1027C0000192CDE9022104F12903AE1C06EB460675
:1027D000032707EB4616264400920490B2B2C4F1D8
:1027E0000606B1B2AE1C06EB460607EB46162644BB
:1027F000B0B2FEF7BEFD072002219E220192CDE974
:10280000022104F12903EE1C06EB4606C4EB461632
:10281000761E00920490B2B2C4F10606B1B2EE1C6C
:1028200006EB4606C4EB4616761EB0B2FEF7A1FDD7
:10283000601CC4B2032CC0DB681CC5B2022DA0DB37
:1028400000254EE007200221A0220192CDE90221BD
:10285000691C0323C3EBC111009204908AB203EBFD
:10286000C511C91C88B25A233021FEF7C9FB0024C8
:1028700033E0072002219E220192CDE9022104F1DA
:102880005603032606EBC516264400920490B2B206
:10289000C4F13306B1B2032606EBC5162644B0B226
:1028A000FEF767FD072002219E220192CDE9022159
:1028B00004F156036E1CC4EBC616761E00920490FB
:1028C000B2B2C4F13306B1B26E1CC4EBC616761EAA
:1028D000B0B2FEF74EFD601CC4B2032CC9DB681C0D
:1028E000C5B2032DAEDB05B0F0BD2DE9F8430546BA
:1028F0000E4617469846DDE90849391B491C8AB23D
:102900002919491E88B233463146CDF80090FEF7AA
:1029100019FC391B491C8AB22919491E88B2434641
:102920004146CDF80090FEF70DFCA8EB0400801C9A
:1029300083B23019801E81B22A462846CDF8009015
:10294000FEF700FCA8EB0400801C83B23019801E47
:1029500081B23A463846CDF80090FEF7F3FBBDE869
:10296000F8832DE9FC4705460E4617469846DDE9F3
:102970000A9A43463A4631462846CDE9009AFFF77F
:10298000B4FF09F10200C0B208F1010C1FFA8CF388
:1029900007F1010C1FFA8CF2A6F1010C1FFA8CF161
:1029A000A5F1010CCDE9000A1FFA8CF0FFF79DFF9D
:1029B000012465E0321991B26A1C90B25246FEF7CA
:1029C00094FB3219521E91B2AA1C90B25246FEF7E5
:1029D0008CFB3219921E91B2EA1C90B25246FEF75D
:1029E00084FB321991B27A1E90B25246FEF77DFBFB
:1029F0003219521E91B2BA1E90B25246FEF775FBC2
:102A00003219921E91B2FA1E90B25246FEF76DFB39
:102A100008EB0402121F91B26A1C90B25246FEF7F4
:102A200064FB08EB0402D21E91B2AA1C90B252467B
:102A3000FEF75BFB08EB0402921E91B2EA1C90B217
:102A40005246FEF752FB08EB0402121F91B27A1EA7
:102A500090B25246FEF749FB08EB0402D21E91B237
:102A6000BA1E90B25246FEF740FB08EB0402921EDB
:102A700091B2FA1E90B25246FEF737FB601CC4B208
:102A80004C4597DBBDE8FC8770B586B06FF07F40A2
:102A9000FA490860012418E0072003215A22019214
:102AA000CDE902210092049004EB4400F44BC218DB
:102AB000C4EB041000EB400000F10E01002340F2D3
:102AC000AB10FFF7B8FA601CC4B2052CE4DB01249C
:102AD0004CE0002546E0601E00EB40002844092839
:102AE0001FD0072002218C220192CDE90221631E12
:102AF00003EB43032B4403EB8303E24E0092049069
:102B000006EB4302C4EB041303EB430303F10D0193
:102B100005EB45035B0103F12F000023FFF78BFA60
:102B20001EE0072002218C220192CDE90221631EC2
:102B300003EB43032B4403EB8303D24E0092049038
:102B400006EB4302C4EB041303EB430303F10D0153
:102B500005EB45035B0103F125000023FFF76BFA4A
:102B6000681CC5B2032DB6DB601CC4B2052CB0DBFB
:102B7000012459E004F10B000D281AD1072002218D
:102B80008C220192CDE902210092049004F10B0005
:102B900000EB8000BB4B03EB4002C4EB041000EBE6
:102BA000400000F10D0100234FF49370FFF743FA4A
:102BB00038E004F10B000C281AD1072002218C22E6
:102BC0000192CDE902210092049004F10B0000EB88
:102BD0008000AC4B03EB4002C4EB041000EB400060
:102BE00000F10D01002340F24510FFF724FA19E02F
:102BF000072002218C220192CDE90221009204904B
:102C000004F10B0000EB80009E4B03EB4002C4EB91
:102C1000041000EB400000F10D01002340F23B10D6
:102C2000FFF709FA601CC4B2052CA3DB06B070BD27
:102C30007CB5954891494860012420E000251AE0C0
:102C40008E4840680421661CC6EB061606EB460358
:102C50006E1C06EB46067201C4EB041606EB460634
:102C6000CDE90010B11C05EB45067601B01CFFF75D
:102C700078FE681CC5B2042DE2DB601CC4B2052CD2
:102C8000DCDB012416E07D4840680421CDE900101A
:102C9000601CC0EB001000EB4003C4EB041000EB21
:102CA0004000811C4FF4EE7240F28310FFF759FE92
:102CB000601CC4B2052CE6DB7448407A15281AD291
:102CC000DFE800F0190B1A29394A5C6B7A8A9BAD50
:102CD000BCCBECFDE9E8E7E6DB00FF206749486094
:102CE0000846406804215A236022CDE900102F21B4
:102CF0000220FFF736FE45E1FF20604948600846A4
:102D0000406804215A23C022CDE900102F216220FF
:102D1000FFF727FE36E1FF20584948600846406823
:102D200004215A234FF49072CDE900102F21C220C4
:102D3000FFF717FE26E1FF2050494860084640682B
:102D400004215A234FF4C072CDE900102F214FF413
:102D50009170FFF706FE15E16FF07F40474948602C
:102D60000846406804215A234FF4EE72CDE9001062
:102D70002F2140F28310FFF7F4FD03E1FF203F49CC
:102D8000486008464068042187236022CDE900108E
:102D90005C210220FFF7E5FDF4E0FF2037494860A1
:102DA0000846406804218723C022CDE900105C2139
:102DB0006220FFF7D6FDE5E0FF2030494860084675
:102DC0004068042187234FF49072CDE900105C2104
:102DD000C220FFF7C6FDD5E0FF202849486008461D
:102DE0004068042187234FF4C072CDE900105C21B4
:102DF0004FF49170FFF7B5FDC4E06FF07F401F49BD
:102E0000486008464068042187234FF4EE72CDE9FC
:102E100000105C2140F28310FFF7A3FDB2E0FF2019
:102E200016494860084640680421B4236022CDE971
:102E3000001089210220FFF794FDA3E0FF200F4935
:102E40004860084640680421B423C022CDE9001040
:102E500089216220FFF785FD94E0FF200749486043
:102E6000084640680421B4234FF49072CDE9001065
:102E70008921C220FFF775FD84E071E05000001049
:102E80002B0201004402010028483F00D00000103E
:102E900055E044E034E024E011E0FFE7FF20FE4984
:102EA0004860084640680421B4234FF4C072CDE95D
:102EB000001089214FF49170FFF753FD62E06FF02D
:102EC0007F40F5494860084640680421B4234FF428
:102ED000EE72CDE90010892140F28310FFF741FD29
:102EE00050E0FF20EC494860084640680421E12397
:102EF0006022CDE90010B6210220FFF732FD41E04B
:102F0000FF20E5494860084640680421E123C022CB
:102F1000CDE90010B6216220FFF723FD32E0FF204B
:102F2000DD494860084640680421E1234FF490726F
:102F3000CDE90010B621C220FFF713FD22E0FF20EB
:102F4000D5494860084640680421E1234FF4C07227
:102F5000CDE90010B6214FF49170FFF702FD11E0AA
:102F60006FF07F40CC494860084640680421E12367
:102F70004FF4EE72CDE90010B62140F28310FFF756
:102F8000F0FC00BF00BF7CBDF8B505460C461646F8
:102F90001F46AA192346214628460097FEF7D2F875
:102FA000AA19631C611C28460097FEF7CBF8AA19E2
:102FB000A31CA11C28460097FEF7C4F8AA19E31C1D
:102FC000E11C28460097FEF7BDF8AA19231D211D14
:102FD00028460097FEF7B6F8F8BD10B586B0002079
:102FE0000590AE48C07A09287DDAAC484068AC4903
:102FF000B0FBF1F201FB1200A84948600720022152
:1030000070220192CDE90221002300920490A54A8A
:103010001E212020FFF715F90720022170220192BE
:10302000CDE902210023009204909E4A09321E211C
:103030004FF49170FFF705F900209B4948719748BC
:10304000406842F21071B0FBF1F0303096490870E0
:103050009248406842F21071B0FBF1F201FB12009D
:103060004FF47A71B0FBF1F030308F4948708B48E3
:1030700040684FF47A71B0FBF1F201FB1200642159
:10308000B0FBF1F030308849887084484068642192
:10309000B0FBF1F201FB12000A21B0FBF1F030307D
:1030A0008149C8707D4840680A21B0FBF1F201FBFC
:1030B000120030307C4908710720022170220192F1
:1030C000CDE90221002300920490774A1E21782046
:1030D000FFF7B7F875487049486008460722322163
:1030E0004368782000E06DE0FFF74EFF6A48072252
:1030F000322143688220FFF747FF674807223221C9
:1031000043688C20FFF740FF634807223221436861
:103110009620FFF739FF6048072232214368A0203C
:10312000FFF732FF5C4840680421322340F2591215
:10313000CDE90010192140F21B10FFF712FC57488F
:10314000C07A012805D1FF23072232217820FFF71A
:103150001BFF5248C07A022805D1FF2307223221E3
:103160008220FFF711FF4D48C07A032805D1FF23C5
:10317000072232218C20FFF707FF4848C07A042835
:1031800005D1FF23072232219620FFF7FDFE434899
:10319000C07A052805D1FF2307223221A020FFF79E
:1031A000F3FE3E48C07A06280BD1FF2004213223CB
:1031B00040F25912CDE90010192140F21B10FFF71F
:1031C000D0FBFDE3394834494860072002217022D2
:1031D0000192CDE90221002300920490314A12327B
:1031E0003A212020FFF72DF80720022170220192BA
:1031F000CDE902210023009204902A4A1B32622169
:103200002020FFF71EF80720022170220192CDE94D
:103210000221002300920490224A24326221DC2001
:10322000FFF70FF80720022170220192CDE9022159
:103230000023009204901B4A2D32622140F2271095
:10324000FEF7FFFF0720022170220192CDE9022143
:10325000002300920490134A3632A8212320FEF75F
:10326000F0FF0E48007A092802DD09200B49087298
:103270000A48007A30300C49087000204870072056
:10328000022170220192CDE90221002300920490D4
:10329000054A3A2178200BE050000010D0000010C1
:1032A000A08601007C010100FF02001028483F00B9
:1032B000FEF7C7FF0020FE498871FE48007AFE49EC
:1032C00001EB8000407800F00F0404F13000F84971
:1032D00008702E204870F748007AF74901EB80000B
:1032E0008078040904F13000F1498870F148007ACF
:1032F000F14901EB8000807800F00F0404F1300008
:10330000EB49C870EB48007AEB4901EB8000C078CC
:10331000040904F13000E6490871E648007AE649FC
:1033200001EB8000C07800F00F0404F13000E049A8
:1033300048710720022170220192CDE90221002369
:1033400000920490DA4A62217820FEF77AFFD94889
:10335000007AD94911F8200042F2107190FBF1F087
:10336000C0B28DF815009DF8150000118DF81600FB
:103370009DF816000A2805DA9DF816003030CC4971
:10338000087029E09DF816000A2802D16120C8497A
:1033900008709DF816000B2802D16220C4490870FD
:1033A0009DF816000C2802D16320C14908709DF8D1
:1033B00016000D2802D16420BD4908709DF8160042
:1033C0000E2802D16520BA4908709DF816000F2812
:1033D00002D16620B64908709DF8150000F00F0074
:1033E0008DF816009DF816000A2805DA9DF81600DB
:1033F0003030AF49487029E09DF816000A2802D104
:103400006120AB4948709DF816000B2802D162205C
:10341000A74948709DF816000C2802D16320A449E2
:1034200048709DF816000D2802D16420A04948700C
:103430009DF816000E2802D165209D4948709DF820
:1034400016000F2802D16620994948709948007AE1
:10345000994901EB800040788DF815009DF8150022
:1034600000118DF816009DF816000A2805DA9DF85F
:10347000160030308E49887029E09DF816000A2821
:1034800002D161208A4988709DF816000B2802D16C
:103490006220874988709DF816000C2802D16320AD
:1034A000834988709DF816000D2802D16420804958
:1034B00088709DF816000E2802D165207C4988701E
:1034C0009DF816000F2802D16620794988709DF872
:1034D000150000F00F008DF816009DF816000A2860
:1034E00005DA9DF8160030307149C87029E09DF862
:1034F00016000A2802D161206D49C8709DF8160097
:103500000B2802D162206A49C8709DF816000C2869
:1035100002D163206649C8709DF816000D2802D1BB
:1035200064206349C8709DF816000E2802D16520FA
:103530005F49C8709DF816000F2802D166205C49CB
:10354000C8705C48007A5C4901EB800080788DF897
:1035500015009DF8150000118DF816009DF8160055
:103560000A2805DA9DF8160030305149087129E023
:103570009DF816000A2802D161204D4908719DF876
:1035800016000B2802D16220494908719DF81600E7
:103590000C2802D16320464908719DF816000D28B9
:1035A00002D16420424908719DF816000E2802D10C
:1035B00065203F4908719DF816000F2802D166204A
:1035C0003B4908719DF8150000F00F008DF81600BA
:1035D0009DF816000A2805DA9DF8160030303449A7
:1035E000487129E09DF816000A2802D1612030496F
:1035F00048719DF816000B2802D162202C494871B1
:103600009DF816000C2802D16320294948719DF8C5
:1036100016000D2802D16420254948719DF8160036
:103620000E2802D16520224948719DF816000F2806
:1036300002D166201E4948711E48007A1E4901EBDE
:103640008000C0788DF815009DF8150000118DF8E8
:1036500016009DF816000A2805DA9DF8160030308D
:103660001349887131E09DF816000A2802D16120C3
:103670000F4988719DF816000B2802D162200C4971
:1036800088719DF816000C2802D1632008498871C2
:103690009DF816000D2802D16420054988719DF817
:1036A00016000E2802D165200149887106E000004D
:1036B000FF020010D0000010DC0000109DF8160082
:1036C0000F2802D16620FE4988719DF8150000F090
:1036D0000F008DF816009DF816000A2805DA9DF8EF
:1036E00016003030F649C87129E09DF816000A2806
:1036F00002D16120F249C8719DF816000B2802D151
:103700006220EF49C8719DF816000C2802D1632091
:10371000EB49C8719DF816000D2802D16420E849D4
:10372000C8719DF816000E2802D16520E449C871C1
:103730009DF816000F2802D16620E149C8710020CB
:10374000DF4908720720022170220192CDE902218F
:10375000002300920490DA4A82217820FEF771FD5E
:10376000D848D949486008464068042176234FF478
:103770008272CDE900105D21D720FFF7F2F8D24820
:103780004068042176234FF4B972CDE900105D2121
:103790004FF49170FFF7E5F8CB4807224B214368BF
:1037A0007820FFF7F1FBC84807227621436878208C
:1037B000FFF7EAFBC4480722762143688C20FFF715
:1037C000E3FBC1480722762143689620FFF7DCFB24
:1037D000BD48072276214368A020FFF7D5FBBA48F1
:1037E000072276214368AA20FFF7CEFBB748C07AAC
:1037F0000A2805D1FF2307224B217820FFF7C4FBBD
:10380000B248C07A0B2805D1FF2307227621782001
:10381000FFF7BAFBAD48C07A0C2805D1FF23072279
:1038200076218C20FFF7B0FBA848C07A0D2805D17F
:10383000FF23072276219620FFF7A6FBA348C07A34
:103840000E2805D1FF2307227621A020FFF79CFB3D
:103850009E48C07A0F2805D1FF2307227621AA208F
:10386000FFF792FB9948C07A11280BD1FF20042161
:1038700076234FF4B972CDE900105D214FF49170B9
:10388000FFF76FF89148C07A10283ED1FF2004213D
:103890007623421DCDE900105D21D720FFF761F8A6
:1038A0008A4A127A8A4B13F82210884A127A9206B0
:1038B000100E04F0DFFD854A127A854B03EB82027D
:1038C0005178824A127A012303EB8202D0B204F0CB
:1038D000D1FD7E4A127A7E4B03EB820291787B4ABD
:1038E000127A022303EB8202D0B204F0C3FD774ABE
:1038F000127A774B03EB8202D178744A127A03234F
:1039000003EB8202D0B204F0B5FD302004F0A2FD3A
:103910007048007800118DF814006E48007800F0AF
:103920000F003030664908709DF81400032190FBA9
:10393000F1F201FB120070B966484078302101EBCA
:1039400020105F4948702E2088706248407800F04F
:103950000F003030C8709DF81400032190FBF1F285
:1039600001FB120001280ED15A484078302101EBAA
:103970002010534948705748407800F00F0030300D
:1039800088702E20C8709DF81400032190FBF1F27E
:1039900001FB120002280FD12E20494948704D48E2
:1039A0004078302101EB2010454988704948407823
:1039B00000F00F003030C87046488078302100E0B9
:1039C00026E001EB20103E4908714248807800F063
:1039D0000F00303048713F48C078302101EB201093
:1039E000374988713B48C07800F00F003030C8710B
:1039F000002048720720022170220192CDE90221A5
:103A00000023009204902E4AA8216420FEF719FC9E
:103A100000202B4988702D48C07A0A2190FBF1F0D4
:103A20003030274908702948C07A0A2190FBF1F20A
:103A300001FB120030302249487007200221702219
:103A40000192CDE902210023009204901C4A052135
:103A5000BE20FEF7F6FB06B010BD00B585B06FF0D6
:103A60007F40194908601A4890F8510038B3174848
:103A70004078062810D10720002128224823CDE9CC
:103A80000132CDE903103F200B46134A1821009064
:103A90002E20FEF7D0FA38E00C484078072834D1C1
:103AA000002128224823CDE90132CDE903103F202F
:103AB0000B46094A921D182100902E200EE010E0BE
:103AC000FF02001028483F0050000010D0000010F6
:103AD000DC000010EC020010D1030100FEF7ABFA8D
:103AE00013E0FE48006813280FD107200021282288
:103AF0004823CDE90132CDE903103F200B46F84AB7
:103B0000182100904220FEF796FA05B000BDF0B5EE
:103B100085B0012466E00720032182220192CDE9CD
:103B200002210092049004EBC40000EB4412601CDC
:103B3000042606FB0020401E81B2601CC0EB001072
:103B400000EB400340F2D91240F28710FDF758FA1B
:103B5000002543E0072003217E220192CDE90221C6
:103B6000661CC6EB061606EB4606C5F10407F61BF7
:103B7000B3B204EBC40606EB4417661C4FF0040C0A
:103B80000CFB0676C5F102073E44B1B200920490E8
:103B900005F5C2721046FDF7ECFB072003217E22DB
:103BA0000192CDE9022104EBC40606EB4417661C22
:103BB0004FF0040C0CFB06767119661CC6EB06165A
:103BC00006EB4607AE1CBE1BB3B20092049005F292
:103BD000D9121046FDF7CDFB681CC5B2032DB9DB29
:103BE000601CC4B2052C96DB05B0F0BDF0B585B005
:103BF000012686E000257FE007200221A022019215
:103C0000CDE90221771CC7EB071707EB47036F1CB1
:103C100007EB47074FF0030CCCEB471700920490DB
:103C2000BAB2C6EB061707EB4707F91C05EB4507C9
:103C30000CEB4717FF1CB8B2FDF7E2F9002457E080
:103C4000072002219E220192CDE90221771CC7EBB9
:103C5000071707EB4707C4F1040CA7EB0C07BBB22F
:103C6000C6EB061707EB4707FF1CC4F1030C6744BC
:103C7000B9B205EB45074FF0030C0CEB471727448F
:103C800000920490BAB205EB45070CEB47172744A6
:103C9000B8B2FDF76EFB072002219E220192CDE90A
:103CA0000221771CC7EB071707EB4707C4F1040C89
:103CB000A7EB0C07BBB2C6EB061707EB4707FF1CC9
:103CC000C4F1030C6744B9B26F1C07EB4707C4EBA0
:103CD00047177F1E00920490BAB26F1C07EB47078C
:103CE000C4EB47177F1EB8B2FDF743FB601CC4B29C
:103CF000032CA5DB681CC5B2042DFFF67DAF701C3C
:103D0000C6B2052EFFF676AF05B0F0BD00B585B0A2
:103D100007200221A0220192CDE902212D23009249
:103D2000049040F27F120F216420FDF769F96D487D
:103D30002D2340F27F12194600906420FDF702FA0D
:103D400068482D2340F27F120F2100901046FDF7A6
:103D5000F9F905B000BD08B563484FF488734FF416
:103D6000F072002100900846FDF71FF9FFF7CFFE23
:103D7000FFF73CFFFFF7CAFFFEF786FEFFF76DFE79
:103D800008BD10B586B06FF07F4058490860002428
:103D900034E0574890F85800B8B107200321672253
:103DA0000192CDE902210092049004EBC400514B32
:103DB000C218C4EB041000EB400000F10D01002319
:103DC0004FF4C470FEF737F916E00720032167228D
:103DD0000192CDE902210092049004EBC400464B0D
:103DE000C218C4EB041000EB400000F10D010023E9
:103DF0004FF4C470FEF71FF9601CC4B2032CC8DB7B
:103E00000720032167220192CDE9022100230092BD
:103E10000490384A1B32EE214FF4C470FEF70BF9C0
:103E200006B010BD00B585B06FF07F402F49086027
:103E30000720032167220192CDE90221002300928D
:103E400004902E4A0D214FF4C470FEF7F4F80720B9
:103E5000032167220192CDE9022100230092049000
:103E6000264A1B32EE214FF4C470FEF7E4F805B089
:103E700000BD10B586B06FF07F401C49086000247B
:103E800017E00720032167220192CDE90221009269
:103E9000049004EBC4001A4BC218C4EB041000EBEE
:103EA0004000011D00234FF4C470FEF7C4F8601CED
:103EB000C4B2032CE5DB0720032167220192CDE980
:103EC00002210023009204900D4A1B32EE214FF490
:103ED000C470FEF7B0F806B010BD000084000010FA
:103EE000DD030100E8E6EB0028483F005000001029
:103EF000DC000010C8FF0000ECFF00001000010013
:103F00007C0001007CB50546FD48FE494860002460
:103F100016E0FC4840680421CDE90010601CC0EBAD
:103F2000001000EB4003C4EB041000EB4000811CC8
:103F30004FF4EE7240F28310FEF713FD601CC4B222
:103F4000062CE6DB687A072872D2DFE800F07104FD
:103F500016283A4C5E006FF07F40EA4948600846F8
:103F6000406804212D234FF4EE72CDE900100221A8
:103F700040F28310FEF7F5FC5AE06FF07F40E14914
:103F800048600846406804215A234FF4EE72CDE998
:103F900000102F2140F28310FEF7E3FC48E06FF0A1
:103FA0007F40D849486008464068042187234FF481
:103FB000EE72CDE900105C2140F28310FEF7D1FCD7
:103FC00036E06FF07F40CF494860084640680421E2
:103FD000B4234FF4EE72CDE90010892140F2831032
:103FE000FEF7BFFC24E06FF07F40C64948600846FA
:103FF00040680421E1234FF4EE72CDE90010B621B0
:1040000040F28310FEF7ADFC12E06FF07F40BD4937
:1040100048600846406804214FF487734FF4EE72FD
:10402000CDE90010E32140F28310FEF79AFC00BFB7
:1040300000BF7CBD10B586B06FF07F40B14908600D
:10404000FEF7A3FAFEF732FA002488E0042C53DAD4
:104050007CB3AD4890F85100A8B1072002218C2212
:104060000192CDE9022104EBC401A84B0092049017
:10407000CA1804EB4401490101F1200000230D217D
:10408000FDF7D9FF69E0072002218C220192CDE9DA
:10409000022104EBC4019E4B00920490CA1804EB69
:1040A0004401490101F1200000230D21FDF7C3FF68
:1040B00053E0FFE7944890F8510070B107200221C7
:1040C0008C220192CDE902210023009204908F4AB4
:1040D0000D210A20FDF7AFFF3FE0072002218C22CF
:1040E0000192CDE90221002300920490884A0D211B
:1040F0000A20FDF7A0FF30E0834890F85100B0B1EE
:1041000007200221A0220192CDE9022104EBC40183
:104110007E4B00920490CA18211F01EB4101490116
:10412000203188B200233121FDF785FF15E00720FB
:104130000221A0220192CDE9022104EBC401754BBA
:1041400000920490CA18211F01EB4101490120315E
:1041500088B200233121FDF76EFF601CC4B2082C29
:10416000FFF674AF06B010BD01B588B06A48654966
:10417000086063484860644890F85100A8B107207F
:10418000022170220192CDE90221009204905E4842
:1041900090F85400614901EB800000230246482159
:1041A00006902120FEF74DF813E00720022170222F
:1041B0000192CDE902210092049059488078594932
:1041C00001EB800000230246482106902120FEF7E3
:1041D00038F84D4890F8510070B107200221702244
:1041E0000192CDE902210023009204904E4A482119
:1041F0008020FEF726F816E00720022170220192A7
:10420000CDE90221009204903F4890F8560000EB5F
:104210004000464901EB4000002302464821069039
:104220008020FEF70EF8384890F8510000284CD056
:104230003548D0F8A00088B3334890F8A400069021
:104240003148D0F8A0000023062205900699FEF719
:10425000C3F80720022170220192CDE90221002338
:1042600000920490324A4821CA20FDF7EAFF072055
:10427000022170220192CDE902210092049022488D
:1042800090F8A5002B4901EB40000023024648218D
:1042900006904FF48870FDF7D4FF2DE0FFE707206C
:1042A000022170220192CDE9022100920490164869
:1042B000D0F8A000204901EBC000002302464821AD
:1042C0000690CA20FDF7BDFF16E0072002217022EC
:1042D0000192CDE90221009204900B4890F857001A
:1042E00000EB4000154901EB400000230246482145
:1042F0000690DB20FDF7A5FF034890F851001FE072
:1043000028483F0050000010DC0000100C010100A4
:10431000C40001003400010023E7E100680101004E
:104320007C0000107001010078010100BB01010058
:10433000FF0200103A0201009D030100FD0101008F
:1043400000284BD0F748406E88B3F64890F86800D4
:104350000690F448406E0023062205900699FEF769
:104360003BF80720022170220192CDE902210023AF
:1043700000920490EC4A48214FF49570FDF761FFDC
:104380000720022170220192CDE9022100920490BF
:10439000E44890F86900E54901EB4000002302463B
:1043A000482106904FF4B870FDF74BFF2CE0FFE773
:1043B0000720022170220192CDE90221009204908F
:1043C000D848406EDA4901EBC0000023024648217C
:1043D00006904FF49570FDF734FF15E00720022199
:1043E00070220192CDE9022100920490CD4890F80C
:1043F0005500D04901EB8000002302464821069079
:1044000040F24510FDF71DFF0020079030E0CA483C
:104410000421CDE90010079800EB4000602101EB7A
:1044200040100690079800EB4000022101EB40107D
:104430002D230590069AFEF794FABF480421CDE992
:104440000010079800EB4000602101EB401006903F
:10445000079800EB4000022101EB40105A23059021
:104460002F21069AFEF77DFA0798401CC0B20790EC
:1044700007980428CBDB0898407808287ED2DFE82C
:1044800000F0040F1E2D3E4D5C6CFF2004212D23F7
:104490006022CDE9001002210846FEF762FA6DE0C5
:1044A000FF20A64948600846406804212D23C02209
:1044B000CDE9001002216220FEF753FA5EE0FF21F1
:1044C0009E484160406804212D234FF49072CDE94D
:1044D00000100221C220FEF744FA4FE0FF20974966
:1044E00048600846406804212D234FF4C072CDE98E
:1044F000001002214FF49170FEF733FA3EE0FF20E6
:104500008E4948600846406804215A236022CDE95C
:1045100000102F210220FEF724FA2FE0FF20874908
:1045200048600846406804215A23C022CDE90010A3
:104530002F216220FEF715FA20E0FF207F49486016
:104540000846406804215A234FF49072CDE90010C8
:104550002F21C220FEF705FA10E0FF2077494860BE
:104560000846406804215A234FF4C072CDE9001078
:104570002F214FF49170FEF7F4F900BF00BFFDF753
:1045800095FF08984078062878D007DC68B10128A4
:104590000ED0042873D0052809D11CE107286FD05C
:1045A000142808D01E28F7D181E0FFF7EAFB07E2C4
:1045B000FFF738FC04E26FF07F406049086000209C
:1045C00007903FE0079802281CDA072203206721A2
:1045D0000191CDE9021004920091079800EBC00010
:1045E0005749084406900798C0EB001000EB4000C4
:1045F0000D300023059001464FF4C470069AFDF774
:104600001AFD1BE0072003227E230193CDE902322D
:1046100000930490079800EBC000494908440690B5
:104620000798C0EB001000EB4000001D0023059030
:1046300001464FF4C470069AFDF7FDFC0798401C34
:10464000C0B2079007980328BCDB3E480078C0B989
:10465000072003223A230193CDE90232009304900C
:1046600038480078384901EB800000230246752164
:10467000069040F2A110FDF7E4FD17E020E149E0CB
:1046800070E1072103223A230193CDE902322D483C
:104690000093049100782C4901EB8000002302462E
:1046A000752106904FF4D370FDF7CBFD88E16FF0D4
:1046B0007F412248016023484078A8B9072303219D
:1046C0003A220192CDE902211E48049300924078DB
:1046D0001E4901EB8000002302461B21069040F298
:1046E000A110FDF7AEFD14E0072003213A2201924C
:1046F000CDE902210092049012484078134901EB61
:104700008000002302461B2106904FF4D370FDF772
:1047100098FD55E16FF07F41084801600020079047
:1047200055E00000DC000010FF0200103A0201001A
:104730009D0301000F02010028483F0050000010B7
:10474000E40201007C00001007030100FF020100E9
:10475000FE4890F85100D8B1072003215A22019257
:10476000CDE90221FA4900920490079801EB8000FC
:1047700006900798C0EB001000EB400011300023BA
:104780000590014640F2A110069AFDF75AFD1AE085
:10479000072003215A220192CDE90221ED4900921E
:1047A0000490079801EB800006900798C0EB00107A
:1047B00000EB4000113000230590014640F2A110AB
:1047C000069AFDF73EFD0798401CC0B20790079877
:1047D0000228BDDBF4E06FF07F40DF490860DB4872
:1047E00090F8510028B3002007901EE00720032115
:1047F0005A220192CDE90221D849009204900798EB
:1048000001EB800006900798C0EB001000EB400021
:1048100011300023059001464FF4CE70069AFDF743
:1048200010FD0798401CC0B2079007980228DDDBF6
:1048300045E0002007903FE0079802281CDA072196
:1048400003205A220192CDE9022000920491079898
:1048500000EB8000C249084406900798C0EB0010A6
:1048600000EB400011300023059001464FF4CE705C
:10487000069AFDF7E6FC1BE0072003215A2201926D
:10488000CDE9022100920490079800EB8000B44922
:10489000084406900798C0EB001000EB4000113070
:1048A0000023059001464FF4D470069AFDF7C9FC29
:1048B0000798401CC0B2079007980428BCDB7FE033
:1048C0006FF07F41A4480160A04890F85100E8BB18
:1048D0000020079042E00798E8B9072003215A22F8
:1048E0000192CDE9022100920490079800EB40006C
:1048F0009C4901EB400006900798C0EB001000EBCC
:10490000400011300023059001464FF4C970069A0B
:10491000FDF797FC1EE0072003215A220192CDE902
:10492000022100920490079800EB40008D4901EBB2
:10493000400006900798C0EB001000EB40001130DB
:1049400000230590014640F2971000E009E0069A26
:10495000FDF777FC0798401CC0B207900798032822
:10496000B9DB2DE06FF07F407B490860774890F815
:10497000510020BB002007901EE0072003215A228F
:104980000192CDE90221784900920490079801EB49
:10499000800006900798C0EB001000EB400011303B
:1049A00000230590014640F2A110069AFDF749FC4C
:1049B0000798401CC0B2079007980228DDDB00BFB3
:1049C00000BF09B000BD30B5684A00210DE0047891
:1049D0002404457844EA0524857844EA050342F82E
:1049E0000439401C401C401C491CB1F5FF3FEED36C
:1049F00030BD38B5554991F8500000EBD0714910E1
:104A0000A0EB4101514A82F85010114691F8510033
:104A100000EBD0714910A0EB4101CAB24B4981F8BB
:104A2000512091F8550000EBD0714910A0EB4101E5
:104A3000CAB2464981F85520084690F856000B2125
:104A400090FBF1F201FB1200C1B2404880F8561011
:104A500090F85700032190FBF1F201FB1200C1B264
:104A60003A4880F85710014691F8580000EBD07191
:104A70004910A0EB4101CAB2344981F858203C49A1
:104A8000C87800EBD0714910A0EB4101384AD170D1
:104A90001146887800EBD0714910A0EB410191706C
:104AA0002A4890F853001146C870284890F85200E0
:104AB0008870264890F850000870244890F85100FB
:104AC0004870224890F855004871204890F85600E8
:104AD00088711E4890F85700C8711C4890F858001B
:104AE00008721A4991F8540000EBD0714910A0EBFC
:104AF0004101CAB2154981F85420084690F8540083
:104B00001B490871084611490968C0F888100F4907
:104B10004968C0F88C100D498968C0F890100B499D
:104B2000C968C0F8941009490969C0F89810074984
:104B30004969C0F89C1005498969C0F8A01003496B
:104B4000C969C0F8A4100149096A13E0DC0000102B
:104B500068010100700101005000001082FF000098
:104B600017020100FD0101000F02010000F808A07A
:104B7000B4010010C0F8A810D649496AC0F8AC10BA
:104B8000D448806AD449C1F8B000D248C16AD2483A
:104B9000C0F8B410CF48016BCF48C0F8B810CD486A
:104BA000416BCD48C0F8BC10CA48816BCA48C0F8F8
:104BB000C010C848C16BC848C0F8C410C548016CD3
:104BC000C548C0F8C810C348416CC348C0F8CC10F1
:104BD000C048816CC048C0F8D010BE48C16CBE4807
:104BE000C0F8D4107C22BB495C310C30FBF76FFB62
:104BF000B94CD8200023224619460090184605F0EB
:104C000036FF38BD38B5B44DD82000232A461946A2
:104C10000090184605F0A2FF002410E004EBC40049
:104C200000EB400015F83000322806DD002004EBD0
:104C3000C40101EB410105F83100601CC4B20C2C29
:104C4000ECDBA449A448D0F888000860A248D0F85A
:104C50008C004860A048D0F8900088609E48D0F84A
:104C60009400C8609C48D0F8980008619A48D0F831
:104C70009C0048619848D0F8A00088619648D0F818
:104C8000A400C8619448D0F8A80008629248D0F8FF
:104C9000AC0048629049087800EBD0714910A0EB55
:104CA00041018D4A1170104600788A4981F8500000
:104CB0001146487800EBD0714910A0EB41015170CA
:104CC00010464178834880F851101146487900EB2E
:104CD000D0714910A0EB41015171104641797D48D6
:104CE00080F85510104680790B2190FBF1F201FB02
:104CF00012007949887108468179764880F8561003
:104D00007548C079032190FBF1F201FB1200724952
:104D1000C8710846C1796F4880F857106E49087A03
:104D200000EBD0714910A0EB41016B4A11721046A3
:104D3000017A684880F858101146087900EBD07164
:104D40004910A0EB4101117110460179614880F8CA
:104D500054101146C87800EBD0714910A0EB410106
:104D6000D1701046C1785B4880F85310114688789E
:104D700000EBD0714910A0EB410191701046817891
:104D8000544880F852107C2253490C315C30FBF7B8
:104D90009EFA002469E004EB44014E489C3000EB8D
:104DA0008100007A052807DD012104EB440249480F
:104DB0009C3000EB8200017204EB440145489C30BA
:104DC00000EB8100407A042807DD012104EB440256
:104DD00040489C3000EB8200417204EB44013D48A6
:104DE0009C3000EB810040683C49884207D9002193
:104DF00004EB440237489C3000EB8200416004EB36
:104E000044013448603000EB8100007A052807DD5A
:104E1000012104EB44022F48603000EB8200017254
:104E200004EB44012B48603000EB8100407A0428F9
:104E300007DD012104EB44022648603000EB8200CC
:104E4000417204EB44012348603000EB810040686C
:104E50002249884207D9002104EB44021D486030F2
:104E600000EB82004160601CC4B2052C93DB1A4841
:104E7000D0F8B000174988621748D0F8B410154828
:104E8000C1621548D0F8B810124801631248D0F832
:104E9000BC10104841631048D0F8C0100D48816321
:104EA0000D48D0F8C4100B48C1630B48D0F8C810A7
:104EB000084801640848D0F8CC1006484164064808
:104EC000D0F8D010034881640348D0F8D4100148CA
:104ED000C16438BDDC000010B4010010A0860100E0
:104EE00010B501229102104603F05EFF012202215B
:104EF000104603F059FF00224FF08071104603F076
:104F000053FF00224FF00071104603F04DFF10BD1B
:104F1000002001E0411EC8B20628FBDB704770B5D7
:104F200004460221012003F05DFF254600261DE016
:104F300005F08000802804D1C100012003F048FF63
:104F400004E04FF48061012003F04CFF02210120B6
:104F500003F03EFFFFF7DCFF0221012003F042FFD8
:104F6000FFF7D6FF6806050E701CC6B2082EDFDB01
:104F700070BD10B5FFF7B4FFFF20FFF7D0FF10BDE5
:104F8000002001E0411CC8B20528FBDB70472DE979
:104F9000F041FF27FF260020FFF7C1FF0225FFF7A2
:104FA000EFFF002003F037FF00F0007000B900258C
:104FB000002003F030FF00F0807000B90125022DC1
:104FC00031DA002429E04FF40071012003F00AFFD8
:104FD000FE49085DFFF7A3FF4FF40071012003F0C5
:104FE000F7FEFFF7CDFF15B1012D10D107E000202E
:104FF00003F011FF00F0007000B9264607E0002022
:1050000003F009FF00F0807000B9264600BF00BF22
:10501000FF2E00D003E0601CC4B2062CD3DB00BF1F
:1050200006EBC500C7B23846BDE8F08110B500BF39
:10503000FFF7ADFF0446FF2CFAD100BFFFF7A7FF33
:105040000446FF2CFAD110BD10B501221103002037
:1050500003F0AAFE4FF48051002003F0B9FE0820AF
:10506000FBF754F94FF48051002003F0BBFE10BD54
:1050700000B585B0D648407804287DD007DC78B1EB
:10508000012843D0022878D003283ED1B3E0052878
:1050900074D0062873D0072872D01228F5D14CE0BE
:1050A000CB48807820B1CA488078401EC8498872B1
:1050B000C848FBF771FFC6488078012803D100215A
:1050C000C54880F85110C2488078022803D10121D8
:1050D000C14880F85110BE488078032809D1BE48E5
:1050E00090F8580008B9012100E00021BA4880F882
:1050F0005810FEF79FFF0020B5498870B64890F819
:105100005100B6494870FFF774FCC6E20220B0496E
:105110000870B14890F8510070B1084680780128B5
:105120000AD11220487008700120C8728872A948FC
:10513000FBF732FFFDF751FFE7E7A548C07A0628E5
:105140000FD1A3484068A64988420AD10A20A04945
:10515000C872A048FBF720FFFDF73FFF02209C49E3
:1051600088729B48C07A112840D100209849087065
:1051700048709948006804E041E038E056E0C0E03B
:105180008CE29649C1F88800934841689348C0F87A
:105190008C10914881689148C0F890108E48C16881
:1051A0008E48C0F894108C4801698C48C0F898105B
:1051B000894841698948C0F89C10874881698748B7
:1051C000C0F8A0108448C1698448C0F8A41082487F
:1051D000016A8248C0F8A8107F48416A7F48C0F839
:1051E000AC10FFF706FC7B48FBF7D6FE8DE70320EB
:1051F0007749087089E700207549087085E7764887
:1052000090F8510088B172488078012803D10021BC
:10521000714880F854106E488078022803D101212B
:105220006D4880F85410FFF7E4FBFBE36A4890F800
:105230005100002864D166488078012806D10A21EF
:10524000654880F85610002180F852106048807838
:1052500002280CD1604890F856000A2807DA01218C
:105260005D4880F8521090F8561080F85310584856
:105270008078032818D1584890F85600401CC1B2D5
:10528000554880F8561090F85600092803D10A2195
:10529000514880F85610504890F856000A2803DD0F
:1052A00002214D4880F8561049488078042818D1CA
:1052B000494890F85600401EC1B2474880F8561041
:1052C00090F85600092803D10821434880F8561069
:1052D000414890F85600022803DA0A213E4880F837
:1052E00056103D4890F853003C49C8703A4890F831
:1052F00052008870384890F856008871FFF779FBA3
:1053000090E3354890F8510000286FD03048407A3B
:10531000132803D02E48407A042823D100202C499A
:10532000087048700846407A13281BD12D48C16880
:105330002948C0F8A0102B48007C40B12948017AC8
:10534000007C081AC1B2244880F8A41003E00021B0
:10535000214880F8A4102348417C1F4880F8A510FC
:10536000FFF747FB1A48407A12280FD11D48807C6E
:1053700060B100211B488174007A401C19490872F1
:105380000846017A01742E20174908701048407AA7
:1053900011280DD13020144908701248C06800EB64
:1053A000800041000F48C160007A401C0D4908721E
:1053B0000748407A042806D10648FBF7EDFD002097
:1053C0000349087048700248407A10E0F503010074
:1053D000D000001028483F00DC000010B40100108D
:1053E00066690100CC020010FF02001036E10928B6
:1053F0002DD1FE48007A20B1FC48007A401EFB49BE
:105400000872FA48007AA8B1F848C0680A21B0FBCF
:10541000F1F1F648C160007C28B1F448007C401EE0
:10542000C1B2F2480174F148007C80B90121EF4813
:1054300081740CE00121ED48C1600020EB49087245
:105440000021EA48017401218174FEF75FFCE848FD
:10545000407A052802D10121E4484174E448407AA9
:105460000A2802D10221E1484174E148407A0F281C
:1054700002D10321DD484174DD48407A142802D16D
:105480000421DA484174DA48407A0E280ED100210E
:10549000D648C1600020D54908720221D348417422
:1054A0000021017401218174FEF730FCD048407A5C
:1054B000A0B90620CE49087048700120487200202B
:1054C000CA4908720021C948C16002214174002103
:1054D000017401218174FEF73EFCB5E0C348007AF7
:1054E0000628FADAC248407A042816DABF48C068AB
:1054F00000EB80004100BD48C160007A401CBB4900
:1055000008720846C068BA49497A0144B748C16080
:10551000B748407A3030B7490870B548407A052816
:105520001BDDB348407A092817DAB048C06800EBA1
:1055300080004100AD48C160007A401CAB49087250
:105540000846C168AA48407A801E0144A748C16045
:10555000A748407A2E30A7490870A548407A0A2803
:105560001BDDA348407A0E2817DAA048C06800EB7C
:10557000800041009D48C160007A401C9B49087230
:105580000846C1689A48407A001F01449748C160A4
:105590009748407A2C309749087000209549487008
:1055A0009348407A092828D1202008708F48007A33
:1055B000A0B1072002218C220192CDE902218B4962
:1055C00000920490097A01EB8101490001F18C00FD
:1055D0000023884A1921FCF72EFD22E00720022132
:1055E0008C220192CDE90221002300920490814A8D
:1055F00019218220FCF71FFD13E0072002218C22D5
:105600000192CDE90221794900920490097A01EBD7
:105610008101490001F182000023764A1921FCF73B
:105620000AFD062002218C220192CDE9022100927E
:1056300004906E48407C00EB40006F494218002304
:105640001921EC20FCF7FDFDFDF7F2FA6848407ADD
:10565000132822D16948FBF79FFC1EE0644880783C
:10566000012803D10021664880F8571060488078EF
:10567000022803D10121624880F857105C488078E5
:10568000032803D102215E4880F857105C4890F847
:1056900057005C49C871FFF7ACF9C3E1584890F86E
:1056A000510000287ED05248407A132803D0504839
:1056B000407A042822D100204D49487008700846DD
:1056C000407A13281AD1494881694D4841664748B4
:1056D000007F40B14548017D007F081AC1B24848AB
:1056E00080F8681003E00021454880F868103F48C2
:1056F000417F434880F86910FFF77BF93C48407AC6
:1057000012280FD13948807F60B100213748817756
:10571000007D401C354908750846017D01772E2023
:10572000344908703248407A11280DD1302031496F
:1057300008702E48806900EB800041002B48816191
:10574000007D401C294908752948407A042806D163
:105750002A48FBF721FC002025490870487024489E
:10576000407A09282FD12148007D20B11F48007DB3
:10577000401E1E4908751D48007DB8B11B48806950
:105780000A21B0FBF1F119488161007F28B1174867
:10579000007F401EC1B2154801771448007F90B9C0
:1057A000012100E026E1114881770CE001210F483A
:1057B000816100200D49087500210C480177012105
:1057C0008177FEF7A3FA0A48407A052802D1012121
:1057D000064841770648407A0A2802D10221034848
:1057E00041770348407A0F2811D10DE0CC02001018
:1057F000D0000010FF020010B3FF000028483F0057
:10580000DC000010B40100100321FE484177FE487F
:10581000407A142802D10421FA484177FA48407AA4
:105820000E280ED10021F74881610020F549087546
:105830000221F44841770021017701218177FEF7A9
:1058400065FAF148407AA0B90720EF49087048701E
:10585000012048720020EB4908750021E948816168
:10586000022141770021017701218177FEF773FA48
:10587000B6E0E448007D06287BDAE348407A042855
:1058800016DAE048806900EB80004100DD48816164
:10589000007D401CDB49087508468069DA49497A71
:1058A0000144D8488161D848407A3030D7490870DF
:1058B000D548407A05281BDDD348407A092817DAF5
:1058C000D048806900EB80004100CE488161007DB6
:1058D000401CCC49087508468169CB48407A801E37
:1058E0000144C8488161C848407A2E30C7490870D1
:1058F000C548407A0A281BDDC348407A0E2817DACB
:10590000C048806900EB80004100BE488161007D95
:10591000401CBC49087508468169BB48407A001F95
:105920000144B8488161B848407A2C30B7490870C2
:105930000020B6494870B448407A092829D120206F
:105940000870B048007DA8B1072002218C22019286
:10595000CDE90221AB4900920490097D01EB810160
:10596000490001F18C000023A84A1921FCF763FBD0
:1059700023E035E0072002218C220192CDE90221AB
:10598000002300920490A14A19218220FCF753FBC6
:1059900013E0072002218C220192CDE902219949CE
:1059A00000920490097D01EB8101490001F1820020
:1059B0000023964A1921FCF73EFB062002218C2287
:1059C0000192CDE90221009204908E48407F00EBC5
:1059D00040008F49421800231921EC20FCF731FCCC
:1059E000FDF726F98848407A13281AD18948FBF731
:1059F000D3FA16E084488078012803D10021864834
:105A000080F8551080488078022803D1012182480F
:105A100080F85510804890F8550080494871FEF78D
:105A2000E8FF00BF00BF05B000BD7CB57A4890F824
:105A3000510028B374484078062844DA72488078C8
:105A4000F0B371488078401EC0EB001000EB4000BE
:105A5000801C84B26C488078401EC0EB001000EBC4
:105A600040002D3085B26B4804212B464FF4EE7276
:105A7000CDE90010214640F28310FCF772FF22E0CE
:105A800061488078E0B160488078401EC0EB00102B
:105A900000EB4000801C84B25B488078401EC0EB65
:105AA000001000EB40002D3085B25A4804212B46EF
:105AB0004FF4EE72CDE90010214640F2831000E071
:105AC00001E0FCF74EFF50484078082845D2DFE857
:105AD00000F0040B121920272E394B48807810B99A
