:020000040000FA
:10000000B83D0010BD4B0000C54B0000C74B0000C1
:10001000C94B0000CB4B0000CD4B0000000000009E
:10002000000000000000000000000000CF4B0000B6
:10003000D14B000000000000D34B0000F90000008D
:10004000D74B0000D7020000F702000007030000B2
:1000500017030000AB5C0000D74B0000D74B00003B
:10006000D15D0000D74B0000D74B0000D74B0000FC
:10007000D74B0000D74B0000D74B0000D74B0000F8
:10008000D74B0000D74B0000D74B0000D74B0000E8
:10009000D74B0000D74B0000D74B0000D74B0000D8
:1000A00077860000D74B0000D74B0000D74B0000ED
:1000B000D74B0000D74B0000D74B0000D74B0000B8
:1000C000D74B0000D74B0000D74B0000D74B0000A8
:1000D000D74B0000D74B0000D74B0000D74B000098
:1000E000D74B0000DFF80CD008F07AFD004800473D
:1000F00039010000B83D001070B5464C6068401CE6
:100100006060A068401CA060C82807D9207800253E
:10011000012804D0012002F0D4FFA56070BD02F0D8
:10012000E9FF2570F9E73B4A516853685B1A83423F
:10013000FBD370477047704708B5002004F0ADFF4F
:100140004FF47A71B0FBF1F00025401EB0F1807FD2
:100150000CD220F07F414FF0E020491E41612E4A31
:10016000F82182F8141D85610721016101F0C9FFA2
:100170004FF4165005F0CEFDC820FFF7D4FF03F072
:10018000EBFE02F01EF8002000F066F92348002183
:10019000406900F08AF9012000F05EF9002001F0CA
:1001A0008AFF204C1E484FF4887660604FF4F07749
:1001B0000021009033463A46084600F04EFA02F01D
:1001C0001EF86FF07F4060600021009033463A4691
:1001D000084600F042FA144C01202070657000209F
:1001E00000F032FA08F09CF9104E4FF080671525A8
:1001F0003946022004F031FE0121084604F02DFEAC
:100200006078122802D11C20FFF78DFF356003F0C3
:1002100053FDEDE7000000100FE000E028000010A3
:1002200028483F00200000106C2B0010042900100B
:10023000F0B5824A0023FF25042612684FF0020C15
:100240004FF47A740127A8B1012824D0022832D0B3
:1002500003280ED17A48C0F804C0C360B2FBF4F2A0
:10026000521E4A4382610560466147604168C90782
:10027000FCD1F0BD4FF04020C0F804C0C360B2FB19
:10028000F4F2521E4A43826105604661476041684C
:10029000C907FCD1F0BD6B48C0F804C0C360B2FB15
:1002A000F4F2521E4A43826105604661476041682C
:1002B000C907FCD1F0BD6448C0F804C0C360B2FBFC
:1002C000F4F2521E4A43826105604661476041680C
:1002D000C907FCD1F0BD10B506F0EDF95B48016827
:1002E000491C01604FF04021012008605848016816
:1002F000491C016010BD5349012008605448416801
:10030000491C41607047504901200860504881688D
:10031000491C816070474A49012008604C48C16807
:10032000491CC1607047012138B1012808D002285A
:1003300009D0032806D1424803E04FF0402000E0F6
:100340004048416070474048FBE7002140B1012828
:1003500009D03D4A022801D0032800D151607047DE
:100360004FF0402000E037484160704738B1012825
:100370000CD002280CD0032807D1314809E04FF0F7
:100380004021486840F00200486070472D4800E076
:100390002D48416841F002014160704770B500246A
:1003A0002B4D2C4A032338B1012818D0022821D024
:1003B00003282AD0002070BD2C6052F8C40F40F0F2
:1003C000020010604FF04020426842F0020242609A
:1003D0004EF65F22C2608161436101201FE06C60C4
:1003E00052F8C40F40F00400106016488161436168
:1003F000022014E0AC6052F8C40F40F4800010609A
:10040000114881614361032009E0EC6052F8C40F98
:1004100040F4000010600A4881614361042000F04C
:1004200002F8012070BD00F01F0201219140400937
:10043000800000F1E020C0F800117047982A0010F9
:10044000004009400080004000000940E42A0010FC
:100450001000001000C00F40FC4908B50028886952
:1004600042F210720CD040F001008861009288695D
:1004700040F4006088610098401E0090F7D108BDEC
:1004800020F40060886110460092401E0090FCD16C
:10049000886920F00100886108BDED4A002108C884
:1004A000491C08C28029FAD3704730B5E94B4FF098
:1004B000270208001A615A61C3F87022C3F8742237
:1004C000C3F81821C3F81C21C3F82021C3F8242144
:1004D0009A61DA61C3F8D020C3F8D420C3F8D820D9
:1004E000C3F8DC20C3F8E020C3F8E4201A625A62A3
:1004F000C3F83021C3F83421C3F8E820C3F8EC2056
:10050000C3F8F020C3F8F420C3F80821C3F814217D
:10051000C3F80C21C3F81021CF490A6C42F0020243
:100520000A648A6D42F00A028A65CC4B53F8C41FF4
:1005300041F001011960CA490A6822F001020A600B
:10054000C24A4FF000019161946924F00E04946155
:10055000946944F00A049461946944F0200494611D
:10056000946924F080049461946924F48074946103
:10057000946924F400749461946924F4806494610F
:10058000946924F400649461B64CB74D2468B4FBBC
:10059000F5F4C3F8F440936843F080639360936884
:1005A00023F020039360936843F40063936093689F
:1005B00043F480539360936823F4005393609368EB
:1005C00023F4804393609368A84C03EA0403936088
:1005D0009368A74C43EA040393601160136843F0E7
:1005E0001C531360136843F480231360136843F4AF
:1005F00080731360136843F0740313605160516893
:1006000041F000615160516841F40021516051682E
:1006100041F480615160516840F20F1341EA0301D7
:100620005160944C1461546101D0FFF736FF0020F3
:100630004FF47F414A0002C4401C9042FBD342F277
:100640000E70401EFDD130BD8A4A00214FF4FF33A9
:1006500001C2491C9942FBD37047F0B5C1EB0114AC
:10066000E401844D04EB80042C44121A0025C2F5E9
:10067000F076591A059F08E0002001E080C4401C74
:100680008242FBD804EB86046D1CA942F4D8F0BD6D
:10069000000440EA012010437047764AA1EB0111A3
:1006A00002EBC111A1EB800000F5FE20D0F8FC07A1
:1006B00070472DE9F04708AE6E4F96E81006C1EB83
:1006C0000116F60106EB8006DDE90B853E440027A6
:1006D000A2EB000C5B1A3CE0012D0CD0022D0ED0D9
:1006E000032D1DD0042D0FD0052D11D0062D13D0B4
:1006F000072D21D018E0A4EB0800C4B214E0A9EB48
:10070000080000F0FF090FE0A4EB0800C4B2F6E710
:10071000A4EB0800C4B203E0A9EB080000F0FF0955
:10072000AAEB080000F0FF0A524649462046FFF7B0
:10073000AFFF0146002005E0A4EB0800C4B2EBE7E0
:1007400002C6401C8445FBD8CCF5F07006EB800651
:100750007F1CBB42C0D8BDE8F087464BB0F5F07FA8
:1007600008D2B1F5887F05D2C1EB011100EB411031
:1007700043F8202070472DE9F0430546501B0C46F6
:1007800006B2181BDDF81C909C4617460FFA80F83D
:10079000CEB1B8F1000F21D0ACEB040000B200EBF9
:1007A000D072404200B200EBD071002E4DDB7B1BBB
:1007B0001BB203EBD373B8F1000F5DDB46452EDBB4
:1007C000A8EB630026E04A4621462846FFF7C5FF0E
:1007D000641CA4B2A445F6D2BDE8F0834A46214683
:1007E0002846FFF7BAFF6D1CADB2AF42F6D2F3E771
:1007F0004A4621462846FFF7B0FFBCF1000F05DD51
:10080000641CACEB0600A4B20FFA80FC6D1CADB208
:100810000CEB08000FFA80FCBD42E9D9DCE7A6EB3F
:1008200062000EE04A4621462846FFF796FF002F59
:1008300004DD6D1CA7EB0800ADB207B2641CA4B2C6
:10084000B81907B26445EDD9C6E748E00080082032
:100850000082082000C002400080092000C00F4034
:10086000008C0820982A0010B0475D00FFFF00FCB4
:100870000000DF01000001A08046464519DBA8EB1F
:10088000630011E04A4621462846FFF766FFBCF1A7
:10089000000F05DD641EACEB0600A4B20FFA80FC6D
:1008A0006D1CADB20CEB08000FFA80FCBD42E9D91B
:1008B00092E7A6EB61000EE04A4621462846FFF784
:1008C0004CFF002F04DD6D1CA7EB0800ADB207B292
:1008D000641EA4B2B81907B26445EDD27CE7734236
:1008E0001EB27B1B5B421BB203EBD373B8F1000F4C
:1008F00031DB464519DBA8EB630011E04A4621468F
:100900002846FFF72AFFBCF1000F05DD641CACEBA5
:100910000600A4B20FFA80FC6D1EADB20CEB08000D
:100920000FFA80FCBD42E9D256E7A6EB62000EE06A
:100930004A4621462846FFF710FF002F04DD6D1EB2
:10094000A7EB0800ADB207B2641CA4B2B81907B295
:100950006445EDD940E78046464519DBA8EB6300C6
:1009600011E04A4621462846FFF7F7FEBCF1000F8A
:1009700005DD641EACEB0600A4B20FFA80FC6D1E10
:10098000ADB20CEB08000FFA80FCBD42E9D223E7C0
:10099000A6EB61000CE04A4621462846FFF7DDFE43
:1009A000002F02DDA7EB080007B2641EA4B2B8193D
:1009B00007B26445EFD20FE72DE9F04F1746DDE9A6
:1009C0000CA8DDE9099B1E460D460446B84201D934
:1009D000274694B2B54201D90E469DB2381B711B11
:1009E00000B20FFA81FC68B1BCF1000F52D0604533
:1009F00079DDC0EB4C010EB24FEA4C01404201EBF5
:100A000040086DE0B8F1010F12D0B8F1020F14D018
:100A1000B8F1030F24D0B8F1040F13D0B8F1050FCB
:100A200015D0B8F1060F17D0B8F1070F2DD01CE084
:100A3000A9EB0A0000F0FF0917E0ABEB0A0000F099
:100A4000FF0B12E0A9EB0A0000F0FF09F5E7A9EBA4
:100A50000A0000F0FF0903E0ABEB0A0000F0FF0B17
:100A60000B98A0EB0A00C0B20B90594648460B9A6F
:100A7000FFF70EFE024629462046FFF76EFE6D1C6C
:100A8000ADB2AE42BED2BDE8F08FA9EB0A0000F0D5
:100A9000FF09E1E7594648460B9AFFF7F9FD024680
:100AA00029462046FFF759FE641CA4B2A742F1D2A2
:100AB000E9E7594648460B9AFFF7EAFD0246294600
:100AC0002046FFF74AFE641CA4B2002E05DD6D1C13
:100AD000ADB208EB060002E005E006EB4C0006B202
:100AE000BC42E6D120E0CCEB40010FB24FEA4C0112
:100AF000404201EB400815E0594648460B9AFFF783
:100B0000C7FD024629462046FFF727FE6D1CADB201
:100B1000002F04DD641CA4B208EB070001E007EB22
:100B20004C0007B2B542E7D1594648460B9AFFF749
:100B3000AFFD024629462046BDE8F04F0DE62DE9FF
:100B4000FF5F884604469A4611466846DDF838B08D
:100B500000F0D4FE0027E946002519F807C008EB8D
:100B6000070600BFC5F107002CFA00F0C00704EB30
:100B70000500B1B280B201D0524600E05A46FFF7FC
:100B8000ECFD6D1C082DEDD3A01EB1B280B25A460B
:100B9000FFF7E3FD601EB1B280B25A46FFF7DDFDFC
:100BA00004F10800B1B280B25A46FFF7D6FD04F155
:100BB0000900B1B280B25A46FFF7CFFD7F1C102F5B
:100BC000CAD3BDE8FF9F38B53032049CD2B200943E
:100BD000FFF7B5FF38BD2DE9FF4F85B08046DDE951
:100BE00015A511466846DDF8489000F087FE0026FE
:100BF000012D0CD0022D0FD0032D22D0042D11D0A9
:100C0000052D14D0062D17D0072D37D01EE0A9EBE7
:100C10000A0000F0FF0919E01398A0EB0A00C0B227
:100C2000139013E0A9EB0A0000F0FF09F4E7A9EB29
:100C30000A0000F0FF0904E01398A0EB0A00C0B21C
:100C400013901498A0EB0A00C0B21490DDE91312BF
:100C50004846FFF71DFD834606981DF806C0002490
:100C600010EB0607C4F107002CFA00F0C00708EBF0
:100C70000400B9B280B206D0089A05E0A9EB0A00D8
:100C800000F0FF09D8E75A46FFF767FD641C082CFF
:100C9000E8D3761C102EABD309B0F4E62DE9FE4F55
:100CA000884606469A4611466846DDF830B000F0A0
:100CB0002DFE00254FEA0D09002419F805C008EBA8
:100CC000050700BFC4F107002CFA00F0C00706EBCF
:100CD0000400B9B280B201D0524600E05A46FFF794
:100CE0003CFD641C082CEDD36D1C0C2DE4D3BDE839
:100CF000FE8F2DE9F8439946089F16460D46044697
:100D00004FF4EC7816F8012B4B4629462046009705
:100D1000FFF715FF444502D20834A4B207E0FF2DC7
:100D20004FF0000402D81035ADB200E00025307855
:100D30000028E7D1BDE8F8832DE9FF4F81B0904648
:100D40000C46054606460F464FF0000CA6F114006F
:100D500080B242462146FFF700FDA7F11400761C41
:100D600081B2B6B242462846FFF7F7FC7F1C0CF171
:100D7000010C1FFA8CFCBFB2BCF1280FE6D3A4F122
:100D800014002E4627464FF0000C04F1140AA5F17A
:100D9000140B05F1140900900098A6F1140881B213
:100DA0001FFA88F0049AFFF7D8FC1FFA8AF11FFA9D
:100DB00088F0049AFFF7D1FC761CA7F11408B6B2AC
:100DC0001FFA88F11FFA8BF0049AFFF7C6FC1FFA8E
:100DD00088F11FFA89F0049AFFF7BFFC7F1C0CF121
:100DE000010C1FFA8CFCBFB2BCF10A0FD4D3002651
:100DF000A4F1140A04F11409A5F1140805F114076B
:100E000005F10A0C1FFA8AF11FFA8CF0049AFFF719
:100E1000A4FC1FFA89F11FFA8CF0049AFFF79DFCDD
:100E20006D1C04F10A0CADB21FFA8CF11FFA88F0A8
:100E3000049AFFF792FC1FFA8CF1B8B2049AFFF7FC
:100E40008CFC641C761CB6B2A4B20A2ED8D305B0B2
:100E500019E630B50246F94913780020C0EB40147A
:100E600011F814509D4205D101EB44045578647883
:100E7000A54204D0401C80B22A28EFD3002030BD08
:100E800030B50246EE491378002000BF00EB801415
:100E90000D5D9D4204D10C4455786478A54204D080
:100EA000401C80B20928F1D3002030BD30B5024685
:100EB000E4491378002000BF00EB001411F814502F
:100EC0009D4205D101EB440455786478A54204D0D5
:100ED000401C80B24028EFD3002030BD2DE9F04FF8
:100EE000044684468B46002502FB03F0C11790465A
:100EF000DFF854A300EB517921E009980026475D03
:100F0000380602D5DAF8002001E0DAF80420594664
:100F10002046FFF722FC641C7806A4B2070EA4EB5F
:100F20000C01414505D10BF1010064461FFA80FB1D
:100F300003E0761CF6B2082EE2D36D1CADB2B5EB21
:100F4000E90FDADB9FE52DE9F84F9946DDE90A76EE
:100F500092468B4680460024BC4D1EE0385DA0F1D1
:100F60004101192902D92039192914D800EB0010A0
:100F700000EB400005EB4000A0F54C60009004EB56
:100F8000440000EBC40108EB410080B24B465246DE
:100F90005946FFF7A3FF641CE4B2B442DED3BDE8B8
:100FA000F88F2DE9F04F884604460546A54902EB27
:100FB0000210A54F01EB40094FF0000633B3A5F135
:100FC000020BA4F1010A00BF08EB060C1FFA8CF11A
:100FD0001FFA8BF07A68FFF7C0FB1FFA8CF11FFA3B
:100FE0008AF07A68FFF7B9FB761CF6B2102EEBD3C5
:100FF0000026BA4609EB06005FF0000790F802C031
:101000005FEA0C602ED5DAF800202DE04FEA070ADF
:1010100009EB06005FF0000790F802C05FEA0C6081
:1010200002D5DAF8002001E0DAF804204146204633
:10103000FFF793FB4FEA4C60641C4FEA106CA4B2BC
:10104000601B102808D07F1CFFB2082FE6D3761C47
:10105000F6B2202EDCD316E508F101002C461FFA6B
:1010600080F8F4E7DAF8042041462046FFF775FBE4
:101070004FEA4C60641C4FEA106CA4B2601B10284D
:1010800008D07F1CFFB2082FBAD3761CF6B2202EF0
:10109000B0D3F8E408F101002C461FFA80F8F4E719
:1010A0002DE9F047894604460546654902EB821062
:1010B000DFF894A100EB01084FF000065BBB00BF16
:1010C00008EB06005FF0000790F802C05FEA0C60D2
:1010D00002D5DAF8002001E0DAF80420494620467B
:1010E000FFF73BFB4FEA4C60641C4FEA106CA4B264
:1010F000601B182809D07F1CFFB2082FE6D3761C8E
:10110000F6B23F2EDCD3BDE8F08709F101002C4692
:101110001FFA80F9F3E708EB0600002790F802C0F9
:101120005FEA0C6002D5DAF8042001E0DAF800206A
:1011300049462046FFF711FB4FEA4C60641C4FEA1A
:10114000106CA4B2601B182808D07F1CFFB2082FB7
:10115000E6D3761CF6B23F2EDDD3D4E709F10100C9
:101160002C461FFA80F9F4E72DE9F84F0AAF16462E
:1011700089460446054697E80700DDF838B0FFF7D2
:1011800087FA0090C6EB46102C49DFF8BCA001EBB3
:101190004008002B4FF000067DD100BF08EB060091
:1011A0005FF0000790F802C05FEA0C6002D5DAF841
:1011B000002000E0009A49462046FFF7CEFA4FEAA9
:1011C0004C60641C4FEA106CA4B2601B142808D059
:1011D0007F1CFFB2082FE7D3761CF6B23C2EDDD37E
:1011E000DDE6BBF1010F12D0BBF1020F15D0BBF150
:1011F000030F15D0BBF1040F16D0BBF1050F27D09C
:10120000BBF1060F2AD0BBF1070F2AD036E00D99AB
:101210000A98401AC0B20A9030E00D990B9809E084
:10122000DDE90C10081A27E00D990A98401AC0B29F
:101230000A900B98401AC0B20B901FE0D3980000A0
:101240000A8E00005390000020000010440000109F
:101250000D990A98401AC0B20A900BE00D990B98AC
:1012600005E00D990A98401AC0B20A900B98401AEE
:10127000C0B20B900C98401AC0B20C900AAB93E825
:101280000700FFF705FA009009F101002C461FFA4C
:1012900080F9A1E7FFE708EB0600002790F802C0FD
:1012A0005FEA0C6002D5DAF8042001E0DAF80020E9
:1012B00049462046FFF751FA4FEA4C60641C4FEA5A
:1012C000106CA4B2601B142808D07F1CFFB2082F3A
:1012D000E6D3761CF6B23C2EDDD360E609F10100C0
:1012E0002C461FFA80F9F4E72DE9F84F0AAD1646AF
:1012F0008946044695E80700DDF838B0FFF7C8F9DD
:10130000009006EB0610FA49DFF8E8A3254601EB4A
:101310004008002B4FF0000672D100BF08EB06001A
:101320005FF0000790F802C05FEA0C6002D5DAF8BF
:10133000002000E0009A49462046FFF70EFA4FEAE7
:101340004C60641C4FEA106CA4B2601B102808D0DB
:101350007F1CFFB2082FE7D3761CF6B2202EDDD318
:101360001DE6BBF1010F12D0BBF1020F15D0BBF18E
:10137000030F15D0BBF1040F15D0BBF1050F1CD026
:10138000BBF1060F1FD0BBF1070F1FD02BE00A994E
:101390000D98081AC0B20A9025E00D990B9808E044
:1013A000DDE90C011CE00D990A98401AC0B20A90C0
:1013B0000B98401AC0B20B9015E00D990A98401A8C
:1013C000C0B20A900BE00D990B9805E00D990A98B0
:1013D000401AC0B20A900B98401AC0B20B900C98F9
:1013E000401AC0B20C900AAB93E80700FFF750F91F
:1013F000009009F101002C461FFA80F9ACE7FFE7E5
:1014000008EB06005FF0000790F802C05FEA0C608E
:1014100002D5DAF8042001E0DAF800204946204637
:10142000FFF79BF94FEA4C60641C4FEA106CA4B2C2
:10143000601B102808D07F1CFFB2082FE6D3761C53
:10144000F6B2202EDCD3AAE509F101002C461FFAE2
:1014500080F9F4E7F0B585B00DF1280E14460D467D
:101460009EE8C6108DE8C610024621462846FFF7C2
:101470007BFE142005B0F0BDF0B585B00DF1280E4F
:1014800014460D469EE8C6108DE8C6100246214659
:101490002846FFF729FF1220ECE730B514460D4629
:1014A000024621462846FFF7FBFD182030BD30B527
:1014B00014460D46024621462846FFF772FD1220CB
:1014C00030BD2DE9F84F9A4615460C4606460027D2
:1014D0004FF4F0784FF488792A78002A3AD0F0193E
:1014E00086B2802A15D906F11800404505D9163470
:1014F0000026A4B24C4500D900242846FFF7C0FCC2
:1015000080B2534622463146FFF7C7FF0746AD1C5F
:10151000E2E70D2A15D00A2A1AD006F10C00404540
:1015200005D90C340026A4B24C4500D900247148DA
:1015300041680091036821463046FFF700FB6D1CAF
:10154000CAE71634A4B24C4500D900240027F6E7B8
:101550000026FBE723E52DE9FF4F85B00646DDE9D0
:1015600015A9DDF850B015460C4600204FF4F07771
:101570004FF488782A78002A49D0304486B2802AED
:101580001CD906F11400B84205D914340026A4B2BF
:10159000444500D900242846FFF75BFCDDF84CC029
:1015A000CDE903A9CDE901CB1299009180B2224681
:1015B0003146089BFFF74EFFAD1CDBE70D2A1DD01F
:1015C0000A2A22D006F10800B84205D908340026BC
:1015D000A4B2444500D90024DDF84CC0CDE903A9EC
:1015E000CDE901CB1298009042480368A01C81B25B
:1015F0003046FFF7F0FA0A206D1CBBE71034A4B2A6
:10160000444500D900240020F6E70026FBE709B096
:1016100098E4F8B515460F460646002428780028B9
:101620001DD0A0F13001092901D888B204E02E288C
:1016300011D0202811D00C202F49202301EB80103D
:101640000090301980B210223946FFF747FC103461
:10165000A4B26D1CE2E70A20EEE70B20ECE7F8BD30
:101660002DE9F8430646994615460C4600204FF4EE
:10167000F0774FF488782A78002A41D0304486B237
:10168000802A14D906F11000B84205D9103400267A
:10169000A4B2444500D900242846FFF707FC80B2D5
:1016A0004B4622463146FFF702FFAD1CE3E70D2A09
:1016B00016D00A2A22D006F10800B84205D908340B
:1016C0000026A4B2444500D900240A48416800918C
:1016D000036821463046FFF732FA0A206D1CCAE73C
:1016E0001034A4B2444500D900240020F6E70000DD
:1016F000539000002000001004B300000026F4E71F
:10170000BDE8F8832DE9FF4F85B00646DDE915A950
:10171000DDF850B015460C4600204FF4F0774FF43A
:1017200088782A78002A48D0304486B2802A1CD98A
:1017300006F11000B84205D910340026A4B2444581
:1017400000D900242846FFF7B1FBDDF84CC0CDE9F5
:1017500003A9CDE901CB1299009180B2224631460E
:10176000089BFFF789FEAD1CDBE70D2A1CD00A2A77
:1017700021D006F10800B84205D908340026A4B2E9
:10178000444500D90024DDF84CC0CDE903A9CDE9DA
:1017900001CB129800905748214603683046FFF766
:1017A0001AFA0A206D1CBCE71034A4B2444500D9D3
:1017B00000240020F6E70026FBE728E72DE9F843A0
:1017C0000646994615460C4600204FF4F0774FF434
:1017D00088782A78002A93D0304486B2802A14D997
:1017E00006F11000B84205D910340026A4B24445D1
:1017F00000D900242846FFF759FB80B24B46224609
:101800003146FFF754FEAD1CE3E70D2A16D00A2A35
:101810001BD006F10800B84205D908340026A4B24E
:10182000444500D9002433484168009103682146AB
:101830003046FFF733FA08206D1CCAE71034A4B213
:10184000444500D900240020F6E70026FBE757E7CF
:10185000F0B5062A01D90A2201E002B901220529C0
:1018600000D90521914200D911460025224C20269D
:1018700066556D1CEDB20C2DFAD315460A270DE006
:10188000B0FBF7FC07FB1C0CB0FBF7F004EB050EFC
:101890000CF1300C6D1E0EF801CCEDB2002DEFD125
:1018A00069B1104605E0251815F8015C2554401E65
:1018B000C0B2491EC9B2F6D22E21215400E0A6546E
:1018C00073B90020511E09E0235C302B08D1231886
:1018D0005B782E2B04D02654401CC0B28842F3DB28
:1018E000521CD0B2002102E02154401CC0B20C288E
:1018F000FAD3F0BD20000010FC2F00100A4A02EBC2
:1019000001111022A1F5007107F0EFB8074A01EBB1
:10191000410102EB8101A1F5C0710A6802604A68C9
:101920004260896881607047A0A8000090AE000006
:101930002DE9F04F002687B007254FF002084FF041
:101940009E0BA020CDE902080190009006EB460016
:101950005D2101EB40128146062101EB491047460B
:1019600004952D230321FEF7A4FE0024761CB8461F
:1019700006EB460A069604EB491004F12903CDF85C
:1019800000B0CDE902B8C01CCDE9045382B2C4F165
:1019900006075E46CDF804B0B9B280B2FFF70CF886
:1019A000C4EB4A10CDE90268401E82B2009601964F
:1019B0000495B9B280B2059BFEF7FEFF641CE4B249
:1019C000032CD8D30698C6B2042EBAD30026A02082
:1019D000CDE902080190009006EB46005D2101EB85
:1019E00040128146062101EB4910474604955A23CF
:1019F0003021FEF75EFE06F1010B0024B8460BEB2A
:101A00004B0A9E2604EB491004F156030096CDE9DB
:101A10000268C01CCDE9045382B2C4F133070196B9
:101A2000B9B280B2FEF7C8FFC4EB4A10CDE9026834
:101A3000401E82B2009601960495B9B280B2059B11
:101A4000FEF7BAFF641CE4B2032CDAD30BF0FF06F6
:101A5000042EBCD307B0BDE8F08F2DE9F04F87B05E
:101A6000A0200226CDE902060725019000900495EA
:101A70002D23BD2203210620FEF71BFE0024A846CD
:101A80009E2502A8019580E86001C4F1060704F1D3
:101A90002903B9B29946E21CE01C0095FEF78CFFC1
:101AA00002A8019580E86001C4F1BF0082B2B9B21A
:101AB00080B24B460095FEF77FFF641CE4B2032C16
:101AC000DFD30024B146A020CDE9020901900090A7
:101AD00004EB440040F21D1101EB4012C62101EB62
:101AE000401046464F46CDF810802D230321FEF7C7
:101AF000E0FDB046E01C00259E2600EB400BA01C3C
:101B0000B94600EB400A05EB4A1005F1290300969F
:101B1000CDE90269C01CCDE9048382B2C5F1060794
:101B20000196B9B280B2FEF747FFC5EB4B10CDE985
:101B30000269401E82B20096CDF810800196B9B2BB
:101B400080B2059BFEF738FF6D1CEDB2032DDAD392
:101B5000641CE4B2022CB6D30025A020CDE9020912
:101B6000019000907D2000EBC512062046464F46AE
:101B7000CDF8108000EBC5105A233021FEF799FDF7
:101B8000B04600249E26E801B94600F1800A00BF55
:101B900004EBC510CDE90269C01C82B2C4F1330761
:101BA00004F15603CDF810800196B9B280B29B467D
:101BB0000096FEF701FFAAEB0400CDE90269401E82
:101BC00082B2CDF81080019680B2B9B25B46009621
:101BD000FEF7F2FE641CE4B2032CD9D36D1CEDB207
:101BE000032DBAD336E72DE9F84F0646DDE90A544E
:101BF000501B00F1010970199A461746A0F101081F
:101C00008B461FFA89F21FFA88F00B460094FEF704
:101C1000B2FD53461FFA89F21FFA88F01946009464
:101C2000FEF7A9FDAAEB050000F102085D44AD1E18
:101C300032461FFA88F3A9B210460094FEF79BFDC6
:101C40003A461FFA88F3A9B210460094FEF793FDB6
:101C5000BDE8F88F2DE9FF4F8BB09B46DDE9188179
:101C6000CDE90081144605460C99FFF7BCFF08F149
:101C700002001999C0B2CDE900010BF1010083B255
:101C8000601C82B20C98401E81B2681E80B2FFF7C1
:101C9000AAFF012763E00C98199AC619681C0390E3
:101CA000B1B280B2FEF759FDA81CA6F1010A089056
:101CB0001FFA8AF180B2199AFEF74FFDE81CA6F1CF
:101CC000020906901FFA89F180B2199AFEF745FDC4
:101CD000601E0790B1B280B2199AFEF73EFDA01EB9
:101CE00005901FFA8AF180B2199AFEF736FDA4F129
:101CF000030A1FFA89F11FFA8AF0199AFEF72DFDDF
:101D00000BEB0706301F814681B20398199A80B207
:101D1000FEF723FDF01E81B203900898199A80B255
:101D2000FEF71BFD0698B61EB1B280B2199AFEF7F7
:101D300014FD07981FFA89F180B2199AFEF70DFD7C
:101D40000398199A81B2059880B2FEF706FDB1B2E8
:101D50001FFA8AF0199AFEF700FD7F1CFFB2474573
:101D600099D30FB077E6F8B51D46861800930C4658
:101D70000746B2B20B46FEF7FEFCB2B2631C611C12
:101D800038460095FEF7F7FCF8BD08B50A44009305
:101D900093B20246FEF7EFFC08BD30B5A34A00211E
:101DA0004FF4FF3410F8013B491C10F8015B1B0491
:101DB00043EA052310F8015B2B4342F80439A142A2
:101DC000F0D330BD9A4808B510F8511F01F0010159
:101DD0000170017A01F001010172417A01F00701FD
:101DE0004172C17901F00101C1719249924891F8A3
:101DF0002C214272914A137D437092F84C30C37289
:101E000092F8842002730A7D427191F84C2082710D
:101E100091F884200272D1F8F4204265D1F8BC1008
:101E200001660246DC20002300901946184604F0A3
:101E300027F808BDF8B5804CDC200023009022462E
:101E40001946184604F093F80020034600EBC00141
:101E5000C1EB801114F82120322A01D904F8213075
:101E6000401CC0B20C28F1D37348714C0526417850
:101E700001F0010284F85120417A01F001056D4919
:101E80004572C1F82C516D4D42706A61C27AB2FB45
:101E9000F6F706FB1722C272EA64027B684E02F074
:101EA00007020273C5F88420427902F001024271F0
:101EB0004A61827902F001028271CA64027A02F0F8
:101EC00001020272C1F88420002200BF02EB420529
:101ED00004EB8505D5F8A470B74201D9C5F8A43044
:101EE000521CD2B2032AF1D3426DC1F8F420006E25
:101EF000C1F8BC00F8BD08B5524800210090162377
:101F000070220846FEF7A9FB08BD2DE9F84300241E
:101F10006FF07F454FF02E0901E0062C13D204EB41
:101F2000440000EBC40109EB410083B281B2BE2240
:101F30005F200095FEF71FFC6FF055064FF4DC772D
:101F400040F259180CE004EB440000EBC40006EB2F
:101F5000400083B281B23A4640460095FEF70BFC42
:101F6000641C0C2CD9D3BDE8F88337486FF07F414F
:101F70000023016035494160F22135A25320FFF76B
:101F80006FBB2DE9F04130486FF07F41334A01606B
:101F9000002141600B4604210020FFF761FB2F4F19
:101FA00000243C371A266FF0690501E0062C0AD29E
:101FB00004EB440000EBC400C21906EB400081B200
:101FC0000023184609E004EB440000EBC400C219EA
:101FD00005EB400081B20023FA20FFF741FB641CAF
:101FE0000C2CE3D300244FF4A77701E0062C09D290
:101FF00004EB440000EBC40006EB4001002318A2F0
:10200000542009E004EB440000EBC40005EB400061
:1020100081B2002312A23846FFF722FB641CE4B20F
:102020000C2CE3D3BDE8F0416FE7000000DC06A014
:10203000442E001014290010202F0010002700103B
:10204000A0860100F3520300200000103800310088
:102050004D656173205365740000000097B800005F
:102060003A000000012210B59102104602F0DFFE96
:1020700001220221104602F0DAFE00224FF08071A8
:10208000104602F0D4FE00224FF00071104602F01C
:10209000CEFE01229106022002F0C9FE0122BDE817
:1020A00010401146104602F0C2BE0020401EC0B2D1
:1020B0000628FBD3704770B505460221012002F0C7
:1020C000CCFE00244FF48066280631464FF0010014
:1020D00002D502F0BAFE01E002F0BFFE02210120AB
:1020E00002F0B3FEFFF7E1FF0221012002F0B5FE8E
:1020F000FFF7DBFF6806641C050EE4B2082CE3D38F
:1021000070BD10B5FFF7AEFFBDE81040FF20D2E76D
:102110000020401CC0B23228FBD370472DE9F041AB
:10212000FF2426460020FFF7C6FF0225FFF7F0FF39
:10213000002002F09DFE800100D40025002002F066
:1021400097FEC00101D4012501E0022D2BD2DFF85A
:102150009C8000244FF400773946012002F07DFE78
:1021600018F80400FFF7A7FF3946012002F06DFEC2
:10217000FFF7CEFF15B1012D0ED104E0002002F0D3
:1021800077FE800103E0002002F072FEC00100280B
:1021900002DB2646FF2C03D1641CE4B2062CDBD301
:1021A00006EBC500C4B22046BDE8F0812DE9104021
:1021B000FFF7B4FFFF28FBD1FFF7B0FFFF28FBD1EB
:1021C00010BD10B5012214032146002002F02FFE9D
:1021D0002146002002F039FE0820FDF7A4FF214629
:1021E000BDE81040002002F038BE000057B90000E2
:1021F000002101E0401CC0B28142FBD37047FF497F
:1022000010B50020087003F009FEFFF713FEFC482C
:102210004069002802D1FB490120087010BDFA4A2C
:1022200010B5012010709070F9485378F749007884
:10223000062433B1042B0CD103280BD0042807D17A
:102240000BE028B1012803D0022801D0032002E0CE
:102250000C7010BDD078087010BD1079FBE72DE927
:10226000F84F0546EA48E84EC5EBC50C07787C36C2
:1022700006EBCC00E74C8168406801EB810356F81F
:102280003CC0626800F110014FF030097FB3012FAC
:102290002ED0022F2CD0009209EB430262448BB265
:1022A00092B281B20CF1300C1FFA8CF0FEF7D5F926
:1022B000FF231904C4E90031DFF84CA342F2107087
:1022C0004FF47A7B4FF0640E042D1CD0062D7DD088
:1022D000032D7CD0052D7BD0082D7AD0072D79D009
:1022E000002D78D0012D77D0022D76D0A0E3FFE726
:1022F00000923F2202EB430262448BB292B281B25F
:102300000CF13F0CD0E7C04ABF4F20323437D2F82F
:1023100000C05C3202F1E005C2F8F4C0BCFBF0F290
:10232000D2B23A704FF02E0887F80180BCFBF0F86B
:1023300000FB18C85846B8FBF0F887F80280BCFBD1
:10234000FBF80BFB18C87046B8FBF0F887F8038061
:10235000BCFBFEF80EFB18C80A20B8FBF0F887F8A3
:102360000480BCFBF0F800FB18C078710091A888CD
:1023700081B236F8E00F303080B2FEF724FC60689E
:102380000090A8887A7881B2308823683C3080B287
:10239000FEF7D5FB60680090A888BA7881B23088D3
:1023A0002368483080B2FEF70EFC60680090A88871
:1023B000FA7881B230882368543080B2FEF703FC8B
:1023C00060680090A8883A7981B207E02FE0BAE00F
:1023D00054E1E2E16DE2FBE204E313E330882368B9
:1023E000603080B2FEF7EFFB60680090A8887A79D1
:1023F00081B236F8E00923686C3080B2FEF7E3FB67
:102400009AF8001001297DD1216800919AF80A10EC
:10241000B6F8E02001EB410309EB830010447A5C3D
:1024200007F1480180B2B1F8E4106368CCE2764A63
:10243000754F1C324037D2F800C0603202F5A875E3
:10244000C2F864C1BCFBF0F2BCFBF0F800FB18C89A
:10245000B8FBFBF0BCFBFBF8D2B23A7078702E20D0
:10246000B8700BFB18C87046B8FBF0F887F803800B
:10247000BCFBFEF80EFB18C80A20B8FBF0F887F882
:102480000480BCFBF0F800FB18C078710091A888AC
:1024900081B2B6F8500106F5A876303080B2FEF76A
:1024A00092FB60680090A8887A7881B230882368AF
:1024B0003C3080B2FEF787FB60680090A888BA784D
:1024C00081B230882368483080B2FEF738FB6068FC
:1024D0000090A888FA7881B230882368543080B29E
:1024E000FEF771FB60680090A8883A7981B2308865
:1024F0002368603080B2FEF766FB606800907A79EE
:10250000A88800E088E081B23088A6F5A8766C3013
:1025100080B22368FEF757FB9AF8001001297BD19F
:10252000216800919AF80A10B6F8502101EB410396
:1025300009EB830010447A5C07F13C0180B2B1F8EA
:102540005411636840E2304A2F4F24323A37D2F8B0
:1025500000C0583202F1A805C2F8BCC0BCFBF0F2C2
:10256000D2B23A704FF02E0887F80180BCFBF0F829
:1025700000FB18C85846B8FBF0F887F80280BCFB8F
:10258000FBF80BFB18C87046B8FBF0F887F803801F
:10259000BCFBFEF80EFB18C80A20B8FBF0F887F861
:1025A0000480BCFBF0F800FB18C078710091A8888B
:1025B00081B236F8A80F303080B2FEF704FB6068B5
:1025C0000090A8887A7881B2308823683C3080B245
:1025D000FEF7B5FA60680090A888BA7881B23088B2
:1025E0002368483080B2FEF7EEFA60680090A88851
:1025F000FA7881B23088543080B20EE000290010A1
:102600001429001000000010842600100829001072
:1026100009290010200000109CE02368FEF7D3FA7F
:1026200060680090A8883A7981B230882368603069
:1026300080B2FEF7C8FA60680090A8887A7981B203
:1026400036F8A80923686C3080B2FEF7BCFA9AF815
:10265000001001297ED1216800919AF80A10B6F87D
:10266000A82001EB410309EB830010447A5C07F1D9
:10267000420180B2B1F8AC106368A5E1FE4AFE4F9A
:102680004FF02E08D2F800C0543202F58C75C2F813
:102690002CC1BCFBF0F21E37D2B23A7087F8018031
:1026A000BCFBF0F800FB18C85846B8FBF0F887F8F8
:1026B0000280BCFBFBF80BFB18C87046B8FBF0F8B7
:1026C00087F80380BCFBFEF80EFB18C80A20B8FB95
:1026D000F0F887F80480BCFBF0F800FB18C07871B4
:1026E0000091A88881B2B6F8180106F58C763030D2
:1026F00080B2FEF768FA60680090A8887A7881B2A4
:10270000308823683C3080B2FEF719FA6068009088
:10271000A888BA7881B230882368483080B2FEF742
:1027200052FA60680090A888FA7881B230882368ED
:10273000543080B2FEF747FA60680090A8883A7972
:1027400081B230882368603080B2FEF73CFA60685E
:10275000009000E08CE0A8887A7981B23088A6F5F4
:102760008C766C3080B22368FEF72DFA9AF8001050
:1027700001297DD1216800919AF80A10B6F8182134
:1027800001EB410309EB830010447A5C07F1360149
:1027900080B2B1F81C11636816E1B74AB64F08322F
:1027A0002A37D2F800C04C3202F5E075C2F8D4C125
:1027B000BCFBF0F2BCFBF0F800FB18C8B8FBFBF068
:1027C000BCFBFBF8D2B23A7078702E20B8700BFBCD
:1027D00018C87046B8FBF0F887F80380BCFBFEF819
:1027E0000EFB18C80A20B8FBF0F887F80480BCFB81
:1027F000F0F800FB18C078710091A88881B2B6F893
:10280000C00106F5E076303080B2FEF7DCF9606892
:102810000090A8887A7881B2308823683C3080B2F2
:10282000FEF7D1F960680090A888BA7881B2308844
:102830002368483080B2FEF782F960680090A8886B
:10284000FA7881B230882368543080B2FEF7BBF941
:1028500060680090A8883A7981B230882368603037
:1028600080B2FEF7B0F9606800907A79A88800E03D
:102870008AE081B23088A6F5E0766C3080B22368B9
:10288000FEF7A1F99AF8001001297DD12168009185
:102890009AF80A10B6F8C02101EB410309EB830056
:1028A00010447A5C07F12A0180B2B1F8C411636860
:1028B0008AE0714A704F121D2437D2F800C050329E
:1028C00002F5C475C2F89CC1BCFBF0F2BCFBF0F889
:1028D00000FB18C8B8FBFBF0BCFBFBF8D2B23A70A7
:1028E00078702E20B8700BFB18C87046B8FBF0F853
:1028F00087F80380BCFBFEF80EFB18C80A20B8FB63
:10290000F0F887F80480BCFBF0F800FB18C0787181
:102910000091A88881B2B6F8880106F5C4763030F7
:1029200080B2FEF750F960680090A8887A7881B28A
:10293000308823683C3080B2FEF745F9606800902B
:10294000A888BA7881B230882368483080B2FEF710
:10295000F6F860680090A888FA7881B23088236819
:10296000543080B2FEF72FF960680090A8883A7959
:1029700081B230882368603080B2FEF724F9606845
:1029800000907A79A88800E021E081B23088A6F52D
:10299000C4766C3080B22368FEF715F99AF80010FF
:1029A000012945D1216800919AF80A10B6F88821CA
:1029B00001EB410309EB830010447A5C07F130011D
:1029C0006368B1F88C1180B289B2FEF7FCF82FE091
:1029D000C4E900132949706901EB8002B08881B213
:1029E000308820E0C4E900132349244A543101F11E
:1029F0003800C96C1032C1EBC10180880A4481B231
:102A0000308F10E0C4E900131B491C4A543101F116
:102A10007000D1F884103332C1EBC10180880A44C0
:102A200081B2B6F8700000233F3080B2FEF718FE86
:102A30006FF07F40206000206060BDE8F88F70B5C7
:102A40000F481049002200BF00EB42031C7FDB7ED1
:102A500004EB03239B0041F82230521CD2B2032A1C
:102A6000F2D3002200EB420393F8224093F8213086
:102A700004EB03235B0007E0AC26001060B9000004
:102A80001D320010982B001001EB8204521CD2B2B0
:102A9000E360032AE6D3002200EB420393F82840C8
:102AA00093F8273004EB03231CB201EB4203002C04
:102AB0009C8301DA64429C832404640B521CD2B2CE
:102AC0009C83032AE8D3002200EB420393F8524090
:102AD00093F8513004EB032301EB8204DB00521C1A
:102AE000D2B2E363032AEFD3002201244FEA0205A6
:102AF00000EB420393F82E6093F82D3006EB03238E
:102B00001BB201EB4206002B338505DA5B423385AD
:102B10008B1883F8704002E08B1883F87050521CB9
:102B2000D2B2032AE4D390F8342010F8333F02EBFA
:102B30000322D2000A63C278837802EB0323DB000E
:102B40004B63037902EB03228A63C279837902EB38
:102B500003228A61C27A037A847A02EB0362437A9F
:102B60001B0403EB04231A448A64C27B037B847B2B
:102B700002EB0362437B1B0403EB04231A440A6544
:102B8000C27C037C847C02EB0362437C1B0403EB6A
:102B900004231A44CA64C27D037D847D02EB036270
:102BA000437D1B0403EB04231A444A650022333897
:102BB00000EB420393F84C4093F84B3004EB0323B3
:102BC0001CB201EB4203002C5C8401DA64425C8499
:102BD0002404640B521CD2B25C84032AE8D370BD77
:102BE000FE4810B5D0F82C114FF48054D1B9FC4AEE
:102BF000D0F8F410D3688B420CD813698B4209D8F3
:102C0000B2F91C10D0F8BC00814203D8B2F91E10F2
:102C1000814207D9FFF7D5FA0121BDE810400846E7
:102C200002F013B901222146002002F000F92146EA
:102C3000002002F012F90121BDE81040084602F020
:102C40000CB92DE9FC5FE74D4FF6FF704FF0000A1D
:102C5000DFF89483C5E9000A98F80B00E04CE34ED6
:102C60006FF07F4910B101287ED003E200230522D6
:102C700002212068FEF7ECFDDD4A38210A20FEF72C
:102C8000C8FCDC4F2223182236216F200097FEF764
:102C900025F90023052202216068FEF7D9FDD44AF8
:102CA0003821AA20FEF7B5FC22231822362140F253
:102CB0000F100097FEF712F9002305220221A068E9
:102CC000FEF7C6FDCA4A38214FF4A570FEF7A1FCF5
:102CD00022231822362140F2AF100097FEF7FEF8AB
:102CE0004FF47F402860002305220321E068FEF7AF
:102CF000AFFDBF4A65210A20FEF78BFC0227BEA06C
:102D0000CDE900072223182263216F20FEF71BF96B
:102D10000023052203212069FEF79AFDB44A6521AC
:102D2000AA20FEF776FCB4A0CDE9000722231822E2
:102D3000632140F20F10FEF706F90023052203215C
:102D40006069FEF785FDAA4A65214FF4A570FEF77C
:102D500060FCA9A0CDE9000722231822632140F2DC
:102D6000AF10FEF7F0F800E0BEE02E60B4F91C00F2
:102D7000002305220121FEF76BFD9D4A92210A20C6
:102D8000FEF747FC9B4E22236636182290218720AF
:102D90000096FEF7A3F8B4F91E00002305220121D6
:102DA000FEF756FD924A9221AA20FEF732FC22231A
:102DB0001822902140F227100096FEF78FF8B4F900
:102DC0002000002305220121FEF742FD884A9221BE
:102DD0004FF4A570FEF71DFC40F2C71B22231822FA
:102DE000902158460096FEF779F84FF0FF102860C2
:102DF000B4F92800002305220421FEF729FD7C4AAE
:102E0000BF210A20FEF705FCB4F92A0000230522A1
:102E10000421FEF71DFD764ABF21AA20FEF7F9FB2B
:102E2000B4F92C00002305220421FEF711FD704A9D
:102E3000BF214FF4A570FEF7ECFB7048286000231B
:102E400004220221A069FEF703FD694AEC210A2051
:102E5000FEF7DFFBA6F2FA5622231822EA216F20A2
:102E60000096FEF73BF8664F22231822EA218720BE
:102E70000097FEF733F8002304220221A069FEF731
:102E8000E7FC5B4AEC21AA20FEF7C3FB22231822B1
:102E9000EA2140F20F100096FEF720F822231822B4
:102EA000EA2140F227100097FEF718F800230422C9
:102EB0000221A069FEF7CCFC4D4AEC214FF4A5702D
:102EC000FEF7A7FB22231822EA2140F2AF1000965A
:102ED000FEF704F822231822EA2158460097FDF74E
:102EE000FDFFFFF77DFEC5E0C5F800900023072237
:102EF0000321A06CFEF7ACFC00233D4A32211820D0
:102F0000FEF7AEFB00233FA232219020FEF7A8FB84
:102F1000002307220321A06CFEF79AFC0023344A09
:102F20003221AE20FEF79CFB4FF49376002335A2AE
:102F300032213046FEF794FB002307220321A06CC8
:102F4000FEF786FC4FF4A2770023294A3221384647
:102F5000FEF786FB4FF4DE7B00232AA2322158467F
:102F6000FEF77EFB002305220121E06BFEF770FCDB
:102F700000231F4A46211820FEF772FB002322A2DD
:102F800046219020FEF76CFB002305220121206CD6
:102F9000FEF75EFC0023164A4621AE20FEF760FBDA
:102FA000002319A246213046FEF75AFB00230522D2
:102FB0000121606CFEF74CFC00230D4A4621384687
:102FC000FEF74EFB002310A246215846FEF748FBB1
:102FD00000230522B4F92200012117E01429001072
:102FE000982B0010200000108426001070FFCA00EB
:102FF000FC2F0010C815001041000000FF7F2400C6
:10300000202400106B57680056410000FEF720FC9A
:103010000023FC4A5A211820FEF722FB0023FAA2C3
:103020005A219020FEF71CFBB4F92400002305224E
:103030000121FEF70DFC0023F24A5A21AE20FEF7D3
:103040000FFB0023F0A25A213046FEF709FBB4F92A
:103050002600002305220121FEF7FAFB0023E94A9E
:103060005A213846FEF7FCFA0023E7A25A215846B7
:10307000FEF7F6FA98F8061098F807204046D14275
:103080004FF4805108D04279521CD2B24271232AA7
:1030900006D988F805A009E0012288F8052005E096
:1030A000142A03D9D948D0F8EC0230B1002001F03D
:1030B000D4FEC5F80090BDE8FC9F002001F0C5FEDD
:1030C000F7E71CB5D2A1D1E90001CDE90001062145
:1030D000684603F0ABF8000A8DF806000621684642
:1030E00003F0A4F88DF8070008226946CA4802F0E8
:1030F000B0FB1CBD1FB5C9A30FCB8DE80F000B2182
:10310000684603F093F8000A8DF80B000B2168461F
:1031100003F08CF88DF80C000D226946BE4802F0D1
:1031200098FB1FBD2DE9F84F0020FDF78DFA4FF4F5
:103130008051002001F091FEBC4FFF20DFF8F082AB
:10314000F97ADFF8C892BB4C4FF0000A4FF6FF75D2
:10315000002960D02060002342461E214E20FEF749
:103160007FFA002308F105021E21E420FEF778FA19
:10317000002308F10A021E214FF4BD70FEF770FA19
:103180006FF07F4000264FF0320BC846C4F80000B5
:10319000D8F84C000023C0EB0011A74800EB8101D8
:1031A00006EB860001EB80020BEB80010420FEF7AA
:1031B00057FA761CF6B2032EEAD300BFC4E900A585
:1031C000D9F84C009D4E0028F87A68D000287BD0B2
:1031D000666000961423342204210020FDF73DFA96
:1031E0000023974A04210820FEF73AFAF87A0128CA
:1031F0007ED06660009614236A2204213620FDF7F3
:103200002CFA00238E4A04213E2001B01432BDE87E
:10321000F04FFEF725BAC4E9000A00264FF0410B33
:1032200006EB860000EB08020BEB401080B2002397
:103230001C21FEF715FA761CF6B2032EF0D34FF4DC
:10324000EF762B46324632210120FEF78CFD4FF4FB
:103250007F4332465F210120FEF785FD794B3246E0
:103260008C210120FEF77FFD4FF0FF133246B9217C
:103270000120FEF778FD744B3246E6210120FEF76F
:1032800072FD2B46DE223221A020FEF77EFD2B466A
:10329000DE2232214FF4A070FEF777FD8EE700B3F7
:1032A000666000961423342204210020FDF7D5F92E
:1032B0000023664A04211846FEF7D2F9F87A01285D
:1032C00011D06660009601E010E011E014236A223C
:1032D00004213620FDF7C1F9002304215B4A362082
:1032E00093E70095DEE765600095ECE7009571E7F0
:1032F000656000957FE7F0B455484C491831027875
:103300000868022A0CD0032A18D00846042A00684C
:1033100020F0080020D0052A2AD0062A35D040E027
:1033200020F0080040F01000C20862F3820082081A
:1033300062F34100420862F3000031E020F0040033
:10334000820862F34100420862F30000024660F323
:10335000041242F0080023E0C20862F34100420870
:1033600062F30000024660F3041242F0040017E02A
:103370000246C00860F38202900860F30002104623
:1033800062F3041040F002000AE0C20862F3820017
:10339000820862F34100420862F3041040F0010029
:1033A00008602C4B214800251C78407842F21072AE
:1033B000C4EBC403D8B1042871D1144800EBC30393
:1033C0001E7B012E6BD1032C6AD0042C69D00878A7
:1033D000C00764D05869401C58611969884200D9F7
:1033E0005D61012C5BD1F0BC0020FDF72DB90F48C9
:1033F0007C3000EBC300037B012B50D1E41E062C74
:1034000070D229E0FC2F00105661720014290010C0
:1034100001030000002C000000C00040011000105B
:1034200000020400000000000000000084260010DC
:1034300094B6000020000010A3B600008A898D0019
:103440006CB6000070FFCA00FF7F240044B6000085
:103450000829001009290010DFE804F0240345655D
:1034600085A5F5480B680168DC0701D0491C0FE011
:103470009C0701D50A310BE05C0701D5643107E0F8
:103480001C0702D501F57A7102E0DB0601D5114473
:1034900001600A46E8495C31D1F8F010A2E0A4E0EE
:1034A000B0E0D2E0E4480B6800F10400DC070168FA
:1034B00001D0491C0FE09C0701D50A310BE05C07E5
:1034C00001D5643107E01C0702D501F57A7102E0ED
:1034D000DB0601D5114401600A46D7495C31D1F8B9
:1034E000B8107FE083E0D4480B6800F10800DC07E7
:1034F000016801D0491C0FE09C0701D50A310BE09F
:103500005C0701D5643107E01C0702D501F57A712B
:1035100002E0DB0601D5114401600A46C6495C3170
:10352000D1F828115EE0C4480B68A0F10400DC0764
:10353000016801D0491C0FE09C0701D50A310BE05E
:103540005C0701D5643107E01C0702D501F57A71EB
:1035500002E0DB0601D5114401600A46B6495C3140
:10356000D1F860113EE0B4480B6800F10C00DC07B4
:10357000016801D0491C0FE09C0701D50A310BE01E
:103580005C0701D5643107E01C0702D501F57A71AB
:1035900002E0DB0601D5114401600A46A6495C3110
:1035A000D1F898111EE0A4480B6800F11000DC0768
:1035B000016801D0491C0FE09C0701D50A310BE0DE
:1035C0005C0701D5643107E01C0702D501F57A716B
:1035D00002E0DB0601D5114401600A4696495C31E0
:1035E000D1F8D0118A4200D90160F0BC7047097847
:1035F000C907FAD04169491C416102699142F4D975
:103600004561F2E70B688D49DC07D1F8BC1001D0A9
:10361000491C0FE09C0701D50A310BE05C0701D57E
:10362000643107E01C0702D501F57A7102E0DB0680
:1036300002D51144C0F8BC10D0F8BC204EF6602171
:103640008A42D2D9C0F8BC10CFE70B687B49DC07AF
:10365000D1F8F41001D0491C0FE09C0701D50A31C4
:103660000BE05C0701D5643107E01C0702D501F5CA
:103670007A7102E0DB0602D51144C0F8F410D0F8EC
:10368000F42044F620618A42AFD9C0F8F410ACE7C8
:10369000694820380078012800D12CE67047684836
:1036A00030B40178644808380229026808D0032938
:1036B0000DD0042919D0052923D0062930D03DE0AA
:1036C00022F0010141F0100161F341012FE022F0ED
:1036D000100141F008010A0962F300010A4661F392
:1036E0004102510861F3820218E022F0100141F01A
:1036F0000402110961F30002114662F341014A0814
:1037000019E022F0100141F002010A0962F3000100
:103710000A4661F38202910861F3C30202600DE080
:1037200022F0100141F001010A0962F341014A0847
:1037300062F382018A0862F3C30101603E49414B92
:10374000203900221B784978C3EBC304D9B104297E
:1037500071D13A4901EBC404257B012D6BD1032BB8
:1037600072D0042B71D00078C00764D06069401E0D
:1037700060612169884200D96161012B5BD130BC55
:103780000020FCF761BF2C495C3101EBC4010C7BCC
:10379000012C50D1DB1E062B6FD2DFE803F0220391
:1037A000436F8FAF03682448DC07016801D0491ECE
:1037B00011E09C0701D50A390DE05C0701D5643999
:1037C00009E01C0702D5A1F57A7104E0DB0603D5F8
:1037D000A1F51C5110390160174B5C33D3F8F03060
:1037E000ABE003681448DC0700F10400016801D075
:1037F000491E11E09C0701D50A390DE05C0701D58F
:10380000643909E01C0702D5A1F57A7104E0DB06F2
:1038100003D5A1F51C5110390160074B5C33D3F877
:10382000B8308AE003680448DC0700F1080001684A
:103830000CD0491E1CE083E0A426001014290010BF
:10384000082900100929001087E0ACE09C0701D589
:103850000A390DE05C0701D5643909E01C0702D57F
:10386000A1F57A7104E0DB0603D5A1F51C511039EE
:103870000160F94BD3F828315FE063E00368F64854
:10388000DC07A0F16000016801D0491E11E09C072F
:1038900001D50A390DE05C0701D5643909E01C0740
:1038A00002D5A1F57A7104E0DB0603D5A1F51C5120
:1038B00010390160E84BD3F860313EE00368E64818
:1038C000DC07A0F15000016801D0491E11E09C07FF
:1038D00001D50A390DE05C0701D5643909E01C0700
:1038E00002D5A1F57A7104E0DB0603D5A1F51C51E0
:1038F00010390160D84BD3F898311EE00368D648E0
:10390000DC07A0F14C00016801D0491E11E09C07C2
:1039100001D50A390DE05C0701D5643909E01C07BF
:1039200002D5A1F57A7104E0DB0603D5A1F51C519F
:1039300010390160C84BD3F8D031994200D90260E8
:1039400030BC70470078C007FAD04869401E486113
:103950000A699042F4D94A61F2E70368BF48DC077C
:10396000D0F8BC0001D0401E14E09C0701D50A38F5
:1039700010E05C0701D564380CE01C0702D5A0F507
:103980007A7007E0DB0602D4D1F8BC0004E0A0F5B1
:103990001C501038C1F8BC004EF660239842CFD9B5
:1039A000C1F8BC20CCE70368AC48DC07D0F8F400D1
:1039B00001D0401E14E09C0701D50A3810E05C07D6
:1039C00001D564380CE01C0702D5A0F57A7007E039
:1039D000DB0602D4D1F8F40004E0A0F51C50103846
:1039E000C1F8F40044F620639842A9D9C1F8F42044
:1039F000A6E799487C380078012800D14FE6704747
:103A0000F0B5954A00217C3A944DD2E9043401275F
:103A10000E46032802D0042806D102E0904B914CB8
:103A200002E0904C904B0A34C1EBC10C814205EB93
:103A3000CC0C02D18CF80C7001E08CF80C60491CA5
:103A4000C9B20629E5D3C2E90434F0BD2DE9FC5F13
:103A500000260420854D804C01907C3C2E704FF058
:103A600006094FF00208B34626703046FCF7ECFD1D
:103A700000F0D4FDFEF79AFB7D4FB1E0FEF74EFB60
:103A800082462878FFF7BCFF6078042806D12878A2
:103A900003280AD0042809D04FF00609BAF1FF0F15
:103AA0000AD0761C092E08D108E006204FF006093E
:103AB0004FF002080190F1E7002691E06748D0F846
:103AC0008400012801D0FEF77CFBBAF10C0F1BD259
:103AD000DFE80AF0864327861B86868606715F7EAE
:103AE000604864A19438E26805F0BCF85D480021A4
:103AF000943800904FF488734FF4F072084600F049
:103B00007BFFE068401CE0606AE0FEF75BF90020A4
:103B1000FCF79AFD1520386000F0CEF884F801B06B
:103B20005EE0207801285BD155490878401EC0B27C
:103B30000870404501D3484506D981F8009028789F
:103B40000228484603D004E00199884201D2801E31
:103B500000E0401EA072022117E0207801283FD12A
:103B600047490878401CC0B20870404501D3484519
:103B700003D981F80080404602E00199884201D2D1
:103B8000801E00E0401EA0720121287800F09DFDFB
:103B900026E0207801280BD02878411C29700428C1
:103BA00001D985F800B084F800B000F037FD17E0C7
:103BB000FFF71FFF2DE02078012803D0287820B1DF
:103BC000401E03E0FFF764FD23E005202870EAE7CC
:103BD000207858B184F800B000F020FDFEF7F2F82C
:103BE00038680C283FF44AAFBDE8FC9FFEF717FB8E
:103BF00023490878404501D3484503D981F800801E
:103C0000404602E00199884201D2801E00E0401E39
:103C1000A0720021B9E7F0B50F4C00217C3CC51E15
:103C2000D4E904320C4E01278C46062D32D2DFE84F
:103C300005F008030D312D29074B483B03F1240201
:103C400028E0054B423B03F1240223E0024B363BC4
:103C500003F124021EE000000027001014290010C8
:103C6000083000100C2C0010123000100929001030
:103C700004290010303A25302E36642E626D700013
:103C800008290010654B03F1240203E0634B9B1FDE
:103C900003F12402C1EBC10E814206EBCE0E02D12C
:103CA0008EF80C7001E08EF80CC0491CC9B20829CE
:103CB000BBD9C4E90432F0BD2DE9F05F584F574C31
:103CC0000025523C3D7025706570E5722846FCF772
:103CD000BBFCFEF76BFAFFF725FADFF84881DFF847
:103CE00048A1DFF848914FF0010B514E4FE098F892
:103CF0001500C446012803D1FEF7A1FE8CF815502B
:103D0000607AFEF79EFFFEF709FA20723878FFF717
:103D100082FF207AFF280ED09AF80010504607291B
:103D200001D2491C017099F8002082B39AF8000072
:103D300006282CD104E08AF8005089F800B026E06B
:103D40003C4889F80050D0F88400012801D0FEF7E3
:103D500038FA207A062818D2DFE800F0031E11177F
:103D60001707354981F800B00FE00C2030600420BF
:103D700060700020FCF768FCFFF768FE05E0E07A61
:103D8000012800D1E572FFF7CDF9FEF70FFA306890
:103D90001528ACD0BDE8F09FE07A0028F3D184F874
:103DA0000BB0F0E71D481E495238427809784AB1F5
:103DB000042A1ED103292BD004291AD11F490161DD
:103DC0001F4915E0154AC91E0C32062911D2DFE839
:103DD00001F00803110B161B10491E390161243133
:103DE00006E00E49183907E00C4912390161243107
:103DF0004161704709490C39C0E90412704707490D
:103E0000891F01612431F3E7044901612431EFE79F
:103E10000C4901610A490A39EAE70000D626001078
:103E2000092900101D3200100D0000100C000010B8
:103E30000429001014290010000000101230001096
:103E4000162C001008300010824840F20121C0F802
:103E50008011C0F88411C0F88811C0F88C11C0F826
:103E60009011C0F89411C0F89811C0F89C11C0F8D6
:103E7000A011C0F8A411C0F8A811C0F8AC11C0F886
:103E8000B011C0F8B411C0F8B811C0F8BC11C0F836
:103E9000C011C0F8C411C0F8C811C0F8CC11C0F8E6
:103EA000D011C0F8D411C0F8D811C0F8DC11C0F896
:103EB000E011C0F8E411C0F8E811C0F8EC11C0F846
:103EC000F011C0F8F411C0F8F811C0F8FC11C0F8F6
:103ED0000012C0F80412C0F80812C0F80C12C0F8A2
:103EE0001012C0F81412C0F81812C0F81C12C0F852
:103EF0002012C0F82412C0F82812C0F82C12C0F802
:103F00003012C0F83412C0F83812C0F83C12C0F8B1
:103F10004012C0F84412C0F84812C0F84C12C0F861
:103F20005012C0F85412C0F85812C0F85C12C0F811
:103F30006412C0F84011C0F84411C0F84811C0F82C
:103F40005011C0F86011C0F87011C0F87411C0F8B9
:103F50007811C0F87C1170472DE9F041DFF8F88046
:103F6000434653F8C40F40F40060186041F61F70D8
:103F7000C3F81801394C012222600026A660FFF721
:103F800063FF374837490068B0FBF1F5D86B00B1E3
:103F90006D084FF47A77B7FBF5F101F11300B0FB30
:103FA000F1F323630F236363A663E263B0FBF1F0D5
:103FB000801C2064626401F13E00B0FBF1FCC4F897
:103FC00048C0B0FBF1FCC4F84CC02365B0FBF1F075
:103FD0006065A265A26240F20330C4F804014FF4A8
:103FE000D060C4F8000164210020FCF721F940F200
:103FF00083102062C8210020FCF71AF940F2031058
:10400000206202206062401C8028FCD340F2E7104E
:104010004543B5FBF7F080B260628320206212480E
:1040200000882662D4F8000140F40020C4F80001A2
:1040300001210020FCF7FCF801210020FCF7F8F832
:10404000D8F8DC1121F01F0141F01101C8F8DC1192
:10405000BDE8F08100C0024000C00F4000C0092050
:10406000942A001040420F00003003A02DE9FF5FAA
:104070008146002001900290DFF8ECB3FB4C0390E6
:10408000ABF5A875D4E900A00F46EA6C42F21073B4
:104090004FF47A714FF06408B9F1060F7AD2DFE875
:1040A00009F003FE2B8EFD5EF148436903C86230C0
:1040B00082B1EF4E89B20A3E06EB830280B2002342
:1040C000FDF7CEFA686906EB800004F04CFD8046EF
:1040D00068692AE003EB83025E46324489B280B20B
:1040E0000123FDF7BDFA686900EB8000304404F05D
:1040F0003AFD804668692EE0DD48D0F88430416F93
:10410000006F6230A2B1DA4E89B20A3E06EB83023A
:1041100080B20023FDF7A4FAD5F8840006EB8000F6
:1041200004F021FD8046D5F8840006EB80014EE1C5
:1041300003EB83025E46324489B280B20123FDF76D
:104140008FFAD5F8840000EB8000304404F00BFDBA
:104150008046D5F8840000EB8000811937E1C4481F
:10416000D0F82C3100F58C7003C862309AB1C04E83
:1041700089B20A3E06EB830280B20023FDF770FA93
:10418000D5F82C0106EB800004F0EDFC8046D5F854
:104190002C01CAE760E103EB83025E46324489B238
:1041A00080B20123FDF75CFAD5F82C0100EB80000A
:1041B000304404F0D8FC8046D5F82C01CBE7D5F884
:1041C000BC20B2FBF3F606F0FF0CAA4EE64686F8DA
:1041D00000C0B2FBF3FC03FB1C23B3FBF1F37370D1
:1041E000B2FBF1F301FB1321B1FBF8F1B170B2FBAB
:1041F000F8F108FB11230A21B3FBF1F3F3702E232E
:104200003371B2FBF1F301FB132171710090B5F82A
:10421000AC00534681B235F8A80F7246623080B2C6
:10422000FCF7D1FC60680090A888727881B2288879
:1042300023686E3080B2FCF7C6FC60680090A888E6
:10424000B27881B2288823687A3080B2FCF7BBFC50
:1042500060680090A888F27881B228882368863048
:1042600080B2FCF7B0FC60680090A888327981B217
:1042700028882368923080B2FCF761FC6068009067
:10428000A888727981B2288823689E3080B2FCF7B2
:104290009AFC60680090A88881B201E007E07EE0A7
:1042A00035F8A8092368AD3080B2572274E0D5F8FC
:1042B000F420B2FBF3F606F0FF0C6E4EE6460A362B
:1042C00086F800C0B2FBF3FC03FB1C23B3FBF1F345
:1042D00073702E23B370B2FBF1F301FB1321B1FB1A
:1042E000F8F1F170B2FBF8F108FB11230A21B3FBDE
:1042F000F1F33371B2FBF1F301FB13217171009003
:10430000B5F8E400534681B235F8E00F72466230EA
:1043100080B2FCF758FC60680090A888727881B27F
:10432000288823686E3080B2FCF74DFC60680090EE
:10433000A888B27881B2288823687A3080B2FCF7E6
:10434000FEFB60680090A888F27881B22888236814
:10435000863080B2FCF737FC60680090A88832791C
:1043600081B228882368923080B2FCF72CFC606808
:104370000090A888727981B2288823689E3080B224
:10438000FCF721FC60680090A888236881B235F8AA
:10439000E0094122AD3080B2FCF7D1FB1EE0344889
:1043A000C16B806B6230E2B32F4E89B20A3606EBE6
:1043B000C20280B25FF00003FDF752F9E86C06EB31
:1043C000C00004F0D0FB8046E86C06EBC00142461A
:1043D00001A804F0BCFBB8F1000F3DDDB9453BD1AD
:1043E0006068C9EBC9060090A84635F8360005EBB1
:1043F000C6054FF06209298901EB810209EB4201F0
:1044000001448AB2A988623001F110039BB289B2DB
:1044100080B2FCF722F9FF231804DFF85CA0032F19
:1044200000E02BE0C4E900302ED0042F7DD0D8F876
:104430004C10012F404676D0002975D00C496A698E
:104440000A3901EB8202A98838F8360089B2623055
:1044500080B20023FDF704F96FF07F402060002058
:104460006060BDE8FF9F0000642A0010200000107B
:10447000142900100830001084260010FE4E89B266
:10448000324680B2012397E70090B8F8AC00454669
:1044900081B2FA4E35F8A80F6230327880B2FCF75C
:1044A00092FB60680090A888727881B2288823689F
:1044B0006E3080B2FCF787FB60680090A888B27805
:1044C00081B2288823687A3080B2FCF77CFB606870
:1044D0000090A888F27881B228882368863080B25C
:1044E000FCF771FB60680090A888327981B2288857
:1044F0002368923080B2FCF722FB60680090A888A5
:10450000727981B235F8A80923689E3080B2FCF731
:104510005AFB9AF8000001289ED12068009035F8D7
:10452000A82F50E001E05DE06CE00090B8F8E400F6
:104530004546D24E81B235F8E00F0A366230327805
:1045400080B2FCF740FB60680090A888727881B266
:10455000288823686E3080B2FCF735FB60680090D5
:10456000A888B27881B2288823687A3080B2FCF7B4
:10457000E6FA60680090A888F27881B228882368FB
:10458000863080B2FCF71FFB60680090A888327903
:1045900081B228882368923080B2FCF714FB6068EF
:1045A0000090A888727981B235F8E00923689E30BE
:1045B00080B2FCF708FB9AF800000128ACD1206813
:1045C000009035F8E02FAE48017801EB410309EB8C
:1045D00083001044725CA98880B289B26368FCF7DA
:1045E000F2FA39E741B1A44A103A02EBC102818FD5
:1045F000B8F8380089B22AE7818F9F4A89B2B8F8A3
:10460000380007E0696938F8360001EB8102A988B3
:104610005A4489B2623080B201231BE72DE9FC4184
:104620004FF6FF710320CDE90001FA234FF4EF723A
:104630001921FDF70FFB934D934C6FF07F46002738
:10464000C5E90067E06C30B30023904A04211846A6
:10465000FDF706F8C5E900675FF00005C5EBC5008A
:1046600004EBC00634F83000B18806F1180289B2B4
:1046700080B20023FCF7F4FF6D1C062DEED3824DB3
:1046800000240C3DE0B26978FFF7F0FC641C062CB6
:10469000F8D3BDE8FC8101237D4A04210020FCF70A
:1046A000DFFFC5E900670025C5EBC50004EBC006C8
:1046B00006F12802B088012381B2208880B2FCF77D
:1046C000CFFF6D1C062DEFD3D9E72DE9F84F064635
:1046D0006C4CDFF8B491C6EBC607606809EBC70500
:1046E0000090298939F8370001EB81024FF0620A06
:1046F0000AEB420101448AB2A988623001F1100339
:104700009BB289B280B2FBF7A8FFFF231804C4E96B
:1047100000300A2142F210724FF47A7C4FF0640E9E
:10472000032E1ED0042E7DD0C4E90003012E7AD0C2
:10473000D9F84C100029696976D0A9F10A0202EB78
:10474000810239F83700A988623089B280B200232B
:10475000FCF786FF6FF07F40206000206060BDE8BE
:10476000F88F494D05F1A807D5F8BC60B6FBF2F506
:1047700005F0FF08414DC34685F80080B6FBF2F80E
:1047800002FB1862B2FBFCF26A70B6FBFCF20CFB97
:10479000126C7246BCFBF2FC85F802C0B6FBFEFC54
:1047A0000EFB1C62B2FBF1F2EA702E222A71B6FBFC
:1047B000F1F201FB126169710090B8884E4681B236
:1047C00036F8A80F5A46623080B2FCF7FCF96068F0
:1047D0000090B8886A7881B2308823686E3080B2E1
:1047E000FCF7F1F960680090B888AA7881B2308847
:1047F00023687A3080B2FCF7E6F960680090B888E8
:10480000EA7881B230882368863080B2FCF7DBF921
:1048100060680090B8882A7981B230882368923025
:1048200080B202E03CE0C9E0CBE0FCF788F96068C8
:104830000090B8886A7981B236F8A80923689E305A
:1048400080B2FCF7C0F913480078012882D12068B3
:1048500000900B48B6F8A820017801EB41030AEB61
:10486000830010446A5C084980B26368B1F8AC10F8
:1048700089B2FCF7A8F90FE07E2A0010083000107A
:104880008E260010200000101429001097B8000098
:10489000BBB70000842600105048514900788BE0D7
:1048A0004E4D0C3505F1E007D5F8F460B6FBF2F596
:1048B00005F0FF084B4DC34685F80080B6FBF2F8C3
:1048C00002FB1862B2FBFCF26A702E22AA70B6FBE1
:1048D000FCF20CFB126C7246BCFBF2FC85F803C0C8
:1048E000B6FBFEFC0EFB1C62B2FBF1F22A71B6FBBA
:1048F000F1F201FB126169710090B8884E4681B2F5
:1049000036F8E00F5A46623080B2FCF75CF9606816
:104910000090B8886A7881B2308823686E3080B29F
:10492000FCF751F960680090B888AA7881B23088A5
:1049300023687A3080B2FCF702F960680090B8888A
:10494000EA7881B230882368863080B2FCF73BF980
:1049500060680090B8882A7981B2308823689230E4
:1049600080B2FCF730F960680090B8886A7981B24B
:1049700036F8E00923689E3080B2FCF724F91A4823
:10498000007801287FF4E6AE206800901748B6F85A
:10499000E020017801EB41030AEB830010446A5CDC
:1049A0000E4980B20C316368B1F8E41089B2FCF7AB
:1049B0000AF90A480E4900780870CBE6FFF72EFE88
:1049C000C8E60C4A01EB810139F837000A44A9888E
:1049D000623089B280B20123BAE6000008290010D3
:1049E0008726001012300010842600108E2600103A
:1049F00088260010642A00102DE9F04F93B0144669
:104A0000894682461D4638225BA168461C9E04F0FA
:104A10006CF804FB05F202EB420204F0030B3632A1
:104A200005FB0B208DF80200020A8DF80320020C12
:104A30008DF804200021000E8DF805008DF814106B
:104A40008DF81240200A8DF815108DF813008DF89E
:104A50001650280A8DF8181011918DF817008DF84E
:104A600019100A223146524802F08DFC514E307026
:104A700028B1082800D0012013B0BDE8F08F4E4BBC
:104A8000362269464A4802F0C2FDB046307000271F
:104A90006BE0A00726462BD058E000BF0AEB0700CA
:104AA00081B209EB060080B2FBF7F7FD010A8DF831
:104AB0003800000C8DF83C108DF840003E4B012270
:104AC00010A93B4802F0A3FD88F800003A4B0122F0
:104AD0000FA9374802F09BFD88F80000364B0122F1
:104AE0000EA9334802F093FD761E88F80000B6B296
:104AF000002ED3D137E000BF0AEB070081B209EBEB
:104B0000060080B2FBF7C9FD010A8DF83800000CE1
:104B10008DF83C108DF84000274B012210A9244845
:104B200002F075FD88F80000234B01220FA92048F0
:104B300002F06DFD88F800001F4B01220EA91C48F1
:104B400002F065FD761E88F80000B6B2002ED3D1C3
:104B5000BBF1000007D00246174B11A9144802F020
:104B600056FD88F800007F1CBFB2AF4291D31048B9
:104B700002F069FE00207FE7424D000000000000C7
:104B800000003600000028000000000000000000C7
:104B900000000100180000000000000000000000FC
:104BA0000000000000000000000000000000000005
:104BB000202C0010F8280010902A0010064880478A
:104BC00006480047FEE7FEE7FEE7FEE7FEE7FEE7F2
:104BD000FEE7FEE7FEE7FEE7FD4C0000E500000013
:104BE000684810B5D0F804114FF00002CB056649B3
:104BF00017D4D0F80C31DC07644B03D0D0F8A041B7
:104C000064061AD5D0F8044104F01F04B3FBF4F491
:104C10000C60D0F8A84104F01F04B3FBF4F44C601E
:104C200032E0D0F88830DB0507D5D0F80C31DB074F
:104C300007D0D0F8A0315B0603D40A604A608A60CE
:104C40002AE0D0F88830514C03F01F035B1C63430B
:104C5000D0F8044104F01F04B3FBF4F30B60D0F868
:104C600088304A4C03F01F035B1C6343D0F8A84113
:104C700004F01F04B3FBF4F34B60D0F88830434CCE
:104C800003F01F035B1C6343D0F8004104F00104F0
:104C9000641CB3FBF4F38B60D0F80831DB05D0F86B
:104CA000083118D513F01F0303D0042B03D0062BB3
:104CB00001D0CA6010BDD0F80C21D0F88820334B49
:104CC00002F01F02521CD0F808015A4300F01F00E6
:104CD000B2FBF0F008E09B05EBD5D0F80C21D20731
:104CE00004D0D0F8A80003E0C86010BDD0F8880058
:104CF000264A00F01F00401C5043F5E7214810B53C
:104D00002121C0F8A01100BFD0F8A0114906FBD5A1
:104D10000121C0F80C110922C0F88420C0F88010CD
:104D2000AA22C0F88C205523C0F88C30D0F88840D7
:104D30006405FBD52324C0F8A440C0F8A010C0F837
:104D4000AC20C0F8AC3000BFD0F8A8205205FBD58D
:104D500040F20112C0F8042140F20122C0F80821FB
:104D6000C0F800110221C0F8A8110949C0F8C41008
:104D70005110C0F8C81145F23A0101600549002000
:104D8000086010BD00C00F40942A0010001BB7003F
:104D9000DE87280408ED00E001460020062905D240
:104DA000DFE801F00305080B0E11AA487047A94877
:104DB00020307047A74840307047A64860307047A1
:104DC000A44880307047A348A030704701460020B7
:104DD000062905D2DFE801F00305080B0E119D48F6
:104DE00070479C48203070479A4840307047994837
:104DF000603070479748803070479648A0307047C1
:104E000001460020052905D2DFE801F00305080B63
:104E10000E00904870478F48203070478D484030D2
:104E200070478C48603070478A488030704770B552
:104E300015460C46FFF7B0FF002805D001680DB1FC
:104E4000214300E0A143016070BD10B50C46FFF79F
:104E5000A3FF002800D0846110BD10B50C46FFF7F9
:104E60009BFF002800D0C46110BD02B1EDE7F4E75C
:104E700010B5FFF791FF002800D0406910BD10B5B4
:104E8000754B50EA020403D0022804D050B10BE065
:104E9000C3F8901010BD12B1012A09D004E0C3F884
:104EA000B01010BD012A00D0FEE7C3F8941010BD69
:104EB000C3F8B41010BD684A10B1022803D0FEE751
:104EC000C2F88C107047C2F8AC107047AFE7BCE76F
:104ED000C3E7CDE7D3E7EEE770B515460C46FFF71D
:104EE0005BFF002805D001690DB1214300E0A1431B
:104EF000016170BD70B51E4614460D46FFF766FF92
:104F000000280BD036B115B14188214305E0018856
:104F1000214306E01DB14188A143418070BD018855
:104F2000A143018070BD70B51E4614460D46FFF7C3
:104F30004DFF00280BD036B115B1418A214305E061
:104F4000018A214306E01DB1418AA143418270BD1F
:104F5000018AA143018270BD70B514460D46FFF76A
:104F600035FF002801D00DB1448370BD048370BDAE
:104F700070B514460D46FFF729FF002801D00DB18A
:104F8000C48370BD848370BD10B50C46FFF71EFF4F
:104F9000002801D00CB1C08A10BD808A10BD70B548
:104FA0001E4615460C46FFF72BFF00280ED036B1E3
:104FB000002C0BD0032C09D8015D294305E0002CFF
:104FC00004D0032C02D8015DA943015570BD70B512
:104FD0001E4615460C46FFF713FF002810D03EB1C1
:104FE000002C0DD0032C0BD82044017C294306E073
:104FF000002C05D0032C03D82044017CA943017464
:1050000070BD70B515460C46FFF7FAFE002805D0B6
:10501000002C03D0032C01D82044057670BD70B558
:1050200015460C46FFF7ECFE002805D0002C03D0F7
:10503000032C01D82044057770BD10B50C46FFF74E
:10504000DFFE28B124B1032C02D82044007D10BD1E
:10505000002010BD00800920008002402F4A30B19E
:10506000012807D0022808D003280AD0FEE7C2F89A
:10507000041104E0C2F8A81101E0C2F80011FFF722
:10508000AFBDD2F8080120F01F00C2F80801D2F825
:1050900008010843C2F80801704730B1012806D062
:1050A000022806D0032806D0FEE71D4804E01D486C
:1050B00002E01D4800E01D4800687047174A0129BA
:1050C00006D0002903D152F8C41F814311607047F4
:1050D00052F8C41F0143F9E710490020C1F8C0008D
:1050E00030BF70471249042008600C490820C1F8FD
:1050F000C00030BF70470E490420086007490920EE
:10510000C1F8C00030BF7047094904200860034956
:105110000320C1F8C00030BF7047000000C00F403E
:10512000942A0010982A00109C2A0010A02A00102F
:1051300010ED00E02DE9FF5F054600200390894651
:105140000120FFF7AAFF0021012602090007CDE98F
:1051500000204FF0FF388B460C468A460F460291DE
:1051600001E0002723E0DDE90013F01900FB09FE50
:10517000A3FB060C01FB06C1002203FB02117246D1
:10518000002303F081FCB0F1004F01D94042491CDB
:105190004A1EB2F5803F09D2404507D25FEA0008B7
:1051A0004FF0000A0C46B346029708D07F1CB74266
:1051B000D9D3B8F1000F02D0761C0F2ED1D954EA02
:1051C0000A0014D0029A00210BEB0203A3FB042770
:1051D00001FB0471009803FB0A1300FB0BF0002194
:1051E00003F052FC814506D9A9EB000005E0002040
:1051F00004B0BDE8F09FA0EB090064214843B0FB78
:10520000F9F0032801D30398F2E7F8488542287B98
:1052100040F0800028734FEA142040EA0A602871A9
:105220002C70287B00F07F0028734FEA0B1006D10A
:105230000299C0B201F00F010843A86205E002998B
:1052400001F00F01084385F8280001200390CFE703
:105250002DE9F0410E460446E549E648E64FE34DA8
:105260008C4202D1012108200AE0AC4204D1012184
:105270001020FFF723FF06E0844204D10121080635
:10528000FFF71CFF04E0BC4202D101214806F7E70A
:10529000072020720020207200E02178217DC907BC
:1052A000FBD1802184F83010217D8906FCD584F85B
:1052B0003000012161602073206284F84C0084F882
:1052C000540084F85000217DAC4202D12074207E2D
:1052D00001E084F8240020463168FFF72BFF207B93
:1052E000717900F0C00029B1012910D0022911D034
:1052F00040F003003179C1B140F00800012914D019
:1053000002290AD003290BD004290ED10BE040F06A
:105310000100EFE740F00200ECE740F0100004E08D
:1053200040F0200001E040F03000B179012901D1C6
:1053300040F004002073BDE8F081AC4A012904D09C
:1053400010F8302F00210170704710F8301F41F025
:105350008001F8E770B504460021FFF7EEFFA44A8C
:10536000A249A448A44D944202D10021082011E092
:105370008C4204D100211020FFF7A0FE05E08442FA
:1053800003D100214FF0807004E0AC4206D100212F
:105390004FF00070BDE87040FFF790BE70BD032174
:1053A00041710021017181717047904A017070470D
:1053B0008E4900787047F0B5012B14460D4607461C
:1053C0004FF000032CD14FF0FF3C15E0664601E0A2
:1053D0002EB3761E387D8006FAD506B3102608E077
:1053E00015F8011B3846FFF7E0FF5B1C641E761EB4
:1053F00002D0002CF4D115E0002CE7D112E0387D6A
:1054000080060FD55FF0100615F8011B3846FFF730
:10541000CCFF5B1C641E761E02D0002CF4D101E090
:10542000002CECD11846F0BDF0B5012B06460C4619
:105430004FF000031DD15F1E0EE03D4601E0D5B1E7
:105440006D1E307DC007FAD0ADB13046FFF7B0FF1A
:10545000521E04F8010B5B1C002AEED10BE0307DDC
:10546000C00708D03046FFF7A3FF521E04F8010B17
:105470005B1C002AF3D11846F0BD5C49017B41F06A
:1054800040010173704710B5072914D2DFE801F01D
:105490000406080A0C0E110001230CE002230AE0A6
:1054A000042308E0082306E0802304E04FF480731F
:1054B00001E04FF400734D49012A05D0884241684C
:1054C00005D140F28F3204E04168194303E040F215
:1054D00007329A431140416010BD4449884201D1CE
:1054E000087D7047007D7047806840F2CF310840EA
:1054F0007047007D400601D50020704701207047AD
:10550000CB78012223B1012B06D0022B06D0C12279
:105510004B78012B04D005E04122F9E78122F7E71F
:1055200042F004020B78012B01D142F0020289788B
:10553000012901D142F0080202F0CF010172704747
:1055400000218170C170012101704170704730B538
:105550000023012A08D10C78012C00D102234978BC
:10556000012901D143F00403204D10240021A84259
:105570000FD1012A0BD1027B42F08002027301702D
:105580000171017B21F08001017384620FE00162EF
:1055900030BD012AFBD1027B42F080020273017010
:1055A0000171017B21F08001017380F8284043F0F4
:1055B0000101ECE70D4A026A0A43026270470129C1
:1055C00007D0002904D110F8241F01F03D0101701B
:1055D000704710F8241F41F00201F8E7012910F884
:1055E000241F0BD001F03E01017070470000014004
:1055F00000C000400080094000C0094041F00101A6
:10560000F2E7CA0010F8241F21F03801114301F01D
:105610003F0141F004010170E7E7002311B10129C6
:1056200003D101E0012300E00223017C012A04D020
:10563000F3229A4311400174D7E71943FBE721B1E4
:10564000012904D0022905D103E0102302E0402300
:1056500000E08023017C012A04D0F3229A43114008
:105660000174C2E71943FBE7007EBEE7CB78002256
:10567000012B0FD14B791022012B00D130220B7955
:10568000012B04D1254B984201D142F00802CB797D
:1056900080F854300B78012B01D142F001028B7855
:1056A000012B04D18B7942F0040280F85030497804
:1056B00009B942F0020280F84C20017B41F0380128
:1056C000017392E7012910F84C1F03D041F0020149
:1056D00001708AE721F00201FAE730B5044663B1B0
:1056E000257B25F01000207301232046FFF763FE81
:1056F000217D4906FCD5257330BD0123FFF75BFEF4
:10570000217D4906FCD530BD03B501231A4601A908
:10571000FFF7E3FF0CBD0023DFE7000000000140BE
:1057200013B501231A4601A9FFF745FE1CBD08B5B4
:1057300000218DF8001001231A466946FFF774FE18
:105740009DF8000008BD70B50C46054603E02846EC
:10575000641CFFF7E5FF2178A129F8D170BD2DE980
:10576000FF4F81B04FF000009A46140088468DF834
:10577000000006D08346B8F1010F05D0B8F1000F44
:1057800004D0CAF800004FE0102600E00A260027E7
:1057900001231A4669460198FFF746FE9DF800006E
:1057A00001463038092827D9B8F1010F03D0B8F1E4
:1057B000000F2CD02FE01026612912D008DCA1F1B7
:1057C0004100062821D2DFE800F00C0E101214165A
:1057D000A1F16200052818D2DFE800F00507090BE7
:1057E0000D000A2008E00B2006E00C2004E00D204C
:1057F00002E00E2000E00F20814601250198FFF70E
:105800008FFF012C14D0012017E0F84900E0F8A127
:105810000198FFF798FF0BF1010BBBF10A0F12D3B0
:10582000FEA10198FFF78FFF002005B0BDE8F08FC3
:10583000012604E07543401CC0B2A042FAD309FB24
:105840000577641EE4B2002CA2D10120CAF80070D2
:10585000EBE72DE9F0411646074600240D46384691
:10586000295DFFF75DFF641CA4B2B442F7D3BDE825
:10587000F08110B50446FFF766FF2046BDE81040F2
:10588000F2A160E770B506460A20B1FBF0F200FB1A
:105890001215B1FBF0F2B2FBF0F300FB132464220B
:1058A000B1FBF2F1B1FBF0F200FB12103030C1B2EB
:1058B0003046FFF735FF3034E1B23046FFF730FFB6
:1058C0003035E9B23046BDE8704029E72DE9F041B6
:1058D00080460A20B1FBF0F200FB1217B1FBF0F298
:1058E000B2FBF0F300FB13266422B1FBF2F2B2FB31
:1058F000F0F300FB13254FF47A72B1FBF2F2B2FB26
:10590000F0F300FB132442F21072B1FBF2F1B1FB91
:10591000F0F200FB12103030C1B24046FFF700FF3A
:105920003034E1B24046FFF7FBFE3035E9B2404685
:10593000FFF7F6FE3036F1B24046FFF7F1FE3037A2
:10594000F9B24046BDE8F041EAE62DE9F34F0A20FE
:10595000B1FBF0F281B000FB12120092B1FBF0F249
:10596000B2FBF0F300FB132B6422B1FBF2F2B2FBAB
:10597000F0F300FB132A4FF47A72B1FBF2F2B2FBA0
:10598000F0F300FB132942F21072B1FBF2F2B2FB0A
:10599000F0F300FB1328AE4AB1FBF2F2B2FBF0F3D6
:1059A00000FB1327AB4AB1FBF2F2B2FBF0F300FBB2
:1059B0001326A94AB1FBF2F2B2FBF0F300FB132568
:1059C000A64AB1FBF2F3B1FBF2F1B3FBF0F4B1FB89
:1059D000F0F200FB143400FB12103030C1B2019819
:1059E000FFF79EFE3034E1B20198FFF799FE3035A3
:1059F000E9B20198FFF794FE3036F1B20198FFF753
:105A00008FFE3037F9B20198FFF78AFE08F13002B5
:105A1000D1B20198FFF784FE09F13002D1B20198AA
:105A2000FFF77EFE0AF13002D1B20198FFF778FE4F
:105A30000BF13002D1B20198FFF772FE009A019883
:105A400003B03032BDE8F04FD1B269E670B50D4613
:105A500006460124A00025FA00F000F00F010929F4
:105A600001D9373100E030313046FFF759FE641E6E
:105A7000E4B2EFD270BD70B50D46064678A1FFF7CF
:105A800062FE0124A00025FA00F000F00F010929B0
:105A900001D9373100E030313046FFF741FE641E56
:105AA000E4B2EFD270BD70B50D4606460324A000E7
:105AB00025FA00F000F00F01092901D9373100E083
:105AC00030313046FFF72CFE641EE4B2EFD270BDD9
:105AD00070B50D46064662A1FFF735FE0324A0000F
