:020000040000FA
:1000000028380010A9020000B1020000B30200006D
:10001000B5020000B7020000B902000000000000B5
:10002000000000000000000000000000BB02000013
:10003000BD02000000000000BF020000F900000047
:10004000C3020000FD03000021040000330400008F
:1000500045040000299D0000C3020000C302000007
:10006000419E0000C3020000C3020000C302000062
:10007000C3020000C3020000C3020000C30200006C
:10008000C3020000C3020000C3020000C30200005C
:10009000C3020000C3020000C3020000C30200004C
:1000A000C3020000C3020000C3020000C30200003C
:1000B000C3020000C3020000C3020000C30200002C
:1000C000C3020000C3020000C3020000C30200001C
:1000D000C3020000C3020000C3020000C30200000C
:1000E000C3020000DFF80CD00BF0BEF80048004758
:1000F0002B0100002838001053480068401C52496A
:1001000008607047504A116800BF4F4A1268521A7F
:100110008242FAD3704702460843704710B504463E
:1001200001210846FFF7F7FF10BD86B0002008F058
:100130001AFE0446002002900390049005904FF4AC
:100140007A70B4FBF0F0411EB1F1807F00D31DE066
:1001500021F07F40401E4FF0E022506150171F22D7
:10016000002807DAD3061E0E384B00F00F052D1FAE
:100170005E5503E0D3061D0E354B1D5400BF002015
:100180004FF0E02290610720106100BF02F01FFCD9
:100190004FF4E13009F033FE06F0CFFB02F082FCB1
:1001A000002000F031FA2B494869002100F065FA7F
:1001B000012000F029FA002002F0DFFB6420FFF7A5
:1001C000A1FF254825494860084640684FF48873D8
:1001D0004FF4F07200210090084600F058FB02F046
:1001E0007FFC40F22620FFF78DFF00201B4948606E
:1001F000084640684FF488734FF4F0720021009075
:10020000084600F044FB01201549087000204870A2
:1002100000F034FB012003F0AFFD14E04FF08061EB
:10022000022008F0F7FB0121084608F0F3FB0C4818
:100230004078122802D11C20FFF764FF15200949DD
:10024000086006F0ABF8E9E70000001018ED00E0E8
:1002500000E400E04400001028483F003C0000108B
:10026000DC2D00105829001070B505460C46A4F18D
:1002700020000B4A02EB0011102228460AF0E1FD93
:1002800070BDA1F1200202EB4202064B03EB820299
:10029000136803605368436092688260704700008F
:1002A000B0CC0000A0D200000648804706480047B6
:1002B000FEE7FEE7FEE7FEE7FEE7FEE7FEE7FEE716
:1002C000FEE7FEE74D880000E5000000D2B201E045
:1002D00000F8012B491EFBD270470022F6E710B54B
:1002E00013460A4604461946FFF7F0FF204610BDA4
:1002F0007047DFEFF7FBFDFE00000000FFFFFFFF90
:10030000F8B902224FF040235A600022DA60B44A62
:1003100012684FF47A73B2FBF3F2521E4A434FF065
:1003200040239A61FF221A6004225A6101225A6016
:1003300000BF4FF04022526802F00102002AF8D1BB
:100340005BE001281CD10222A64B5A600022DA6031
:10035000A34A12684FF47A73B2FBF3F2521E4A4377
:10036000A04B9A61FF221A6004225A6101225A604E
:1003700000BF9C4A526802F00102002AF9D13CE019
:1003800002281CD10222984B5A600022DA60944A5B
:1003900012684FF47A73B2FBF3F2521E4A43924B47
:1003A0009A61FF221A6004225A6101225A6000BF3A
:1003B0008D4A526802F00102002AF9D11DE003289B
:1003C0001BD10222894B5A600022DA60844A1268EB
:1003D0004FF47A73B2FBF3F2521E4A43834B9A6195
:1003E000FF221A6004225A6101225A6000BF7F4A2C
:1003F000526802F00102002AF9D1704710B50AF0E4
:100400006DFC7B480068401C7949086001204FF072
:100410004021086077480068401C7649086010BD9C
:1004200001207049086074480068401C72490860E7
:10043000704701206C49086070480068401C6F4993
:10044000086070470120694908606D480068401CD9
:100450006B490860704720B901214FF0402251607C
:1004600010E0012803D101215E4A51600AE0022810
:1004700003D101215C4A516004E0032802D101212B
:100480005A4A5160704720B900214FF04022516014
:1004900010E0012803D10021524A51600AE00228ED
:1004A00003D10021504A516004E0032802D1002109
:1004B0004D4A51607047014631B94FF040225068B3
:1004C00040F00200506016E0012905D1454A50680D
:1004D00040F0020050600EE0022905D1424A506807
:1004E00040F00200506006E0032904D13F4A506802
:1004F00040F002005060704770B505460C46F5B9F3
:1005000000203C4908603F48006840F002003D4937
:10051000C439C1F8C4004FF04020406840F00200E8
:100520004FF0402148604EF65F20C8600846846165
:1005300003204861012000F048F8012070BD012D22
:1005400014D100202C4908602E48006840F00400B7
:100550002C49C439C1F8C4002248846103202149D0
:100560004861022000F031F80120E7E7022D13D1A5
:100570000020224908602348006840F48000214997
:10058000C439C1F8C4001848846103201649486181
:1005900000F01BF80120D1E7032D14D100201849E9
:1005A00008601848006840F400001649C439C1F8D2
:1005B000C4000E48846103200C494861042000F007
:1005C00004F80120BAE70020B8E700F01F0201217B
:1005D00091404209920002F1E022C2F800117047F6
:1005E000542D0010008000400000094000400940E8
:1005F000A42D00102C00001030000010340000105A
:1006000038000010C4C00F4008B5B0B1F94989697D
:1006100041F00101F74A916142F21071009108E046
:10062000F449896941F40061F24A91610099491ED7
:10063000009100990029F3D115E0EE49896921F470
:100640000061EC4A916142F21071009102E0009960
:10065000491E009100990029F9D1E649896921F0E4
:100660000101E44A916108BDE34A002102E008C8A3
:1006700008C2491C8029FAD370472DE97041804691
:100680000D4600BF2720DD4908614861DC4908604C
:10069000DA49C1F87402DB490860091D0860091DC8
:1006A0000860091D0860D5498861C861D549483985
:1006B0000860091D0860091D0860091D0860091D02
:1006C0000860091D0860CD4908624862CD491831AB
:1006D0000860091D0860CB4930390860091D0860B1
:1006E000091D0860091D0860C64910390860C54920
:1006F000091F0860C3490C390860C049C1F81001DE
:10070000C148006C40F00200BF4908640846806D93
:1007100040F00A008865BD48D0F8C40040F00100F0
:10072000BA49C1F8C400BA48006820F00100B849CD
:1007300008600020AF4988610846806920F00E00FB
:1007400088610846806940F00A008861084680692F
:1007500040F0200088610846806920F080008861B0
:100760000846806920F4807088610846806920F41A
:10077000007088610846806920F4806088610846BE
:10078000806920F400608861A2480068A249B0FB3B
:10079000F1F09E49C1F8B8019648806840F0806049
:1007A000944988600846806820F0200088600846E8
:1007B000806840F4006088600846806840F480509B
:1007C00088600846806820F4005088600846806889
:1007D00020F4804088600846806890490840854938
:1007E0008860084680688E490843824988600020F6
:1007F00008600846006840F01C5008600846006821
:1008000040F4802008600846006840F4807008606A
:100810000846006840F07400086000204860084600
:10082000406840F0006048600846406840F400209E
:1008300048600846406840F4806048600846406868
:1008400040F20F1108436B494860764808614861DF
:1008500015B12846FFF708FF724E002403E04FF45D
:100860007F4001C6641CB4F5FF3FF8D342F2107418
:1008700000E0641E002CFCD1BDE87081694A0021B3
:1008800001E001C2491CB1F5FF3FFAD370472DE9E1
:10089000F0411C46069FC1EB011CDFF8888108EB84
:1008A000CC1C0CEB800300260EE0002501E080C389
:1008B0006D1CA2EB000CAC45F9D8A2EB000CCCF5FA
:1008C000F07C03EB8C03761CA4EB010CB445ECD854
:1008D000BDE8F08110B503461C0444EA012444EA53
:1008E000020010BD2DE9FF4F84B081468A46934631
:1008F000DDE91278119EDDE91445CAEB0A10494979
:1009000001EBC01000EB890001900020029055E03F
:10091000012D02D1301BC6B22EE0022D02D1381BB0
:10092000C7B229E0032D04D1A8EB040000F0FF08B2
:1009300022E0042D04D1301BC6B2381BC7B21BE025
:10094000052D06D1301BC6B2A8EB040000F0FF084D
:1009500012E0062D06D1381BC7B2A8EB040000F048
:10096000FF0809E0072D07D1301BC6B2381BC7B2FC
:10097000A8EB040000F0FF08424639463046FFF776
:10098000A9FF00900020039008E0DDE90001086065
:100990000198001D01900398401C0390ABEB0901E6
:1009A00003988142F1D8ABEB0900C0F5F0710198D2
:1009B00000EB810001900298401C02900798A0EB88
:1009C0000A0102988142A3D808B0BDE8F08F30B583
:1009D000144BB0F5F07F02DAB1F5887F00DB30BD53
:1009E000C1EB011500EB451403EB84031A6000BF53
:1009F000F5E70000008008200082082000C00240C7
:100A000070C2024018C102400080092000C00F409F
:100A1000008C0820542D00109C997400FFFF00FCEE
:100A20000000DF01000001A02DE9F04F80460F46D5
:100A300091469A46DDF824B0A9EB080006B2AAEB6D
:100A4000070005B25EB900BF5A4639464046FFF777
:100A5000BEFF781C87B2BA45F6DABDE8F08F65B9FB
:100A600000BF5A4639464046FFF7B1FF08F1010082
:100A70001FFA80F8C145F4DAEFE7002E74DB002D91
:100A800037DBAE421ADB304606EBD071A5EB6101D5
:100A90000CB210E05A4639464046FFF798FF002C4A
:100AA00003DD781C87B2A01B04B208F101001FFA15
:100AB00080F8601904B2C845ECDDCAE0284605EBB1
:100AC000D071A6EB61010CB210E05A46394640469F
:100AD000FFF77DFF002C05DD08F101001FFA80F80B
:100AE000601B04B2781C87B2A01904B25745ECDD34
:100AF000AFE0684205B2AE421ADB304606EBD07179
:100B0000A5EB61010CB210E05A4639464046FFF7AA
:100B10005EFF002C03DD781E87B2A01B04B208F133
:100B200001001FFA80F8601904B2C845ECDD90E0BE
:100B3000284605EBD071A6EB61010CB210E05A46D5
:100B400039464046FFF743FF002C05DD08F1010060
:100B50001FFA80F8601B04B2781E87B2A01904B295
:100B60005745ECDA75E0FFE7704206B2002D37DB3F
:100B7000AE421ADB304606EBD071A5EB61010CB238
:100B800010E05A4639464046FFF721FF002C03DDAE
:100B9000781C87B2A01B04B2A8F101001FFA80F8EC
:100BA000601904B2C845ECDA53E0284605EBD07171
:100BB000A6EB61010CB210E05A4639464046FFF7F9
:100BC00006FF002C05DDA8F101001FFA80F8601B6C
:100BD00004B2781C87B2A01904B25745ECDD38E0A6
:100BE000684205B2AE421ADB304606EBD071A5EB87
:100BF00061010CB210E05A4639464046FFF7E7FE65
:100C0000002C03DD781E87B2A01B04B2A8F10100FE
:100C10001FFA80F8601904B2C845ECDA19E02846DA
:100C200005EBD071A6EB61010CB210E05A463946D3
:100C30004046FFF7CCFE002C05DDA9F101001FFAAC
:100C400080F9601B04B2781E87B2A01904B2574520
:100C5000ECDA00BF01E72DE9FF4F81B005460E46F3
:100C60009346DDE911495D4504DD0FFA8BF8AB468B
:100C70001FFA88F50498864205DD04980FFA80F87B
:100C800004961FFA88F6ABEB05000FFA80FA049879
:100C9000801B07B2BAF1000F5DD100BFB9F1010F9F
:100CA00004D10E98001BC0B20E9042E0B9F1020FC1
:100CB00004D10F98001BC0B20F903AE0B9F1030FB6
:100CC00004D11098001BC0B2109032E0B9F1040FAB
:100CD00008D10E98001BC0B20E900F98001BC0B236
:100CE0000F9026E0B9F1050F08D10E98001BC0B295
:100CF0000E901098001BC0B210901AE0B9F1060FC8
:100D000008D10F98001BC0B20F901098001BC0B202
:100D100010900EE0B9F1070F0BD10E98001BC0B276
:100D20000E900F98001BC0B20F901098001BC0B21D
:100D300010900EA807C8FFF7CDFD00903146284659
:100D4000009AFFF744FE701C86B20498B042A5DA00
:100D500005B0BDE8F08F7FB900BF0EA807C8FFF748
:100D6000B9FD009031462846009AFFF730FE681C16
:100D700085B2AB45F1DAEBE7BA452FDDCAEB4700A8
:100D80000FFA80F81DE00EA807C8FFF7A3FD00903A
:100D900031462846009AFFF71AFE681C85B2B8F162
:100DA000000F09DD701C86B27800022101FB1A00D9
:100DB00040440FFA80F804E0022000FB07800FFA9D
:100DC00080F85D45DFD10EA807C8FFF783FD0090CE
:100DD00031462846009AFFF7FAFD2FE0C7EB4A009C
:100DE0000FFA80F81DE00EA807C8FFF773FD00900A
:100DF00031462846009AFFF7EAFD701C86B2B8F12A
:100E0000000F09DD681C85B27800022101FB1A0081
:100E100040440FFA80F804E0022000FB07800FFA3C
:100E200080F804988642DED10EA807C8FFF752FD6D
:100E3000009031462846009AFFF7C9FD00BF87E7BA
:100E40002DE9FF5F05460E4690469946DDF838B01D
:100E500041466846FFF708FA00243BE01DF804A06D
:100E6000002716E0C7F107004AFA00F000F0010081
:100E700038B1321991B2EA1990B24A46FFF7A7FD8C
:100E800006E0321991B2EA1990B25A46FFF79FFD77
:100E90007F1C082FE6D3321991B2AA1E90B25A468F
:100EA000FFF795FD321991B26A1E90B25A46FFF7CC
:100EB0008EFD321991B205F1080290B25A46FFF741
:100EC00086FD321991B205F1090290B25A46FFF738
:100ED0007EFD641C102CC1D3BDE8FF9F2DE9F843B3
:100EE00005460E4614461F46DDF8208004F130000A
:100EF000C2B23B4631462846CDF80080FFF7A0FF3E
:100F0000BDE8F8832DE9FF4F87B08346DDE915780A
:100F1000149EDDE9174502A80999FFF7A5F94FF0DE
:100F2000000961E0012D02D1301BC6B22EE0022D76
:100F300002D1381BC7B229E0032D04D1A8EB04006D
:100F400000F0FF0822E0042D04D1301BC6B2381B8C
:100F5000C7B21BE0052D06D1301BC6B2A8EB0400BA
:100F600000F0FF0812E0062D06D1381BC7B2A8EB2F
:100F7000040000F0FF0809E0072D07D1301BC6B2BE
:100F8000381BC7B2A8EB040000F0FF084246394600
:100F90003046FFF79FFC069002A810F80900019068
:100FA0004FF0000A1BE0CAF107010198084100F068
:100FB000010048B1089A4A4491B20BEB0A0290B280
:100FC0000A9AFFF704FD08E0089A4A4491B20BEB35
:100FD0000A0290B2069AFFF7FAFC0AF1010ABAF186
:100FE000080FE0D309F10109B9F1100F9AD30BB042
:100FF000BDE8F08F2DE9FE4F06460F469046994614
:10100000DDF830B041466846FFF73BF900241DE0AB
:101010001DF804A0002516E0C5F107004AFA00F00B
:1010200000F0010038B13A1991B2721990B24A46F3
:10103000FFF7CDFC06E03A1991B2721990B25A4608
:10104000FFF7C5FC6D1C082DE6D3641C0C2CDFD308
:10105000BDE8FE8F2DE9F84305460E461446984636
:10106000DDF8209000BF14F8017B43463A46314634
:101070002846CDF80090FFF7E3FEB5F5EC7F03DAE4
:1010800005F1080085B208E0FF2E04DC002506F11A
:10109000100086B201E00025002620780028E2D169
:1010A000BDE8F8832DE9FF4F074688469B463C463E
:1010B0004546BA4646464FF0000915E0A4F1140132
:1010C00088B22946029AFFF782FC601C84B2A6F11E
:1010D000140081B25046029AFFF779FC701C86B268
:1010E00009F101001FFA80F9B9F1280FE6DB3C464F
:1010F0004546BA4646464FF000092BE0A5F11402DA
:1011000091B2A4F1140290B25A46FFF760FC05F1C7
:10111000140291B2A4F1140290B25A46FFF757FCA0
:10112000601C84B2A6F1140291B2AAF1140290B22A
:101130005A46FFF74CFCA6F1140291B20AF11402D0
:1011400090B25A46FFF743FC701C86B209F10100C9
:101150001FFA80F9B9F10A0FD0DB3C464546BA4682
:1011600046464FF000092BE0A5F1140291B204F1BC
:101170000A0290B25A46FFF72AFC05F1140291B216
:1011800004F10A0290B25A46FFF721FC601C84B2B7
:1011900006F10A0291B2AAF1140290B25A46FFF780
:1011A00016FC06F10A0291B20AF1140290B25A46F4
:1011B000FFF70DFC701C86B209F101001FFA80F9DF
:1011C000B9F10A0FD0DBBDE8FF8F10B50246002150
:1011D00014E0C1EB4110FA4B13F810001378984259
:1011E0000AD15078C1EB4113F54C04EB43035B7813
:1011F000984201D1084610BD481C81B22A29E8D383
:101200000020F8E710B50246002112E001EB811042
:10121000EC4B185C1378984209D1507801EB81139C
:10122000E84C23445B78984201D1084610BD481C25
:1012300081B20929EAD30020F8E710B5024600215F
:1012400014E001EB0110E04B13F810001378984202
:101250000AD1507801EB0113DB4C04EB43035B78BC
:10126000984201D1084610BD481C81B23929E8D303
:101270000020F8E72DE9F04F04460F461546984642
:10128000A3464FF0000900262DE0099810F80690BB
:101290004FF0000A21E009F0800030B1CB48394618
:1012A00002682046FFF793FB05E0C84839464268CC
:1012B0002046FFF78CFB4FEA49604FEA1069601C3B
:1012C00084B2A4EB0B00A84203D15C46781C87B221
:1012D00006E00AF1010000F0FF0ABAF1080FDADBBC
:1012E00000BF701C86B205FB08F0C11700EB5171FE
:1012F000B6EBE10FC9DBBDE8F08F2DE9F84F0646EC
:101300000F4690469946DDE90AAB0024002532E0FD
:101310001AF80540412C15DB5A2C13DCA4F12000EF
:10132000AB49662202FB001005EB450101EBC5014C
:1013300006EB4101009088B24B4642463946FFF722
:1013400099FF16E0612C14DB7A2C12DCA4F120004A
:101350009F49662202FB001005EB450101EBC50128
:1013600006EB4101009088B24B4642463946FFF7F2
:1013700081FF681CC5B25D45CADBBDE8F88F2DE969
:10138000F04F05460E4692469B46A9460027BBF104
:10139000000F34D100242FE00AEB0A108A4901EB38
:1013A0004000801C075D4FF000081FE007F0800040
:1013B00030B18648314602682846FFF708FB05E051
:1013C0008248314642682846FFF701FB7806070E3F
:1013D000681C85B2A5EB0900102803D14D46701C8E
:1013E00086B206E008F1010000F0FF08B8F1080F2E
:1013F000DCDB00BF601CC4B2202CCDDB49E0002444
:1014000011E0724B5A68331999B2AB1E98B2FFF7CC
:10141000DEFA6E4B5A68331999B26B1E98B2FFF719
:10142000D6FA601CC4B2102CEBDB00242FE00AEBD0
:101430000A10654901EB4000801C075D4FF0000871
:101440001FE007F0800030B160483146026828464E
:10145000FFF7BDFA05E05D48314642682846FFF7D0
:10146000B6FA7806070E681C85B2A5EB09001028AD
:1014700003D14D46701C86B206E008F1010000F071
:10148000FF08B8F1080FDCDB00BF601CC4B2202CE1
:10149000CDDBBDE8F08F2DE9F04F05468946924639
:1014A0009B46A8460026BBF1000F31D100242CE05A
:1014B0000AEB8A1043490844801C065D00271FE0A0
:1014C00006F0800030B14148494602682846FFF7DF
:1014D0007EFA05E03D48494642682846FFF777FA1C
:1014E0007006060E681C85B2A5EB0800182805D109
:1014F000454609F101001FFA80F903E0781CC7B2E4
:10150000082FDDDB00BF601CC4B23F2CD0DB30E015
:1015100000242CE00AEB8A102A490844801C065D4E
:1015200000271FE006F0800030B128484946426895
:101530002846FFF74CFA05E0244849460268284649
:10154000FFF745FA7006060E681C85B2A5EB080089
:10155000182805D1454609F101001FFA80F903E07A
:10156000781CC7B2082FDDDB00BF601CC4B23F2C63
:10157000D0DBBDE8F08F2DE9FF4F83B00746DDE9F2
:10158000119ADDF84080DDE913460197524649463D
:101590004046FFF79FF900904FF0000B0698002897
:1015A0007ED100258BE00598C0EB4010044901EB8B
:1015B0004000801C10F805B00020029079E0000087
:1015C000E1BC000006B300004FB500003C00001075
:1015D000600000100BF0800030B1FE480268384611
:1015E0000499FFF7F4F904E03846009A0499FFF7EC
:1015F000EEF94FEA4B604FEA106B781C87B2019806
:10160000381A142851D1012E04D1A8EB040000F09F
:10161000FF083CE0022E04D1A9EB040000F0FF0912
:1016200035E0032E04D1AAEB040000F0FF0A2EE0FF
:10163000042E08D1A8EB040000F0FF08A9EB040079
:1016400000F0FF0923E0052E08D1A8EB040000F00C
:10165000FF08AAEB040000F0FF0A18E0062E08D1EC
:10166000A9EB040000F0FF09AAEB040000F0FF0A58
:101670000DE0072E0BD1A8EB040000F0FF08A9EB4A
:10168000040000F0FF09AAEB040000F0FF0A524634
:1016900049464046FFF71EF90090019F049800E07C
:1016A00011E0401C80B2049006E00298401CC0B2D9
:1016B0000290029808288DDB00BF681CC5B23C2D43
:1016C000FFF671AF39E0002535E00598C0EB40101A
:1016D000C14901EB4000801C10F805B000200290C9
:1016E00023E00BF0800030B1BA48426838460499D4
:1016F000FFF76DF905E0B748026838460499FFF72F
:1017000066F94FEA4B604FEA106B781C87B201987C
:10171000381A142805D1019F0498401C80B2049007
:1017200006E00298401CC0B2029002980828D8DB5C
:1017300000BF681CC5B23C2DC7DB07B0BDE8F08F09
:101740002DE9FF4F83B00746DDE9119ADDF84080AF
:10175000DDE91346524649464046FFF7BBF8019083
:1017600000974FF0000B0698002876D100257FE007
:10177000059800EB0010994901EB4000801C10F81F
:1017800005B0002002906DE00BF0800030B1914870
:10179000026838460499FFF71AF904E03846019ABE
:1017A0000499FFF714F94FEA4B604FEA106B781C6D
:1017B00087B20098381A102850D1012E04D1A8EB16
:1017C000040000F0FF083CE0022E04D1A9EB040065
:1017D00000F0FF0935E0032E04D1AAEB040000F06D
:1017E000FF0A2EE0042E08D1A8EB040000F0FF0849
:1017F000A9EB040000F0FF0923E0052E08D1A8EBB7
:10180000040000F0FF08AAEB040000F0FF0A18E053
:10181000062E08D1A9EB040000F0FF09AAEB040092
:1018200000F0FF0A0DE0072E0BD1A8EB040000F03A
:10183000FF08A9EB040000F0FF09AAEB040000F088
:10184000FF0A524649464046FFF744F80190009F80
:101850000498401C80B2049007E00DE00298401C00
:10186000C0B20290029808288EDB00BF681CC5B287
:10187000202DFFF67DAF39E0002535E0059800EB1F
:101880000010564901EB4000801C10F805B0002004
:10189000029023E00BF0800030B14E484268384699
:1018A0000499FFF794F805E04A480268384604991D
:1018B000FFF78DF84FEA4B604FEA106B781C87B248
:1018C0000098381A102805D1009F0498401C80B257
:1018D000049006E00298401CC0B2029002980828CA
:1018E000D8DB00BF681CC5B2202DC7DB07B0BDE840
:1018F000F08F2DE9FF4F85B004460D46164612AF16
:1019000097E8800F8DE8800F224631462846089BD5
:10191000FFF731FE142009B0BDE8F08F2DE9FF4F2D
:1019200085B004460D46164612AF97E8800F8DE845
:10193000800F224631462846089BFFF701FF122000
:1019400009B0BDE8F08FF0B504460D4616461F46B7
:101950003B46224631462846FFF79DFD1820F0BD44
:10196000F0B504460D4616461F463B462246314614
:101970002846FFF704FD1220F0BD2DE9F843064686
:101980000D4614461F464FF00008C14659E0207826
:1019900000B957E006EB090086B22078802821DDE7
:1019A00006F11800B0F5F07F07DD002605F11600FE
:1019B00085B2B5F5887F00DD00252046FFF722FCC3
:1019C0001FFA80F83B462A4631464046FFF7BBFFE8
:1019D000814605E03C000010E1BC00004FB500006E
:1019E000A41C2DE020780D280AD105F1160085B23F
:1019F000B5F5887F00DD0025641C4FF0000920E06C
:101A000020780A2804D10026641C4FF0000918E051
:101A100006F10C00B0F5F07F07DD002605F10C00A3
:101A200085B2B5F5887F00DD0025F8484068009054
:101A3000F6482278294603683046FFF701FA641C0D
:101A400000BFA4E700BFBDE8F8832DE9FF4F87B0D2
:101A500006460D46144614AF97E8800F0020069006
:101A6000059056E0207800B954E00598304486B2DD
:101A7000207880281CDD06F11400B0F5F07F07DD2A
:101A8000002605F1140085B2B5F5887F00DD00253C
:101A90002046FFF79AFB80B206908DE8800F2A4619
:101AA00031460A9B0698FFF724FF0590A41C2FE0FF
:101AB00020780D280AD105F1100085B2B5F5887F90
:101AC00000DD0025641C0020059022E020780A2813
:101AD00004D10026641C002005901AE006F10800DD
:101AE000B0F5F07F07DD002605F1080085B2B5F5F9
:101AF000887F00DD0025C5488DE8800F22780368C7
:101B0000A81C81B23046FFF7FDF9641C0A2005903D
:101B100000BFA7E700BF0BB0BDE8F08F2DE9F8418B
:101B200005460F46144600262EE0207800B92CE02A
:101B30002078302807DB2078392804DC20783038FA
:101B40001FFA80F80DE020782E2802D14FF00A0805
:101B500007E02078202802D14FF00B0801E04FF079
:101B60000C08C8EBC80000EB8000A94901EB80001D
:101B7000A919009088B2232320223946FFF77AFB67
:101B8000641C06F1200086B2CFE700BFBDE8F881F3
:101B90002DE9F84306460D4614461F464FF000084F
:101BA000C14654E0207800B952E006EB090086B245
:101BB000207880281ADD06F11000B0F5F07F07DDEF
:101BC000002605F1100085B2B5F5887F00DD0025FF
:101BD0002046FFF732FB1FFA80F83B462A46314683
:101BE0004046FFF7BDFE8146A41C2FE020780D285B
:101BF0000AD105F1100085B2B5F5887F00DD00251A
:101C0000641C4FF0000922E020780A2804D1002645
:101C1000641C4FF000091AE006F10800B0F5F07FEF
:101C200007DD002605F1080085B2B5F5887F00DDE7
:101C30000025764840680090744822782946036859
:101C40003046FFF7FDF8641C4FF00A0900BFA9E712
:101C500000BFBDE8F8832DE9FF4F87B006460D466B
:101C6000144614AF97E8800F00200690059055E0C9
:101C7000207800B953E00598304486B22078802857
:101C80001CDD06F11000B0F5F07F07DD002605F140
:101C9000100085B2B5F5887F00DD00252046FFF7EE
:101CA000CCFA80B206908DE8800F2A4631460A9B16
:101CB0000698FFF733FE0590A41C2EE020780D282F
:101CC0000AD105F1100085B2B5F5887F00DD002549
:101CD000641C0020059021E020780A2804D1002609
:101CE000641C0020059019E006F10800B0F5F07FB3
:101CF00007DD002605F1080085B2B5F5887F00DD17
:101D0000002542488DE8800F227829460368304636
:101D1000FFF7F8F8641C0A20059000BFA8E700BF91
:101D20000BB0BDE8F08F2DE9F84306460D4614468A
:101D30001F464FF00008C14654E0207800B952E039
:101D400006EB090086B2207880281ADD06F1100023
:101D5000B0F5F07F07DD002605F1100085B2B5F57E
:101D6000887F00DD00252046FFF767FA1FFA80F81C
:101D70003B462A4631464046FFF7F2FD8146A41C09
:101D80002FE020780D280AD105F1100085B2B5F5B5
:101D9000887F00DD0025641C4FF0000922E02078D8
:101DA0000A2804D10026641C4FF000091AE006F14D
:101DB0000800B0F5F07F07DD002605F1080085B2C8
:101DC000B5F5887F00DD00251048406800900F4879
:101DD0002278294603683046FFF70CF9641C4FF05F
:101DE000080900BFA9E700BFBDE8F883F0B50446C5
:101DF0001D46062A00DD0A2202B90122052900DD5E
:101E00000521914200DD1146002008E03C00001051
:101E100044D900002026294F3E54461CF0B20C281D
:101E2000F8D310460FE00A26B4FBF6F706FB174678
:101E30003036471EDFF884C00CF807600A26B4FB72
:101E4000F6F4461EF0B20028EDDC89B113460846D0
:101E500005E05E1E194FBE5DFE545E1EF3B2061E07
:101E6000A0F10107F8B2F4D12E26144FFE5402E07F
:101E70002026124FBE54A5B900200EE00F4E365C4E
:101E8000302E07D10D4F461CBE5D2E2E02D02026CF
:101E90003E5400E004E0461CF0B2561E8642EDDCE3
:101EA00000BF561CF2B2104604E00026034F3E5419
:101EB000461CF0B20C28F8D3F0BD00003B300010F7
:101EC000F0B585B0002558E007200221A02201923C
:101ED000CDE90221691C01EB41010323C3EB411150
:101EE000009204908AB205EB4501062303EB4110F2
:101EF0002D230321FEF7F6FC00243AE007200221FF
:101F00009E220192CDE9022104F1290305EB450649
:101F1000032707EB4616264400920490B2B2C4F1A0
:101F20000606B1B205EB450607EB46162644B0B2ED
:101F3000FEF791FE072002219E220192CDE90221A7
:101F400004F129036E1C06EB4606C4EB4616761E0A
:101F500000920490B2B2C4F10606B1B26E1C06EB58
:101F60004606C4EB4616761EB0B2FEF774FE601C41
:101F7000C4B2032CC2DB681CC5B2042DA4DB00254F
:101F800058E007200221A0220192CDE90221691C1C
:101F900001EB41010323C3EB4111009204908AB28B
:101FA00005EB4501062303EB41105A233021FEF7D0
:101FB00099FC00243AE0072002219E220192CDE9FB
:101FC000022104F1560305EB4506032707EB4616ED
:101FD000264400920490B2B2C4F13306B1B205EBCC
:101FE000450607EB46162644B0B2FEF734FE07203E
:101FF00002219E220192CDE9022104F156036E1CBA
:1020000006EB4606C4EB4616761E00920490B2B26A
:10201000C4F13306B1B26E1C06EB4606C4EB46169D
:10202000761EB0B2FEF717FE601CC4B2032CC2DBF2
:10203000681CC5B2042DA4DB05B0F0BDF0B585B0B9
:1020400007200221A0220192CDE902212D23009236
:102050000490BD2203210620FEF744FC002427E063
:10206000072002219E220192CDE9022104F12903D9
:1020700000920490E21CC4F10606B1B2E01CFEF727
:10208000EAFD072002219E220192CDE9022104F1FE
:102090002903C4F1BF0600920490B2B2C4F106064F
:1020A000B1B2C4F1BF06B0B2FEF7D5FD601CC4B238
:1020B000032CD5DB00255CE007200221A022019241
:1020C000CDE90221E91C01EB41010323C3EB4111DE
:1020D000009204908AB2A91C01EB410103EB41116B
:1020E000C91C88B22D230321FEF7FCFB00243CE031
:1020F000072002219E220192CDE9022104F1290349
:10210000AE1C06EB4606032707EB46162644009254
:102110000490B2B2C4F10606B1B2AE1C06EB46069C
:1021200007EB46162644B0B2FEF795FD07200221C4
:102130009E220192CDE9022104F12903EE1C06EB57
:102140004606C4EB4616761E00920490B2B2C4F165
:102150000606B1B2EE1C06EB4606C4EB4616761E2A
:10216000B0B2FEF778FD601CC4B2032CC0DB681C63
:10217000C5B2022DA0DB00254EE007200221A022DF
:102180000192CDE90221691C0323C3EBC111009226
:1021900004908AB203EBC511C91C88B25A233021BE
:1021A000FEF7A0FB002433E0072002219E220192CB
:1021B000CDE9022104F15603032606EBC516264499
:1021C00000920490B2B2C4F13306B1B2032606EB1A
:1021D000C5162644B0B2FEF73EFD072002219E221E
:1021E0000192CDE9022104F156036E1CC4EBC61620
:1021F000761E00920490B2B2C4F13306B1B26E1CE6
:10220000C4EBC616761EB0B2FEF725FD601CC4B244
:10221000032CC9DB681CC5B2032DAEDB05B0F0BDD5
:102220002DE9F84305460E4617469846DDE908496C
:10223000391B491C8AB22919491E88B233463146D6
:10224000CDF80090FEF7F0FB391B491C8AB2291922
:10225000491E88B243464146CDF80090FEF7E4FBA4
:10226000A8EB0400801C83B23019801E81B22A467C
:102270002846CDF80090FEF7D7FBA8EB0400801CA1
:1022800083B23019801E81B23A463846CDF80090AC
:10229000FEF7CAFBBDE8F8832DE9FC4705460E466C
:1022A00017469846DDE90A9A43463A46314628469B
:1022B000CDE9009AFFF7B4FF09F10200C0B208F1BE
:1022C000010C1FFA8CF307F1010C1FFA8CF2A6F136
:1022D000010C1FFA8CF1A5F1010CCDE9000A1FFADF
:1022E0008CF0FFF79DFF012465E0321991B26A1C62
:1022F00090B25246FEF76BFB3219521E91B2AA1CE5
:1023000090B25246FEF763FB3219921E91B2EA1C5C
:1023100090B25246FEF75BFB321991B27A1E90B230
:102320005246FEF754FB3219521E91B2BA1E90B2B9
:102330005246FEF74CFB3219921E91B2FA1E90B231
:102340005246FEF744FB08EB0402121F91B26A1CCE
:1023500090B25246FEF73BFB08EB0402D21E91B24C
:10236000AA1C90B25246FEF732FB08EB0402921E02
:1023700091B2EA1C90B25246FEF729FB08EB040228
:10238000121F91B27A1E90B25246FEF720FB08EB64
:102390000402D21E91B2BA1E90B25246FEF717FB4B
:1023A00008EB0402921E91B2FA1E90B25246FEF75A
:1023B0000EFB601CC4B24C4597DBBDE8FC87F8B54A
:1023C00005460C4616461F46A81982B223462146EA
:1023D00028460097FEF728FBA81982B2631C611CEF
:1023E00028460097FEF720FBF8BDF8B504460D46D9
:1023F00016461F46A01982B22B4629462046009752
:10240000FEF712FBA81983B2621C2946601C0097D4
:10241000FEF70AFBA81983B2A21C2946A01C00974C
:10242000FEF702FBF8BD30B5FD4A00210DE004784F
:102430002404457844EA0524857844EA050342F8F3
:102440000439401C401C401C491CB1F5FF3FEED331
:1024500030BD38B5F34991F8510000EBD071491007
:10246000A0EB4101CAB2EF4981F8512091F859001F
:1024700000EBD0714910A0EB4101CAB2E94981F8E3
:10248000592091F85A00C11700EB5171C910A0EB07
:10249000C101CAB2E34981F85A2091F8580000EB13
:1024A000D0714910A0EB4101CAB2DE4981F8582031
:1024B000DD4890F88400DD490870DB4890F84C0056
:1024C0008870D94890F824034872D748007D8872F4
:1024D000D748007D4870D64890F84C00C872D44860
:1024E00090F884000873D04890F8BC00C870CE48BB
:1024F00090F8F4000871CC4890F82C014871CA4853
:1025000090F864018871C84890F8D401C871C64831
:1025100090F80C024873C44890F87C020872C248D4
:1025200090F844028873C04890F89C01C873BE4874
:10253000D0F8EC12BD484165BB48D0F8B412BB4896
:1025400001660446DC200023224619460090184606
:1025500007F0F1FC38BD38B5B44DDC2000232A4625
:1025600019460090184607F05DFD002410E004EBCA
:10257000C400C0EB841015F82000322806DD0020CE
:1025800004EBC401C1EB841105F82100601CC4B246
:102590000C2CECDBA5480178A348C0F88410A349B3
:1025A000487800EBD0714910A0EB41019F4A51706F
:1025B000104641789B4880F851101146487A00EB4C
:1025C000D0714910A0EB410151721046417A9648F2
:1025D000C0F824131146887AC11700EB5171C91055
:1025E000A0EBC10191721046807A8F494861114673
:1025F0008878C11700EB91718910A0EB810191706F
:10260000104681788848C1641146487800EBD07143
:102610004910A0EB4101517010464078844948614F
:102620001046C07A052190FBF1F201FB12007F49B0
:10263000C8720846C17A7E48C1647C49087BC117CC
:1026400000EB5171C910A0EBC101784A117310461B
:10265000017B7748C0F884101146C87800EBD07130
:102660004910A0EB4101D1701046C1786E48C0F806
:10267000BC101146087900EBD0714910A0EB410164
:102680001171104601796848C0F8F4101146487974
:1026900000EBD0714910A0EB410151711046417916
:1026A0006148C0F82C111146887900EBD0714910AF
:1026B000A0EB41019171104681795B48C0F864112B
:1026C0001146C87900EBD0714910A0EB4101D171DE
:1026D0001046C1795448C0F8D4111146487B00EB2C
:1026E000D0714910A0EB410151731046417B4E4817
:1026F000C0F80C121146087A00EBD0714910A0EB1B
:10270000410111721046017A4748C0F87C12114607
:10271000887B00EBD0714910A0EB4101917310460A
:10272000817B4148C0F844121146C87B00EBD07150
:102730004910A0EB4101D1731046C17B3A48C0F863
:102740009C11002413E004EB44013648A03000EB58
:10275000810040683749884207D9002104EB4402D0
:102760003048A03000EB82004160601CC4B2032CF2
:10277000E9DB2E48416D2C48C0F8EC122B48016E65
:102780002948C0F8B41238BD08B52B48162370226A
:10279000002100900846FEF77AF808BD38B50024FD
:1027A0003BE0062C1BD26FF07F400090601C00EBDA
:1027B000400202EBC0001A2202EB4000801E83B2EE
:1027C000601C00EB400202EBC0001A2202EB40004A
:1027D000801E81B2BE225F20FEF726F91CE06FF05A
:1027E0007F400090601F00EB400202EBC0001A2205
:1027F00002EB4000801E83B2601F00EB400202EB40
:10280000C0001A2202EB4000801E81B24FF4DC723D
:1028100040F25910FEF708F9641C0C2CC1D338BDE6
:1028200000F808A0102E001060290010EC2E0010F7
:10283000FC260010A0860100F352030010B500240E
:1028400019E0062C0AD2162204FB02F000F11A014C
:1028500000232DA25420FFF79BF90AE0A01F1622A7
:1028600050431A3081B2002327A24FF4A770FFF71C
:102870008FF9601CC4B20C2CE3D310BD10B56FF0FF
:102880007F402249086022484860002321A2F221AB
:102890005320FFF77DF910BD10B56FF07F401B4945
:1028A00008600020486000231D4A04211846FFF7F5
:1028B0006FF9002421E0062C0FD204EB440000EB5A
:1028C000C400184BC218162304FB03F01A3081B25F
:1028D00000231846FFF75CF90EE004EB440000EB20
:1028E000C400104BC218A01F162358431A3081B2DF
:1028F0000023FA20FFF74CF9641C0C2CDBD3FFF704
:102900009DFFFFF74BFF10BD3A0000003C00001098
:10291000380031004D65617320536574000000007C
:1029200010F800004CF8000010B50122910210468A
:1029300006F052F801220221104606F04DF800225E
:102940004FF08071104606F047F800224FF00071FA
:10295000104606F041F801229106022006F03CF8EC
:1029600001221146104606F037F810BD002001E0A4
:10297000411EC8B20628FBDB704770B50446022131
:10298000012006F047F8254600261DE005F08000EE
:10299000802804D1C100012006F032F804E04FF491
:1029A0008061012006F036F80221012006F028F8A7
:1029B000FFF7DCFF0221012006F02CF8FFF7D6FF1D
:1029C0006806050E701CC6B2082EDFDB70BD10B5A0
:1029D000FFF7AAFFFF20FFF7D0FF10BD002001E0A6
:1029E000411CC8B23228FBDB70472DE9F041FF27BC
:1029F000FF260020FFF7C1FF0225FFF7EFFF0020B1
:102A000006F021F800F0007000B90025002006F063
:102A10001AF800F0807000B90125022D31DA002487
:102A200029E04FF40071012005F0F4FF2749085D0B
:102A3000FFF7A3FF4FF40071012005F0E1FFFFF75E
:102A4000CDFF15B1012D10D107E0002005F0FBFFEF
:102A500000F0007000B9264607E0002005F0F3FF03
:102A600000F0807000B9264600BF00BFFF2E00D0E6
:102A700003E0601CC4B2062CD3DB00BF06EBC5002C
:102A8000C7B23846BDE8F08110B500BFFFF7ADFF13
:102A90000446FF2CFAD100BFFFF7A7FF0446FF2C26
:102AA000FAD110BD10B501221103002005F094FFEA
:102AB0004FF48051002005F0A3FF0820FDF722FB12
:102AC0004FF48051002005F0A5FF10BDF202000078
:102AD000002102E000BF421CD0B28142FADB704705
:102AE00010B50020FE49087007F0EEF9FFF733FD3E
:102AF000FC48FFF798FCFC48D0F88400FF2803D17D
:102B00000121F948C0F8841010BD0120F749087070
:102B1000F7490870F748007890B9F748007838B15D
:102B2000F5480078012803D0F3480078022803D143
:102B30000620F249087029E00320F049087025E0DA
:102B4000EC480078042821D1EB480078022804D012
:102B50000C280CD00D2814D10EE0E9480078E74984
:102B6000087008460078801EE64908700DE0E648C7
:102B70000078E249087008E0E4480078DF4908700E
:102B800003E00620DD49087000BF00BF704703B5B1
:102B900085B0D948007838B1D7480078012803D0EB
:102BA000D5480078022836D1D94840680090059869
:102BB000C0EBC000D74931F830003F300599C1EB78
:102BC000C101D44A02EBC101098901EB810100EB8B
:102BD000410080B203900598C0EBC001104600EBA5
:102BE000C1008088103080B204900598C0EBC0000E
:102BF000114601EBC000808880B202900598C0EBBE
:102C0000C00031F830003F3080B2019002A90EC9F7
:102C1000FDF73DFE34E0BE48406800900598C0EBEB
:102C2000C000BC4931F8300030300599C1EBC1011A
:102C3000B84A02EBC101098901EB810100EB4100B7
:102C400080B203900598C0EBC000114601EBC000B4
:102C50008088103080B204900598C0EBC00001EB72
:102C6000C000808880B202900598C0EBC00031F8A7
:102C70003000303080B2019002A90EC9FDF707FE86
:102C8000FF20A349086000044860059804287DD10E
:102C9000A14801680598C0EBC0009E4A02EBC00045
:102CA00041610598C0EBC000114601EBC0004069CE
:102CB00042F21071B0FBF1F0984908702E20487074
:102CC0000598C0EBC000114601EBC000406942F21C
:102CD0001071B0FBF1F201FB12004FF47A71B0FBFE
:102CE000F1F08E4988700598C0EBC000894901EB6E
:102CF000C00040694FF47A71B0FBF1F201FB1200A1
:102D00006421B0FBF1F08549C8700598C0EBC000A4
:102D1000804901EBC00040696421B0FBF1F201FB86
:102D200012000A21B0FBF1F07C4908710598C0EB54
:102D3000C000784901EBC00040690A21B0FBF1F204
:102D400001FB120075494871714840680090704855
:102D5000006804900846007803900598C0EBC00016
:102D60006C4901EBC000808880B202900598C0EBEE
:102D7000C00031F83000303080B2019002A90EC995
:102D8000FEF7ACF862484068009000E0E1E060487F
:102D9000006804906148407803900598C0EBC0003B
:102DA0005C4901EBC000808880B202900598C0EBBE
:102DB000C00031F830003C3080B2019002A90EC949
:102DC000FEF73EF852484068009051480068049071
:102DD0005248807803900598C0EBC0004D4901EB44
:102DE000C000808880B202900598C0EBC0014948BD
:102DF00030F83100483080B2019002A90EC9FEF7C8
:102E00006DF843484068009041480068049043488A
:102E1000C07803900598C0EBC0003E4901EBC000AC
:102E2000808880B202900598C0EBC00031F8300075
:102E3000543080B2019002A90EC9FEF74FF8344811
:102E4000406800903248006804903448007903904C
:102E50000598C0EBC0002F4901EBC000808880B20C
:102E600002900598C0EBC00031F83000603080B2AD
:102E7000019002A90EC9FEF731F82548406800907C
:102E80002348006804902548407903900598C0EBDA
:102E9000C000204901EBC000808880B202900598F4
:102EA000C0EBC00031F830006C3080B2019002A954
:102EB0000EC9FEF713F80D480078012848D11448D0
:102EC000006800900598C0EBC000124951F830002E
:102ED00030300C4909780C2202FB010080B21FE05F
:102EE00056290010D0F8000060290010A326001019
:102EF000F8260010A42600104F2D00105F290010A6
:102F0000FB260010A5260010F9260010FA26001056
:102F10003C000010FC2600102C290010B0260010E8
:102F20000190FE4840680490FD48FE490978405CE5
:102F300003900598C0EBC000FB4901EBC0008088FE
:102F400080B202900146DDE903230198FDF7C6FF38
:102F500098E1059806287DD1F44801680598C0EBF2
:102F6000C000F14A02EBC00041610598C0EBC0000F
:102F7000114601EBC000406942F21071B0FBF1F064
:102F8000EB4908700598C0EBC000114601EBC0008A
:102F9000406942F21071B0FBF1F201FB12004FF4F4
:102FA0007A71B0FBF1F0E24948702E2088700598E4
:102FB000C0EBC000DC4901EBC00040694FF47A71FE
:102FC000B0FBF1F201FB12006421B0FBF1F0D84933
:102FD000C8700598C0EBC000D34901EBC000406940
:102FE0006421B0FBF1F201FB12000A21B0FBF1F009
:102FF000CF4908710598C0EBC000CB4901EBC00078
:1030000040690A21B0FBF1F201FB1200C849487186
:10301000C24840680090C1480068049008460078A3
:1030200003900598C0EBC000BF4901EBC000808849
:1030300080B202900598C0EBC00031F8300030300B
:1030400080B2019002A90EC9FDF748FFB34840685D
:10305000009000E0C1E0B14800680490B4484078B6
:1030600003900598C0EBC000AF4901EBC000808819
:1030700080B202900598C0EBC00031F830003C30BF
:1030800080B2019002A90EC9FDF728FFA34840684D
:103090000090A24800680490A548807803900598A5
:1030A000C0EBC000A04901EBC000808880B2029054
:1030B0000598C0EBC0019C4830F83100483080B220
:1030C000019002A90EC9FDF7BBFE9448406800902C
:1030D0009248006804909648C07803900598C0EB29
:1030E000C000914901EBC000808880B20290059831
:1030F000C0EBC00031F83000543080B2019002A91A
:103100000EC9FDF7EBFE85484068009083480068D3
:1031100004908748007903900598C0EBC00082496D
:1031200001EBC000808880B202900598C0EBC0011E
:103130007D4830F83100603080B2019002A90EC99C
:10314000FDF7CCFE75484068009074480068049014
:103150007748407903900598C0EBC000724901EBB5
:10316000C000808880B202900598C0EBC00031F8A2
:1031700030006C3080B2019002A90EC9FDF7AEFE9E
:103180006C48007801287DD164480068009005985B
:10319000C0EBC000644951F8300030306149097813
:1031A0000C2202FB010080B201905C484068049050
:1031B0005F485C490978405C03900598C0EBC0010A
:1031C000594800EBC100808880B202900146DDE9D9
:1031D00003230198FDF782FEBAE6059803287DD106
:1031E000554801680598C0EBC0004F4A02EBC0008B
:1031F00041610598C0EBC000114601EBC000406979
:1032000042F21071B0FBF1F04C4908702E2048706A
:103210000598C0EBC000114601EBC000406942F2C6
:103220001071B0FBF1F201FB12004FF47A71B0FBA8
:10323000F1F0424988700598C0EBC0003A4901EBB3
:10324000C00040694FF47A71B0FBF1F201FB12004B
:103250006421B0FBF1F03949C8700598C0EBC0009B
:10326000314901EBC00040696421B0FBF1F201FB80
:1032700012000A21B0FBF1F0304908710598C0EB4B
:10328000C00000E0FFE0284901EBC00040690A21CE
:10329000B0FBF1F201FB1200284948711F48406859
:1032A00000901E4800680490084600780390059836
:1032B000C0EBC0001C4901EBC000808880B20290C6
:1032C0000598C0EBC00031F83000303080B201907A
:1032D00002A90EC9FDF702FE104800E0D4E04068E4
:1032E00000900E48006804901448407803900598B8
:1032F000C0EBC0000C4901EBC000808880B2029096
:103300000598C0EBC00031F830003C3080B201902D
:1033100002A90EC9FDF794FD004811E03C00001021
:10332000B0260010A5260010FC2600102829001049
:10333000BC260010A326001030290010B62600106D
:1033400040680090FE4800680490FE488078039032
:103350000598C0EBC000FC4901EBC000808880B23A
:1033600002900598C0EBC00031F83000483080B2C0
:10337000019002A90EC9FDF7B1FDF1484068009027
:10338000EF4800680490EF48C07803900598C0EBC0
:10339000C000ED4901EBC000808880B20290059822
:1033A000C0EBC00031F83000543080B2019002A967
:1033B0000EC9FDF793FDE24840680090E0480068C0
:1033C0000490E048007903900598C0EBC000DE4906
:1033D00001EBC000808880B202900598C0EBC0006D
:1033E00031F83000603080B2019002A90EC9FDF7BB
:1033F00075FDD34840680090D14800680490D148DA
:10340000407903900598C0EBC000CF4901EBC000A4
:10341000808880B202900598C0EBC00031F830007F
:103420006C3080B2019002A90EC9FDF757FDC74864
:103430000078012827D1C248006800900598C0EBA9
:10344000C000C14951F830003030C14909780C2220
:1034500002FB010080B20190B94840680490B9486D
:10346000BB490978405C03900598C0EBC001B648A1
:1034700000EBC100808880B202900146DDE90323A1
:103480000198FDF72BFD42E1059805287ED1B14852
:1034900001680598C0EBC000AB4A02EBC000416177
:1034A0000598C0EBC000114601EBC000406942F234
:1034B0001071B0FBF1F0A84908702E2048700598F3
:1034C000C0EBC000114601EBC000406942F2107130
:1034D000B0FBF1F201FB12004FF47A71B0FBF1F096
:1034E0009D4988700598C0EBC000974901EBC0006A
:1034F00040694FF47A71B0FBF1F201FB12006421D4
:10350000B0FBF1F09449C8700598C0EBC0008E493B
:1035100001EBC00040696421B0FBF1F201FB120035
:103520000A21B0FBF1F08C4908710598C0EBC0008E
:10353000854901EBC00040690A21B0FBF1F201FBB3
:103540001200854948717E48406800907C480068B8
:1035500004900846007803900598C0EBC0017A48B3
:1035600000EBC100808880B202900598C0EBC001DA
:10357000754830F83100303080B2019002A90EC990
:10358000FDF7ACFC6E484068009000E0C0E06C487D
:10359000006804907048407803900598C0EBC00024
:1035A000694901EBC000808880B202900598C0EBA9
:1035B000C00031F830003C3080B2019002A90EC941
:1035C000FDF73EFC5E48406800905D48006804904E
:1035D0006148807803900598C0EBC0015A4800EB21
:1035E000C100808880B202900598C0EBC0005649A7
:1035F00031F83000483080B2019002A90EC9FDF7C1
:103600006DFC4F48406800904D4800680490524857
:10361000C07803900598C0EBC0004B4901EBC00097
:10362000808880B202900598C0EBC00031F830006D
:10363000543080B2019002A90EC9FDF74FFC4048FA
:10364000406800903E480068049043480079039029
:103650000598C0EBC0003C4901EBC000808880B2F7
:1036600002900598C0EBC00031F83000603080B2A5
:10367000019002A90EC9FDF731FC31484068009065
:103680002F48006804903448407903900598C0EBB7
:10369000C0002D4901EBC000808880B202900598DF
:1036A000C0EBC00031F830006C3080B2019002A94C
:1036B0000EC9FDF713FC25480078012827D12048C2
:1036C000006800900598C0EBC0001F4951F8300019
:1036D00030301F4909780C2202FB010080B20190B2
:1036E0001748406804901C4819490978405C0390C9
:1036F0000598C0EBC000144901EBC000808880B27F
:1037000002900146DDE903230198FDF7E7FB2BE377
:10371000059808287ED1114801680598C0EBC000C3
:10372000094A02EBC00041610598C0EBC000114698
:1037300001EBC000406942F21071B0FBF1F00FE004
:103740003C000010B6260010FC260010A326001036
:10375000A526001038290010C226001040290010AC
:10376000FE4908700598C0EBC000114601EBC0008F
:10377000406942F21071B0FBF1F201FB12004FF40C
:103780007A71B0FBF1F0F54948702E2088700598E9
:10379000C0EBC000F24901EBC00040694FF47A7100
:1037A000B0FBF1F201FB12006421B0FBF1F0EB4938
:1037B000C8700598C0EBC000E94901EBC000406942
:1037C0006421B0FBF1F201FB12000A21B0FBF1F021
:1037D000E24908710598C0EBC000E14901EBC00067
:1037E00040690A21B0FBF1F201FB1200DB4948718C
:1037F000DC4840680090DB48006804900846007888
:1038000003900598C0EBC000D54901EBC00080884B
:1038100080B200E0D3E002900598C0EBC00031F820
:103820003000303080B2019002A90EC9FDF756FB7E
:10383000CC4840680090CB4800680490C748407866
:1038400003900598C0EBC001C54800EBC10080881B
:1038500080B202900598C0EBC000C14931F8300039
:103860003C3080B2019002A90EC9FDF737FBBD487C
:1038700040680090BB4800680490B8488078039086
:103880000598C0EBC001B64800EBC100808880B24B
:1038900002900598C0EBC000B14931F830004830C3
:1038A00080B2019002A90EC9FDF7CAFAAD4840687E
:1038B0000090AC4800680490A848C0780390059830
:1038C000C0EBC000A64901EBC000808880B2029026
:1038D0000598C0EBC00031F83000543080B2019040
:1038E00002A90EC9FDF7FAFA9E48406800909D486B
:1038F000006804909948007903900598C0EBC001D6
:10390000974800EBC100808880B202900598C0EB18
:10391000C001934830F83100603080B2019002A9B4
:103920000EC9FDF7DBFA8F48406800908D480068AB
:1039300004908A48407903900598C0EBC0008849FC
:1039400001EBC000808880B202900598C0EBC001F6
:10395000834830F831006C3080B2019002A90EC962
:10396000FDF7BCFA80480078012827D17D4800681F
:1039700000900598C0EBC000794951F83000303014
:103980007A4909780C2202FB010080B20190754847
:1039900040680490714875490978405C0390059827
:1039A000C0EBC0006E4901EBC000808880B202907D
:1039B0000146DDE903230198FDF790FAD4E105986B
:1039C00007287DD16A4801680598C0EBC000644AA9
:1039D00002EBC00041610598C0EBC000114601EB4D
:1039E000C000406942F21071B0FBF1F0614908700B
:1039F0000598C0EBC000114601EBC000406942F2DF
:103A00001071B0FBF1F201FB12004FF47A71B0FBC0
:103A1000F1F0584948702E2088700598C0EBC0001E
:103A20004F4901EBC00040694FF47A71B0FBF1F2ED
:103A300001FB12006421B0FBF1F04E49C8700598FB
:103A4000C0EBC000464901EBC00040696421B0FBF7
:103A5000F1F201FB12000A21B0FBF1F045490871B7
:103A60000598C0EBC0003E4901EBC00040690A2147
:103A7000B0FBF1F201FB12003E4948713948406841
:103A80000090384800680490084600780390059834
:103A9000C0EBC000324901EBC000808880B20290C8
:103AA0000598C0EBC00031F83000303080B2019092
:103AB00002A90EC9FDF712FA2A484068009000E0FA
:103AC000CFE02848006804902A4840780390059881
:103AD000C0EBC000224901EBC000808880B2029098
:103AE0000598C0EBC00031F830003C3080B2019046
:103AF00002A90EC9FDF7F2F91A484068009019486A
:103B0000006804901B48807803900598C0EBC001C2
:103B1000134800EBC100808880B202900598C0EB8A
:103B2000C0000F4931F83000483080B2019002A93E
:103B30000EC9FDF785F90B484068009009480068F8
:103B400004900C48C07803900598C0EBC00004496D
:103B500001EBC000808880B202900DE0CE260010FC
:103B6000FC2600103C000010A3260010A526001023
:103B70003C290010C82600100598C0EBC00031F8A1
:103B80003000543080B2019002A90EC9FDF7A6F9A9
:103B9000FE4840680090FD4800680490FC480079A9
:103BA00003900598C0EBC000FA4901EBC000808883
:103BB00080B202900598C0EBC00031F83000603050
:103BC00080B2019002A90EC9FDF788F9EF4840685C
:103BD0000090EE4800680490ED4840790390059805
:103BE000C0EBC000EB4901EBC000808880B20290BE
:103BF0000598C0EBC00031F830006C3080B2019005
:103C000002A90EC9FDF76AF9E3480078012827D117
:103C1000DE48006800900598C0EBC000DD4951F80F
:103C200030003030DD4909780C2202FB010080B2FF
:103C30000190D6484068D6490490D8480078085C7E
:103C400003900598C0EBC001D24800EBC10080880A
:103C500080B202900146DDE903230198FDF73EF9A9
:103C600082E0059840BB4FF47F00C8490860FF2000
:103C700048600598C0EBC000C64901EBC000406930
:103C8000C74901EB800004900598C0EBC000C14912
:103C900001EBC000808880B203900598C0EBC001A2
:103CA000BC4830F831003F3080B200230290DDE99B
:103CB0000312FDF76DFF57E00598012829D14FF455
:103CC0007F00B2490860FF2048600598C0EBC00043
:103CD000B04901EBC0004069C0EBC000B1490844E5
:103CE00004900598C0EBC000AA4901EBC000808891
:103CF00080B203900598C0EBC001A64830F83100AF
:103D00003F3080B200230290DDE90312FDF740FF4F
:103D10002AE00598022827D14FF47F009B490860CC
:103D2000FF2048600598C0EBC0009A4901EBC00035
:103D30004069C0EBC0009C49084404900598C0EB62
:103D4000C000944901EBC000808880B203900598C0
:103D5000C0EBC00031F830003F3080B20023029049
:103D6000DDE90312FDF714FF6FF07F40874908601B
:103D70000020486007B000BD2DE9F04F89B005462E
:103D80008A4903C9CDE9060189A103C9CDE9040126
:103D900000266FF07F407D490860002048604FF6A4
:103DA000FF7003214FF486734FF4EF72CDE90010DA
:103DB00019210320FEF770FA4FF47F434FF4A172EC
:103DC0004A219B20FEF7FBFA7B4B4FF4A1727B212B
:103DD0009B20FEF7F4FA4FF0FF134FF4A172AC21D1
:103DE0009B20FEF7ECFA754B4FF4A172DD219B206E
:103DF000FEF7E5FA4FF6FF73F22219219820FEF73D
:103E0000F4FA4FF6FF7396227B210320FEF7D7FAD0
:103E10006B48D0F8640130B900236A4A042118467F
:103E2000FDF7B6FE05E00023674A04211846FDF7BA
:103E3000AFFE6FF07F4055490860002632E06048D1
:103E4000D0F86401B0B9C6EBC603DFF848C10CEB8B
:103E5000C30303F12802C6EBC6030CEBC3039B8824
:103E600099B2C6EBC6033CF8333098B20123FDF794
:103E70008FFE15E0C6EBC603DFF818C10CEBC303D9
:103E800003F11802C6EBC6030CEBC3039B8899B27F
:103E9000C6EBC6033CF8333098B20023FDF778FE3A
:103EA000701CC6B2022ECADD4FF6FF70374908609B
:103EB000464822231822212100909F20FDF7DAF99D
:103EC0000023374A3421B920FDF762FE40482223FF
:103ED000182221210090D720FDF7CCF93B4866300D
:103EE000222318222121009040F2C510FDF7C2F9CB
:103EF0003848407D10B1002036494875012D73D1F6
:103F00003448407F3449C8703248807F88703148D7
:103F1000007F48702F48C07E0870086807F0D3F80B
:103F20004FF066322D4BCDE9000107F02DF8CDE9B9
:103F3000020107F0AFF8044627490868284907F04E
:103F4000D5F800D200242748844202D24FF0020A5A
:103F500004E00A20B4FBF0F44FF0010A42F21070C2
:103F6000B4FBF0F03030C0B28DF8180042F210709F
:103F7000B4FBF0F100FB11404FF47A71B0FBF1F0AB
:103F80003030C0B28DF8190008462EE03C00001019
:103F9000C8260010FC260010A3260010A52600103D
:103FA000D0F20600D8F20600FBF2060054F3060039
:103FB000202020202020200070FFCA00FF7F240046
:103FC0006029001094F6000070F700007E150010C4
:103FD000BC0A00105B3000101C2900106606594016
:103FE0000000C040A08601003AE0B4FBF0F100FB05
:103FF00011406421B0FBF1F03030C0B28DF81A00EE
:10400000BAF1020F0ED12E208DF81B006420B4FBF4
:10401000F0F100FB11400A21B0FBF1F030308DF8D7
:104020001C000DE06420B4FBF0F100FB11400A21FC
:10403000B0FBF1F030308DF81B002E208DF81C0005
:104040000A20B4FBF0F100FB114030308DF81D0068
:1040500000208DF81E0006AA2121EE20FDF75EFD4E
:10406000FE480078FE490978084428B1FD480078E8
:10407000401CFC49087002E00120FA490870F94828
:104080000078232802DD0020F6490870F548007802
:10409000142809DDF448D0F8EC0228B94FF4805117
:1040A000002004F0ADFC04E04FF48051002004F047
:1040B000B1FC4FF47F40ED490860ED4822231822FF
:1040C000522100909F20FDF7D5F80023E94A662190
:1040D000B920FDF75DFDE848222318225321009006
:1040E000D720FDF7C7F80220E4A122231822CDE94A
:1040F0000010552140F2AF10FDF7FFF8012D7BD1E4
:10410000DF4890F82100DF49C870DD4890F82200B0
:104110008870DB4890F820004870D948C07F08704C
:104120000868D94906F0C0FE039006F09FFF0446D8
:10413000D6490868D64906F0D9FF00D20024CA48FB
:10414000D0F8EC0268B1C848D0F8EC0200EBC0012E
:1041500001EB0010B4EB800F03D90120BF490870B8
:1041600002E00020BD490870CA48844202D24FF0E4
:1041700002080DE0C848844205D20A20B4FBF0F4DE
:104180004FF0010804E06420B4FBF0F44FF00008A5
:1041900042F21070B4FBF0F03030C0B28DF818006D
:1041A00042F21070B4FBF0F100FB11404FF47A7151
:1041B000B0FBF1F03030C0B28DF819000846B4FB06
:1041C000F0F100FB11406421B0FBF1F03030C0B2DF
:1041D0008DF81A00B8F1020F0FD12E208DF81B00B8
:1041E0006420B4FBF0F100FB11400A21B0FBF1F0B8
:1041F00030308DF81C0025E045E0B8F1010F0ED1FC
:104200006420B4FBF0F100FB11400A21B0FBF1F097
:1042100030308DF81B002E208DF81C0012E0642039
:10422000B4FBF0F100FB11400A21B0FBF1F030309B
:104230008DF81B000A20B4FBF0F100FB1140303078
:104240008DF81C00B8F1000F03D120208DF81D005F
:1042500007E00A20B4FBF0F100FB114030308DF88C
:104260001D007E48007848B17E480078142805DD9E
:1042700004AA5321EE20FDF751FC04E006AA5321C5
:10428000EE20FDF74BFC85487849086084482223DE
:104290001822822100909F20FCF7ECFF7648222311
:1042A000182282210090B720FCF7E4FF7D482223EA
:1042B0001822842100904FF4E270FCF7DBFF012DFF
:1042C0007BD16F4890F829007749C8706C4890F806
:1042D0002A0088706A4890F828004870684890F86A
:1042E000270008700868714906F0DEFD039006F0AB
:1042F000BDFE044683465C48D0F8B40258B15A4823
:10430000D0F8B40200EB8000B4EB400F03D90120D9
:104310005349087002E00020514908705D48B4FB21
:10432000F0F03030C0B28DF818005A48B4FBF0F10C
:1043300000FB114042F21071B0FBF1F03030C0B21E
:104340008DF819000846B4FBF0F100FB11404FF462
:104350007A71B0FBF1F03030C0B28DF81A002E2027
:104360008DF81B000846B4FBF0F100FB11406421FE
:10437000B0FBF1F03030C0B28DF81C006420B4FB0B
:10438000F0F100FB11400A21B0FBF1F030308DF864
:104390001D000A20B4FBF0F100FB114030308DF815
:1043A0001E002F48007848B12E480078142805DDFB
:1043B00004AA8221CE20FDF7B1FB04E006AA8221E7
:1043C000CE20FDF7ABFB4FF0FF10284908603448C2
:1043D00022231822B42100909F20FCF74BFF344881
:1043E00022231822B4210090B520FCF743FF224875
:1043F00022231822B4210090D720FCF73BFF012D87
:104400007ED11F4890F825002A49C8701C4890F8B2
:10441000260088701A4890F824004870184890F8D0
:10442000230008700868214906F03EFD039006F05D
:104430001DFE0446B4F57A7F01D94FF47A7413490E
:104440000868134906F052FE00D2002442F21070B0
:10445000B4FBF0F100FB11402EE000004D290010EC
:104460004E2900104C290010602900103C0000105B
:10447000B6100010D0F20600BC0A00106D4100001A
:104480005B300010202900100050C3471C29001089
:104490000000C040A086010040420F0070FFCA002B
:1044A000801300104A1600102429001000007A44DE
:1044B000441C00102C2900104FF47A71B0FBF1F06D
:1044C0003030C0B28DF818002E208DF81900084643
:1044D000B4FBF0F100FB11406421B0FBF1F030308F
:1044E000C0B28DF81A006420B4FBF0F100FB11405B
:1044F0000A21B0FBF1F030308DF81B000A2000E0FB
:104500000FE0B4FBF0F100FB114030308DF81C00DF
:1045100000208DF81D0006AAB4214FF48770FDF726
:10452000FDFAFE48FE490860FE4822231822E421D5
:1045300000909F20FCF79EFEFB4822231822E421D6
:104540000090D720FCF796FE052D76D1F748407FE6
:10455000F749C870F548807F8870F448007F48703C
:10456000F248C07E08700868F24906F09DFC03908E
:1045700006F07CFD0446F0490868F04906F0B6FDF7
:1045800000D20024EE480078401CED49087008462F
:1045900000780A2801DD01200870E9480078012828
:1045A00002D1E8490C8004E0E64800882044E5494F
:1045B0000880E34800780A283FD1E248008842F2A8
:1045C000107190FBF1F201FB12004FF47A7190FB35
:1045D000F1F03030C0B28DF81800DA48008890FB56
:1045E000F1F201FB1200642190FBF1F03030C0B217
:1045F0008DF819002E208DF81A00D248008890FB03
:10460000F1F201FB12000A2190FBF1F03030C0B250
:104610008DF81B00CB48008890FBF1F201FB1200E3
:104620003030C0B28DF81C0000208DF81D0006AAA5
:10463000E4214FF48770FDF771FABA48CC30222399
:104640001822E82100904FF4D770FCF713FEBE4803
:1046500022231822E82100904FF4E270FCF70AFEB2
:104660006FF07F40AE490860012D7CD1B2490868E7
:1046700006F029FDB54AB64BCDE9000106F084FCF1
:10468000CDE9020106F006FD0446AB490868AB49D6
:1046900006F02CFD00D20024AE48844201D202274D
:1046A0000BE0AD48844204D20A20B4FBF0F40127A9
:1046B00003E06420B4FBF0F4002742F21070B4FB76
:1046C000F0F03030C0B28DF8180042F21070B4FB38
:1046D000F0F100FB11404FF47A71B0FBF1F0303093
:1046E000C0B28DF819000846B4FBF0F100FB114090
:1046F0006421B0FBF1F03030C0B28DF81A00022F07
:104700000ED12E208DF81B006420B4FBF0F100FBCD
:1047100011400A21B0FBF1F030308DF81C0025E08B
:10472000012F0ED16420B4FBF0F100FB11400A21EF
:10473000B0FBF1F030308DF81B002E208DF81C00FE
:1047400014E06420B4FBF0F100FB11400A21B0FB3F
:10475000F1F030308DF81B000A20B4FBF0F100FBC3
:104760001140303000E017E08DF81C001FB9202008
:104770008DF81D0007E00A20B4FBF0F100FB1140AA
:1047800030308DF81D0000208DF81E00002306AA91
:104790008C212D20FDF7FCF9002370A28C2108202C
:1047A000FDF7F6F900236EA28C218220FDF7F0F9C7
:1047B00000236CA2AA210820FDF7EAF9012D71D18E
:1047C000BBF1000F08D0684A1168684A106806F00B
:1047D0009DFB6749086002E0002065490860644964
:1047E0000868644906F060FB039006F03FFC04464D
:1047F0005848844202D24FF002090DE056488442E4
:1048000005D20A20B4FBF0F44FF0010904E0642063
:10481000B4FBF0F44FF0000942F21070B4FBF0F07A
:104820003030C0B28DF8180042F21070B4FBF0F1D5
:1048300000FB11404FF47A71B0FBF1F03030C0B2A0
:104840008DF819000846B4FBF0F100FB114064211B
:10485000B0FBF1F03030C0B28DF81A00B9F1020FA0
:104860000ED12E208DF81B006420B4FBF0F100FB6C
:1048700011400A21B0FBF1F030308DF81C0025E02A
:10488000B9F1010F0FD16420B4FBF0F100FB11402E
:104890000A21B0FBF1F030308DF81B002E208DF88E
:1048A0001C0013E02AE06420B4FBF0F100FB11408F
:1048B0000A21B0FBF1F030308DF81B000A20B4FB68
:1048C000F0F100FB114030308DF81C00B9F1000F01
:1048D00003D120208DF81D0007E00A20B4FBF0F181
:1048E00000FB114030308DF81D0000208DF81E00B7
:1048F000002306AAAA212D20FDF74AF900231EA2B3
:10490000AA218220FDF744F9012D7DD16FF07F406F
:1049100003490860002319A2CD2131E0FF7F240064
:104920003C000010840F0010BC0A00105B30001027
:1049300028290010000020411C2900100000C04060
:10494000A2260010A02600103C240010CDCCCCCC18
:10495000CCAC6140A086010040420F0056703A0086
:1049600056000000533A00002C29001024290010A2
:10497000302900100000C84256410000543A00009F
:104980000820FDF705F9FD4890F83100FC49C87092
:10499000FA4890F832008870F84890F82F00487074
:1049A000F64890F830000870086806F08CFB4FF06D
:1049B0006632F44BCDE9000106F0E6FACDE90201DA
:1049C00006F068FB0446F0490868F04906F08EFBE3
:1049D00000D20024EE48844202D24FF0020A04E0E2
:1049E0000A20B4FBF0F44FF0010A42F21070B4FB5D
:1049F000F0F03030C0B28DF8180042F21070B4FB05
:104A0000F0F100FB114000E03BE04FF47A71B0FBA5
:104A1000F1F03030C0B28DF819000846B4FBF0F167
:104A200000FB11406421B0FBF1F03030C0B28DF8D2
:104A30001A00BAF1020F05D100208DF81B008DF885
:104A40001C000DE06420B4FBF0F100FB11400A21D2
:104A5000B0FBF1F030308DF81B0000208DF81C0009
:104A600000208DF81D008DF81E00002306AACD2120
:104A70002D20FDF78DF80023C64ACD217620FDF7C5
:104A800087F8012D7DD1BD4890F82D00C249C8702E
:104A9000BA4890F82E008870B84890F82C004870FA
:104AA000B64890F82B000870086806F00CFB4FF031
:104AB0006632B44BCDE9000106F066FACDE9020199
:104AC00006F0E8FA0446B0490868B04906F00EFB63
:104AD00000D20024AE48844202D24FF0020A04E021
:104AE0000A20B4FBF0F44FF0010A42F21070B4FB5C
:104AF000F0F03030C0B28DF8180042F21070B4FB04
:104B0000F0F100FB11404FF47A71B0FBF1F030305E
:104B1000C0B28DF819000846B4FBF0F100FB11405B
:104B20006421B0FBF1F03030C0B28DF81A00BAF158
:104B3000020F0ED12E208DF81B006420B4FBF0F183
:104B400000FB11400A21B0FBF1F030308DF81C0061
:104B50000DE06420B4FBF0F100FB11400A21B0FB32
:104B6000F1F030308DF81B002E208DF81C000A204B
:104B7000B4FBF0F100FB114030308DF81D00002037
:104B800000E013E08DF81E00002384A2F02108202D
:104B9000FCF7FEFF002382A2F0216E20FCF7F8FF55
:104BA000002306AAF0212D20FCF7F2FF09B0BDE892
:104BB000F08F10B5A4B004467AA207CA21AB07C390
:104BC0007BA207CA1EAB07C37CA207CA1BAB07C3E5
:104BD0007DA207CA18AB07C37EA207CA15AB07C3DD
:104BE0007FA207CA12AB07C380A207CA0FAB07C3D5
:104BF00081A207CA0CAB07C382A207CA09AB07C3CD
:104C000083A207CA06AB07C384A207CA03AB07C3C4
:104C100085A207CA8DE80700012C04D121A9854887
:104C200004F028FD21E0052C04D10CA9814804F0F2
:104C300021FD1AE0062C04D109A97E4804F01AFDD2
:104C400013E0072C04D106A97A4804F013FD0CE008
:104C5000082C04D103A9774804F00CFD05E0092CC9
:104C600003D16946734804F005FD24B010BD10B5AA
:104C70007148007800283DD1FF2070490860000489
:104C800048606F4B5B696F4C04EB83026C4B9B88F5
:104C900099B26B4B1B883F3398B20023FCF778FF27
:104CA0006FF07F406549086000204860644BDB6C12
:104CB000C3EBC303644C1A19614B9B8F99B2604BD1
:104CC0001B8F3F3398B20023FCF762FF5C4BD3F895
:104CD0008430C3EBC3035D4C1A19594BB3F87430DD
:104CE00099B2574BB3F870303F3398B20023FCF7BA
:104CF0004FFFEEE05048007801283DD1FF204F499A
:104D00000860000448604E4BDB6CC3EBC3034E4CA1
:104D10001A194B4B9B8F99B2494B1B8F3F3398B25B
:104D20000023FCF735FF6FF07F4044490860002006
:104D30004860434B5B69434C04EB8302404B9B88C8
:104D400099B23F4B1B883F3398B20023FCF720FFFA
:104D50003B4BD3F88430C3EBC3033C4C1A19384B9C
:104D6000B3F8743099B2364BB3F870303F3398B221
:104D70000023FCF70DFFACE06AE000005B300010A0
:104D800048290010660659401C2900100000C04048
:104D9000A08601004EF3060044290010573A000097
:104DA000572E680001030D20000C46A9A100000049
:104DB00001030D200002C76DA100000001030D22B8
:104DC000000266ADA100000001030D24000286ACC4
:104DD000A100000001030D260002276CA1000000C5
:104DE00001030D28000246AFA100000001030D2AB7
:104DF0000002E76FA100000001030D12000266A28D
:104E0000A1000000010600A6FF002819A100000073
:104E1000010600A6000069E9A100000001060D2EB0
:104E2000FF00AA9FA100000001060D2E0000EB6FFD
:104E3000A100000000C000404F2D00103C000010F9
:104E4000FC260010D0F20600D8F20600FBF20600A5
:104E5000FB48007802283CD1FF20FA490860000492
:104E60004860F94BD3F88430C3EBC303F74C1A19ED
:104E7000F54BB3F8743099B2F34BB3F870303F335D
:104E800098B20023FCF784FE6FF07F40ED49086084
:104E900000204860EC4B5B69ED4C04EB8302EA4B6D
:104EA0009B8899B2E84B1B883F3398B20023FCF7EC
:104EB0006FFEE54BDB6CC3EBC303E64C1A19E24B08
:104EC0009B8F99B2E04B1B8F3F3398B20023FCF7C6
:104ED0005FFE10BD10B5E048007802281ED1DF4803
:104EE000006820F010001030DC49086008460068B7
:104EF00020F001000860096860F34101D7480160B3
:104F00004908006861F38200D44908608108D348E9
:104F1000006861F3C300D14908608DE0CE48007895
:104F200003281ED1CD48006820F008000830CB4986
:104F300008600846006820F0100008600109C748B2
:104F4000006861F30000C5490860096860F3410129
:104F5000C24801604908006861F38200BF490860E7
:104F60006AE0BD48007804281ED1BC48006820F0E3
:104F70000400001DB94908600846006820F01000D0
:104F800008600109B548006861F30000B349086092
:104F9000096860F34101B14801604908006861F3A4
:104FA000C300AE49086047E0AB48007805281ED131
:104FB000AA48006820F00200801CA8490860084642
:104FC000006820F0100008600109A448006861F33F
:104FD0000000A2490860096860F382019F480160EF
:104FE0008908006861F3C3009C49086024E09A487E
:104FF0000078062820D19948006820F00100401C64
:10500000964908600846006820F010000860010911
:105010009248006861F341009049086041088F4858
:10502000006861F382008D49086081088B48006840
:1050300061F3C3008949086089480078002872D16B
:105040007F480078C0EBC0007F4901EBC000007BC7
:10505000012869D17A480078C01E062870D2DFE89E
:1050600000F04C0398E1EDEC7C48007800F0010082
:1050700028B17C480068401E7A4908602DE07748D6
:105080000078C0F3400028B1764800680A387549B6
:10509000086022E071480078C0F3800028B17148B0
:1050A000006864386F49086017E06C480078C0F306
:1050B000C00030B16B480068A0F57A70694908609B
:1050C0000BE066480078C0F3001030B16548006816
:1050D000A0F51C50103863490860624800685849C0
:1050E0000978C1EBC101584A02EBC1010969884244
:1050F00002D900205B490860C3E15848007800F0FD
:10510000010028B158480068401E5749086030E047
:1051100052480078C0F3400038B1534800680A385C
:105120005149086025E0ADE1E6E24C480078C0F363
:10513000800030B14C48006864384B49086018E082
:1051400068E146480078C0F3C00030B146480068C6
:10515000A0F57A70444908600BE040480078C0F33D
:10516000001030B140480068A0F51C5010383E498E
:1051700008603D48006832490978C1EBC101324AF4
:1051800002EBC1010969884202D900203649086052
:1051900077E13248007800F0010028B13348006818
:1051A000401E324908602DE02C480078C0F34000D2
:1051B00028B12E4800680A382C49086022E02748A8
:1051C0000078C0F3800028B1284800686438274977
:1051D000086017E021480078C0F3C00030B12348D0
:1051E0000068A0F57A70214908600BE01B48007840
:1051F000C0F3001030B11D480068A0F51C501038F5
:105200001A490860194800680D490978C1EBC101C5
:105210000D4A02EBC1010969884202D900201349F5
:1052200008602EE10D48007800F0010038B1104808
:105230000068401E0E4908604AE0A2E058E019E00C
:105240004F2D00103C000010FC260010FBF2060061
:10525000D0F20600D8F206005F290010FC280010EA
:10526000A42600102C290010302900103829001025
:1052700028290010FE480078C0F3400028B1FD48FE
:1052800000680A38FB49086022E0F9480078C0F35A
:10529000800028B1F74800686438F649086017E0D4
:1052A000F3480078C0F3C00030B1F2480068A0F5C0
:1052B0007A70F04908600BE0ED480078C0F3001008
:1052C00030B1EC480068A0F51C501038E94908607E
:1052D000E8480068E8490978C1EBC101E74A02EBF8
:1052E000C1010969884202D90020E2490860C8E08A
:1052F000DF48007800F0010028B1E1480068401E56
:10530000DF4908602DE0DA480078C0F3400028B19A
:10531000DB4800680A38DA49086022E0D44800789F
:10532000C0F3800028B1D64800686438D4490860CA
:1053300017E0CF480078C0F3C00030B1D048006813
:10534000A0F57A70CE4908600BE0C9480078C0F338
:10535000001030B1CA480068A0F51C501038C84988
:105360000860C7480068C4490978C1EBC101C34A55
:1053700002EBC1010969884202D90020C0490860D6
:105380007FE0BB48007800F0010028B1BD4800680C
:10539000401EBC4908602DE0B5480078C0F34000CD
:1053A00028B1B84800680A38B649086022E0B04819
:1053B0000078C0F3800028B1B24800686438B14971
:1053C000086017E0AA480078C0F3C00030B1AD48CB
:1053D0000068A0F57A70AB4908600BE0A44800783B
:1053E000C0F3001030B1A7480068A0F51C50103879
:1053F000A4490860A34800689F490978C1EBC1012E
:105400009E4A02EBC1010969884202D900209D49E8
:10541000086036E09648007800F0010080B39648B6
:105420000078C0EBC000954901EBC0004069401E08
:1054300091490978C1EBC101904A02EBC101486171
:105440008D480078C0EBC000114601EBC0004069F8
:1054500089490978C1EBC10102EBC10109698842A0
:105460000ED985480078C0EBC000114601EBC000A2
:10547000006981490978C1EBC10102EBC1014861B2
:1054800000BF39E1804800780428FAD17A480078D2
:10549000C0EBC0007D4901EBC000007B0128F0D1CA
:1054A00075480078022804D00C2832D00D287CD111
:1054B0007FE06F480078C0F3800038B17348D0F8BF
:1054C0008400401E7149C1F8840018E068480078E3
:1054D000C0F3C00038B16D48D0F884000A386B4979
:1054E000C1F884000BE062480078C0F3001030B1CE
:1054F0006648D0F8840064386449C1F88400634881
:10550000D0F88400FE2803D900216048C0F8841038
:10551000F1E05748007800F0010038B15B48D0F85E
:10552000B402401E5949C1F8B40235E05048007831
:10553000C0F3400038B15548D0F8B4020A38534996
:10554000C1F8B40228E04A480078C0F3800038B1BE
:105550004E48D0F8B40264384C49C1F8B4021BE09C
:1055600043480078C0F3C00040B14848D0F8B402C6
:10557000A0F57A704549C1F8B4020DE03C480078C6
:10558000C0F3001040B14148D0F8B402A0F51C505F
:1055900010383E49C1F8B4023C48D0F8B4023C4946
:1055A000884205D90021394800E051E0C0F8B41222
:1055B000A1E02F48007800F0010038B13348D0F85E
:1055C000EC02401E3149C1F8EC0235E02848007871
:1055D000C0F3400038B12D48D0F8EC020A382B490E
:1055E000C1F8EC0228E022480078C0F3800038B10E
:1055F0002648D0F8EC0264382449C1F8EC021BE0DC
:105600001B480078C0F3C00040B12048D0F8EC023D
:10561000A0F57A701D49C1F8EC020DE0144800783D
:10562000C0F3001040B11948D0F8EC02A0F51C50AE
:1056300010381649C1F8EC021448D0F8EC024CF2CC
:105640005031884203D900211048C0F8EC1252E0D2
:105650000748007800F00100F0B307480078C0EB7D
:10566000C0000A4901EBC0004069401E024911E038
:10567000FC280010282900104F2D0010FC260010D7
:105680003C29001040290010A426001060290010B9
:105690009F8601000978C1EBC101FD4A02EBC101FF
:1056A0004861FC480078C0EBC000114601EBC00027
:1056B0004069F8490978C1EBC10102EBC1010969F0
:1056C000884210D9F3480078C0EBC000114601EBC6
:1056D000C0000069EF4900E00CE00978C1EBC101AE
:1056E00002EBC1014861EB480078062802D1002096
:1056F000FBF7C4F800BF00BF10BD10B5E648007846
:10570000012800D010BDFFF7E5FB00BFFAE710B598
:10571000E2480078022821D1E148006820F010001A
:105720001030DF4908600846006820F00800086073
:10573000C108DB48006861F38200D949086081082C
:10574000D748006861F34100D54908604108D44852
:10575000006861F30000D249086090E0CF4800780B
:1057600003281FD1CE48006820F00400CC4908600F
:105770008108CB48006861F34100C94908604108CD
:10578000C748006861F30000C5490860096860F314
:105790000411C3480160006820F008000830C049C7
:1057A00008606CE0BD48007804281FD1BC48006840
:1057B00020F00800BA490860C108B948006861F3E0
:1057C0004100B74908604108B548006861F300002E
:1057D000B3490860096860F30411B14801600068CA
:1057E00020F00400001DAE49086048E0AB48007896
:1057F00005281FD1AA48006820F00800A8490860C1
:10580000C108A748006861F38200A54908608108C3
:10581000A348006861F30000A1490860096860F3CB
:1058200004119F480160006820F00200801C9C4920
:10583000086024E099480078062820D1984800683C
:1058400020F0080096490860C1089548006861F397
:1058500082009349086081089148006861F3410023
:105860008F49086041088E48006861F304108C4934
:1058700008600846006820F00100401C0860894864
:105880000078002879D183480078C0EBC0008649B1
:1058900001EBC000007B012870D17E480078C01E5B
:1058A00006286CD2DFE800F05303A6F3F2F17C483F
:1058B000007800F0010028B17C480068401C7B495A
:1058C00008602DE076480078C0F3400028B17748A2
:1058D00000680A307549086022E071480078C0F31A
:1058E000800028B17148006864307049086017E092
:1058F0006B480078C0F3C00030B16C48006800F518
:105900007A706A4908600BE065480078C0F30010BF
:1059100030B16648006842F210710844634908607B
:10592000624800685B490978C1EBC1015E4A02EB3D
:10593000C1010969884209D956480078C0EBC00006
:10594000114601EBC000006958490860DAE154488B
:10595000007800F0010028B155480068401C544907
:10596000086030E04E480078C0F3400040B1504835
:1059700000680A304E49086025E0C4E1F7E291E191
:1059800047480078C0F3800028B149480068643077
:105990004749086017E042480078C0F3C00030B1C2
:1059A0004348006800F57A70414908600BE03C48C4
:1059B0000078C0F3001030B13D48006842F2107129
:1059C00008443B4908603A48006832490978C1EB0D
:1059D000C101354A02EBC1010969884209D92D4844
:1059E0000078C0EBC000114601EBC00000693049EF
:1059F000086087E12A48007800F0010028B12D48AE
:105A00000068401C2B4908602DE025480078C0F351
:105A1000400028B1274800680A302649086022E083
:105A20001F480078C0F3800028B122480068643025
:105A30002049086017E01A480078C0F3C00030B170
:105A40001C48006800F57A701A4908600BE0144899
:105A50000078C0F3001030B11648006842F21071AF
:105A6000084414490860134800680A490978C1EBE2
:105A7000C1010D4A02EBC1010969884221D90548DB
:105A80000078C0EBC000114616E0BBE06AE019E008
:105A9000602900104F2D0010A32600105F29001070
:105AA000FC280010A4260010FC2600102C29001051
:105AB000302900103829001001EBC0000069F949B5
:105AC00008601FE1F848007800F0010028B1F748AD
:105AD0000068401CF54908602DE0F3480078C0F3E9
